:020000040800F2
:10000000902500209D01000803430008BB3C000828
:1000100001430008110A0008A9540008000000006C
:10002000000000000000000000000000274300085E
:10003000130A0008000000002543000829430008B7
:10004000B7010008B7010008B7010008B7010008B0
:10005000B7010008B7010008150A0008650C000880
:10006000290F0008B7010008F1110008B7010008C6
:10007000B7010008B7010008B7010008B701000880
:10008000B7010008B7010008B5080008B70100086B
:10009000B7010008B7010008B7010008B701000860
:1000A000B7010008B7010008B7010008B701000850
:1000B00039440008A9460008B7010008B701000844
:1000C000B7010008B7010008B7010008B701000830
:1000D000B7010008B7010008CD510008B7010008BA
:1000E000B7010008B7010008B7010008B701000810
:1000F000B7010008B7010008B7010008250900088A
:10010000000000000000000000000000B70100082F
:10011000B7010008B7010008B7010008B7010008DF
:10012000B7010008B7010008B7010008B7010008CF
:10013000B7010008B701000800000000000000003F
:10014000B7010008B7010008B7010008000000006F
:10015000000000000000000000000000000000009F
:100160000000000000000000B7010008B70100080F
:10017000B7010008000000000000000000000000BF
:1001800000000000B7010008DFF80CD000F034FBDD
:1001900000480047416B0008902500200648804732
:1001A00006480047FEE7FEE7FEE7FEE7FEE7FEE75C
:1001B000FEE7FEE7FEE7FEE7D143000889010008FD
:1001C000202A04DB203A21FA02F00021704721FAAC
:1001D00002F3D040C2F12002914008431946704713
:1001E0000649074A0868504343F239021044086040
:1001F0004008704701490860704700002401002052
:100200006D4EC641D2B201E000F8012B491EFBD26F
:1002100070470022F6E710B513460A460446194611
:10022000FFF7F0FF204610BD421E12F8013F002BE1
:10023000FBD111F8013B02F8013B002BF9D17047CB
:10024000421C10F8011B0029FBD1801A70472DE9D0
:10025000FE4F81EA030404F0004421F000410094C1
:100260004FF0000B23F0004350EA01045ED052EA45
:1002700003045BD0C3F30A54C1F30A552C44A4F21F
:10028000F3340194A0FB0254C1F3130141F4801133
:10029000C3F3130343F4801301FB024400FB034E3A
:1002A000840A970A44EA815447EA8357A4FB076803
:1002B00002958D0A05FB07854FEA932C04FB0C542D
:1002C0002705029D4FEA065847EA1637B5EB0805A1
:1002D0006EEB070C870E920E47EA811742EA8312F3
:1002E000A7FB0201B6EB0B0164EB00042B0D43EA04
:1002F0000C335E1844EB1C50DA465146E7FB020112
:10030000C5F313044FEA0B3343EA14534FEA0432A4
:10031000019C43EA0603A4F10C040294009CCDE97D
:1003200000B400F0ECF803B0BDE8F08F0020014607
:10033000F9E70EB5C10F80EAE0700844CA07002152
:1003400040F233438DE80E000A460B4600F0D7F822
:1003500003B000BD00F0004230F000400AD0C10DF3
:1003600001F56071C0F3160042EA0151C20840076E
:1003700011437047002001467047000030B5041E4D
:1003800071F1000404DB4FF00044404264EB0101D2
:10039000141E73F1000405DB1C464FF0004352426B
:1003A00063EB0403994208BF904230BD01F0004363
:1003B00030B421F0004150EA010206D00A0DA2F546
:1003C0006072C1F31301002A02DC30BC00207047C8
:1003D000440F44EAC104C100E01830BC00EBC25035
:1003E00000F047B830B50B4601460020202201241A
:1003F00009E021FA02F59D4205D303FA02F5491BF3
:1004000004FA02F52844151EA2F10102F1DC30BD08
:100410002DE9F05F0546002092469B468846064639
:10042000814640241BE02846414647462246FFF7C6
:10043000C7FE53465A46C01A914110D3114618467A
:10044000224600F0EBF92D1A67EB01084F462246D1
:100450000120002100F0E2F917EB00094E41201EB7
:10046000A4F10104DFDC484631462A464346BDE894
:10047000F09F0029A8BF7047401C490008BF20F02A
:100480000100704710B4B0FA80FC00FA0CF050EA9A
:10049000010404BF10BC704749B1CCF1200421FA1B
:1004A00004F411FA0CF118BF012121430843A3EB16
:1004B0000C01CB1D4FEA00614FEA102042BF002023
:1004C00010BC704700EBC35010440029A4BF10BCFF
:1004D0007047401C490008BF20F0010010BC704765
:1004E00010B5141E73F1000408DA401C41F100013C
:1004F00092185B411A4301D120F0010010BD2DE993
:10050000F04D92469B4611B1B1FA81F202E0B0FA89
:1005100080F22032904600F081F904460F4640EA0E
:100520000A0041EA0B0153465A46084313D01146CC
:1005300053EA010019D0C8F140025046FFF740FECF
:1005400005460E4650465946424600F067F90843B4
:1005500005D0012004E020463946BDE8F08D00209A
:10056000054346EAE0762C4337430A986305E40ADC
:10057000A0EB08000022FD0A44EA47540A3002D5E5
:1005800000200146E9E7010510196941DDE9084548
:1005900000196941BDE8F04DA2E72DE9FE4F804604
:1005A00081EA0300C00F0C46009021F0004123F0C7
:1005B0000045B8EB0200A94105D2404621469046CD
:1005C0001C460B46024623F00040104347D0270D3F
:1005D000C7F30A00C3F30A510290401A0190402861
:1005E0006BDAC3F3130040F4801B0098924620B1ED
:1005F0000023D2EB030A63EB0B0B01985946C0F1C1
:100600004002504600F00AF906460D46504659464B
:10061000019A00F012F910EB08006141002487EA0A
:10062000115284EAE7731A4340D0009A62B3019AE8
:10063000012A4FEA075215DC001B61EB02014FF063
:10064000004202EA0752CDE90042001C41F5801148
:1006500032462B46FFF753FF03B0BDE8F08F40460C
:100660002146F9E7001B61EB0201001C41F58013F4
:1006700000185B412018A2F5001747EB030140EA80
:10068000D570B6196D4111E06D084FEA360645EA9E
:10069000C0754FEA0752001B61EB0201001C41F5D7
:1006A000801149084FEA30000019514132462B466B
:1006B00003B0BDE8F04FFFF713BF009801224000E0
:1006C0000023D0EB020263EBE073009821464FEA6F
:1006D000E074B8EB000061EB0401E9E783F000434C
:1006E0005BE781F0004158E72DE9F04D81EA030412
:1006F00004F0004B21F0004514464FF0000A23F0AF
:10070000004150EA050220D054EA01021DD0C5F391
:100710000A570246C5F31303C1F31300C1F30A5687
:1007200040F4801543F48013A7EB0608101BD6464F
:1007300008F2FD3873EB050002D308F1010801E06F
:1007400092185B41B8F1000F03DA00200146BDE8C2
:10075000F08D00204FF48011064684460EE0171BF2
:1007600073EB050705D3121B63EB050306434CEA45
:10077000010C49084FEA300092185B4150EA01072A
:10078000EDD152EA030012D082EA040083EA0501A7
:10079000084305D0101BAB4106D20122002306E01E
:1007A00000224FF0004302E06FF0010253101AEBF9
:1007B00006004CEB085110EB0A0041EB0B01BDE8C1
:1007C000F04DFFF78DBEC1F30A52C1F3130140F2A1
:1007D000FF3341F480119A4202DA0020014670474B
:1007E00040F233439A42A2F2334202DC5242FFF714
:1007F000E7BC00F013B80000064C074D06E0E068C7
:1008000040F0010394E8070098471034AC42F6D357
:10081000FFF7BEFCFC7700081C780008202A04DBE8
:10082000203A00FA02F1002070479140C2F1200303
:1008300020FA03F3194390407047202A06DBCB17B8
:10084000203A41FA02F043EAE07306E041FA02F38B
:10085000D040C2F12002914008431946704770B55C
:100860008C1810F8015B15F0070301D110F8013B5B
:100870002A1106D110F8012B03E010F8016B01F8E2
:10088000016B5B1EF9D12B0705D40023521E0DD43A
:1008900001F8013BFAE710F8013BCB1A921C03E088
:1008A00013F8015B01F8015B521EF9D5A142D8D3C0
:1008B000002070BD164810B5006802280DD11548FB
:1008C00001F07EF8BE2148433F2190FBF1F00A2160
:1008D00090FBF1F0002106F01DFE0F4C606A01282C
:1008E00008D10E4801F06CF80D490860FFF782FC52
:1008F00000206062074801F067F8084801F064F8DA
:10090000044801F081FBBDE81040044801F07CBBC5
:100910003400002024050020C800002078050020B5
:10092000C400002010B5074801F04AF80649C0008D
:10093000C863044801F048F8BDE81040014801F0E0
:1009400063BB0000CC050020C800002070B5044641
:100950000068816801F00301012926D10168C907F7
:1009600023D0816801F00D01012910D1816841F087
:100970000201816021680320086001F019FD05462D
:100980000FE000BF01F014FD401B022809D9606C84
:1009900040F010006064A06C40F00100A0640120F1
:1009A00070BD20688068C007ECD1002070BD0000D9
:1009B00070B504460068816801F00301012902D185
:1009C0000168C90720D18168104A11420DD18168A0
:1009D00041F00101816001F0EBFC05460FE000BF32
:1009E00001F0E6FC401B022809D9606C40F01000C1
:1009F0006064A06C40F00100A064012070BD20681C
:100A00000068C043C007EBD1002070BD3F000080EC
:100A1000FEE770472DE9F05F0024DFF824A2DFF83D
:100A200024B24FF00109884DDFF82082884E894FAB
:100A300007E034B1012C0BD0022C15D0032C38D197
:100A400023E001221021384601F0ADFC002205E030
:100A500000221021384601F0A6FC01222021384650
:100A600001F0A1FC00220AE000221021384601F02A
:100A70009AFC00222021384601F095FC01224021F9
:100A8000384601F090FC00220FE000221021384689
:100A900001F089FC00222021384601F084FC00226C
:100AA0004021384601F07FFC01228021384601F0C8
:100AB0007AFC0121304601F071FCD8B3D4BB286820
:100AC000012806D0022804D0032802D0042805D02B
:100AD00027E00121002006F01DFD22E005F04CFB7F
:100AE0005D4804F0E3FC4FF47A715B48FFF791FB3B
:100AF0004FF4FA7001F06EFB5849D8F840000860D6
:100B00005749D8F84400086002202860C8F80090CF
:100B100007E02868022804D1052001F05BFB03F000
:100B2000C3FD0121304601F039FC0028F1D1142029
:100B300001F050FB0121304601F030FCF8B1012CEE
:100B40001DD12868012803D0022801D003280DD127
:100B50004FF0FF31002006F0DDFC07E02868022896
:100B600004D1052001F036FB03F09EFD0121304643
:100B700001F014FC0028F1D1142001F02BFB01211D
:100B8000304601F00BFC40B3022C26D12868022825
:100B90001AD1DAF80000401CC11700EB917121F066
:100BA0000301401ACAF8000002D0CBF800000BE0A5
:100BB0002B21CBF8001007E02868022804D105207B
:100BC00001F008FB03F070FD0121304601F0E6FB67
:100BD0000028F1D1142001F0FDFA0121304601F086
:100BE000DDFB80B1032C0ED1286818B9C5F8009040
:100BF000C8F800900121304601F0D0FB0028F9D15F
:100C0000142001F0E7FA01221021384601F0CBFB55
:100C100001222021384601F0C6FB0122402138463E
:100C200001F0C1FB01228021384601F0BCFB641CAD
:100C3000042CFFF6FEAEBDE8F05F012001F0DEBA45
:100C40004C0000202C00002034000020C8000020B0
:100C500000040048000C0048C40C002014000020D0
:100C6000180000202DE9F0470024AB4D4FF0010A99
:100C7000A046DFF8A892AA4EAA4F07E034B1012C93
:100C80000BD0022C15D0032C38D123E001221021E7
:100C9000384601F088FB002205E00022102138468A
:100CA00001F081FB01222021384601F07CFB00226B
:100CB0000AE000221021384601F075FB00222021B5
:100CC000384601F070FB01224021384601F06BFBF1
:100CD00000220FE000221021384601F064FB0022C0
:100CE0002021384601F05FFB00224021384601F008
:100CF0005AFB01228021384601F055FB0221304683
:100D000001F04CFBB0B3ACBB2868042829D1D9F85A
:100D1000281048460E290BD1816B012908D0C16AE1
:100D200021B10021C0F834A0C16206E00121F9E739
:100D30000E21C0E90A18C0F83480C0F83880C0F825
:100D40003080436B00210320D9F82C2005F0EEFF02
:100D500007E02868022804D1052001F03BFA03F0DF
:100D6000A3FC0221304601F019FB0028F1D1142028
:100D700001F030FA0221304601F010FBE8B3012CFB
:100D80003BD1286804282FD1D9F82800CC460A285E
:100D900010D1DCF8380001280CD0DCF82C0005213B
:100DA000401C90FBF1F201FB1200CCF834A0CCF80F
:100DB0002C0004E00A20CCE90A08CCF83480CCF8F6
:100DC0003880CCF83080DCF8343000210220D9F8AB
:100DD0002C2005F0ABFF07E02868022804D105208D
:100DE00001F0F8F903F060FC0221304601F0D6FA78
:100DF0000028F1D1142001F0EDF90221304601F074
:100E0000CDFAD0B3022C38D1286804282CD1D9F8D7
:100E10002810484606290ED1816B01290BD0C16AE2
:100E2000C0F834A0491CCA1701EB927222F00302E9
:100E3000891AC16204E00621C0E90A18C0F83480AA
:100E4000C0F83880C0F83080436B00210120D9F809
:100E50002C2005F06BFF07E02868022804D105204C
:100E600001F0B8F903F020FC0221304601F096FAB7
:100E70000028F1D1142001F0ADF90221304601F033
:100E80008DFA60B3032C2AD1286804281ED1D9F822
:100E900028104846022908D1816B012905D0C0F8E5
:100EA00034A05146C0F82C8006E002218162C0F8CF
:100EB0002C804146C0F83480C0F838800B460021B1
:100EC000C0F830804246084605F030FF0221304627
:100ED00001F064FA0028F9D1142001F07BF9012215
:100EE0001021384601F05FFA01222021384601F036
:100EF0005AFA01224021384601F055FA0122802198
:100F0000384601F050FA641C042CFFF6B7AEBDE879
:100F1000F047022001F072B934000020C800002020
:100F200000040048000C00482DE9F0470024AC4DB7
:100F30004FF0010AA046DFF8AC92AB4EAB4F07E092
:100F400034B1012C0BD0022C15D0032C38D123E066
:100F500001221021384601F026FA002205E0002285
:100F60001021384601F01FFA01222021384601F0F5
:100F70001AFA00220AE000221021384601F013FA82
:100F800000222021384601F00EFA01224021384685
:100F900001F009FA00220FE000221021384601F08A
:100FA00002FA00222021384601F0FDF900224021FA
:100FB000384601F0F8F901228021384601F0F3F9B2
:100FC0000421304601F0EAF9B0B3ACBB286804282C
:100FD00029D1D9F8281048460F290BD1816B012956
:100FE00008D0C16A21B10021C0F834A0C16206E076
:100FF0000121F9E70F21C0E90A18C0F83480C0F8D0
:101000003880C0F83080436B01210320D9F82C20B0
:1010100005F08CFE07E02868022804D1052001F0C5
:10102000D9F803F041FB0421304601F0B7F900285C
:10103000F1D1142001F0CEF80421304601F0AEF9D0
:10104000D0B3012C38D1286804282CD1D9F8281025
:1010500048460B290ED1816B01290BD0C16AC0F81B
:1010600034A0491CCA1701EB927222F00302891ABC
:10107000C16204E00B21C0E90A18C0F83480C0F84E
:101080003880C0F83080436B01210220D9F82C2031
:1010900005F04CFE07E02868022804D1052001F085
:1010A00099F803F001FB0421304601F077F900289C
:1010B000F1D1142001F08EF80421304601F06EF9D0
:1010C000D0B3022C38D1286804282CD1D9F82810A4
:1010D000484607290ED1816B01290BD0C16AC0F89F
:1010E00034A0491CCA1701EB927222F00302891A3C
:1010F000C16204E00721C0E90A18C0F83480C0F8D2
:101100003880C0F83080436B01210846D9F82C2084
:1011100005F00CFE07E02868022804D1052001F044
:1011200059F803F0C1FA0421304601F037F90028DC
:10113000F1D1142001F04EF80421304601F02EF9CF
:1011400088B3032C2FD12868042823D1D9F828107C
:10115000484603290ED1816B01290BD0C16AC0F822
:1011600034A0491CCA1701EB927222F00302891ABB
:10117000C16204E00321C0E90A18C0F83480C0F855
:101180003880C0F83080436B01210020D9F82C2032
:1011900005F0CCFD0421304601F000F90028F9D11A
:1011A000142001F017F801221021384601F0FBF855
:1011B00001222021384601F0F6F80122402138466C
:1011C00001F0F1F801228021384601F0ECF8641CAE
:1011D000042CFFF6B5AEBDE8F047042001F00EB8D0
:1011E00034000020C800002000040048000C004823
:1011F0002DE9F05F0024BD4D4FF0010A4FF0040BC4
:10120000A046DFF8EC92BB4EBB4F07E034B1012C97
:101210000BD0022C15D0032C38D123E00122102151
:10122000384601F0C0F8002205E0002210213846BF
:1012300001F0B9F801222021384601F0B4F800226B
:101240000AE000221021384601F0ADF800222021EA
:10125000384601F0A8F801224021384601F0A3F8F1
:1012600000220FE000221021384601F09CF80022F5
:101270002021384601F097F800224021384601F03D
:1012800092F801228021384601F08DF81021304675
:1012900001F084F880B37CBB2868022802D00428BF
:1012A0001CD044E0954A00204146C5F800B01154D6
:1012B000401C6428FBDB92494FF0FF3008609149E5
:1012C000C9F800A04FF496700968C9F840108E491B
:1012D0000968C9F8441000F07DFF28E0D9F828100B
:1012E0004846102909D1816B012906D0C0F834A0E5
:1012F0005146C0F82C8007E022E010218162C0F83E
:101300002C804146C0F83480C0F838800B46C0F8C5
:10131000308042460221032005F008FD07E02868DE
:10132000022804D1052000F055FF03F0BDF910217B
:10133000304601F033F80028F1D1142000F04AFFC4
:101340001021304601F02AF8E8B3012C3BD128687F
:1013500004282FD1D9F82800CC460C2810D1DCF86D
:10136000380001280CD0DCF82C000521401C90FB33
:10137000F1F201FB1200CCF834A0CCF82C0004E010
:101380000C20CCE90A08CCF83480CCF83880CCF8B2
:1013900030800221DCF834300846D9F82C2005F0E2
:1013A000C5FC07E02868022804D1052000F012FFE0
:1013B00003F07AF91021304600F0F0FF0028F1D157
:1013C000142000F007FF1021304600F0E7FFD0B3F3
:1013D000022C38D1286804282CD1D9F82810484686
:1013E00008290ED1816B01290BD0C16AC0F834A045
:1013F000491CCA1701EB927222F00302891AC162DA
:1014000004E00821C0E90A18C0F83480C0F8388028
:10141000C0F83080436B02210120D9F82C2005F060
:1014200085FC07E02868022804D1052000F0D2FEE0
:1014300003F03AF91021304600F0B0FF0028F1D156
:10144000142000F0C7FE1021304600F0A7FF80B343
:10145000032C2ED12868042822D1D9F82810484618
:1014600004290ED1816B01290BD0C16AC0F834A0C8
:10147000491CCA1701EB927222F00302891AC16259
:1014800003E0C0E90AB8C0F83480C0F83880C0F87A
:101490003080436B02210020D9F82C2005F046FC57
:1014A0001021304600F07AFF0028F9D1142000F016
:1014B00091FE01221021384600F075FF0122202103
:1014C000384600F070FF01224021384600F06BFFE3
:1014D00001228021384600F066FF641C042CFFF6D0
:1014E00095AEBDE8F05F102000F088BE340000200B
:1014F000C800002000040048000C0048C40C002074
:101500003C000020140000201800002070477047A5
:1015100070477047F0B5002302684FF0A04C3D4C77
:1015200095B01F46624501D100940DE0A24202D160
:10153000CDF800C008E0384D384EAA4201D10096DF
:1015400002E0B24214D1009590F84050012D12D023
:10155000012580F8405095686D0752D4009DAD6814
:101560006D074ED4624501D0A24206D12C4A05E057
:10157000012015B0F0BD0220FBE72A4A0D6840F6B5
:101580001F741DB39568466B25F4604545EA4635E2
:101590004E68354395600568AE6806F00306012E77
:1015A00002D12D68ED0731D1009DAD6805F003052E
:1015B000012D03D1009D2D68ED0727D10D688968A5
:1015C0000D439168A1430D4395601FE0916821F49C
:1015D0006041916001688D6805F00305012D02D11D
:1015E0000968C90712D10099896801F0030101292E
:1015F00003D100990968C90708D19168A143916096
:1016000004E0416C41F020014164012380F8407006
:101610001846AEE7000100500004005000050050DD
:101620000003005000070050F0B595B0002400946E
:1016300090F840202546012A19D0012780F84070F3
:1016400003689A6852077CD44A681F26052A11D27B
:10165000D3F830C002EB4202520096402CEA060C4E
:101660000E6896404CEA060CC3F830C035E0022004
:1016700015B0F0BD0A2A0FD2D3F834C0521F02EBC6
:101680004202520096402CEA060C0E6896404CEA44
:10169000060CC3F834C020E00F2A0FD2D3F838C0AC
:1016A0000A3A02EB4202520096402CEA060C0E68FF
:1016B00096404CEA060CC3F838C00EE0D3F83CC0A4
:1016C0000F3A02EB4202520096402CEA060C0E68DA
:1016D00096404CEA060CC3F83CC00268936813F0CD
:1016E0000C0F4FF0070374D1D1F800E0BEF10A0FE0
:1016F00010D39669AEF10A0E0EEB4E0C03FA0CFEF7
:1017000026EA0E06D1F808E00EFA0CFE46EA0E06AE
:1017100096610FE0D2F814C00EEB4E0603FA06FEF7
:101720002CEA0E0CD1F808E00EFA06FE4CEA0E0C7C
:10173000C2F814C002684E69D2F80CC0CCF3C10CD8
:1017400000E0FDE04FEA4C0C06FA0CF6D1F810E090
:10175000DFF848C2BEF1010F42D0BEF1020F4DD0FA
:10176000BEF1030F58D0BEF1040F63D0166E91F88E
:1017700000C006F0F846B6EB8C6F03D1166E26F06B
:10178000004616660268566E91F800C006F0F846EC
:10179000B6EB8C6F03D1566E26F000465666026893
:1017A000966E91F800C006F0F846B6EB8C6F03D148
:1017B000966E26F0004696660268D66E91F800C0D6
:1017C00006F0F846B6EB8C6F03D1D66E26F00046D5
:1017D000D6660268966806F00306012E3AD136E016
:1017E000D2F860E00EEA0C0E91F800C046EA8C6672
:1017F0004EEA060E4EF000461666EAE7D2F864E0BE
:101800000EEA0C0E91F800C046EA8C664EEA060E0F
:101810004EF000465666DCE7D2F868E00EEA0C0EA1
:1018200091F800C046EA8C664EEA060E4EF000467D
:101830009666CEE7D2F86CE00EEA0C0E91F800C086
:1018400046EA8C664EEA060E4EF00046C0E7166881
:10185000F6077AD1CE68012E06D052F8B03F0E7846
:10186000B740BB43136021E052F8B06F91F800C05D
:1018700007FA0CF73E4316600A680A2A0BD306687B
:10188000B769093A02EB420293409F438B68934049
:101890001F43B7610AE007687E69521C02EB4202EF
:1018A00093409E438B6893401E437E6103684FF0D4
:1018B000A0473B4EBB4201D0B34201D1394A00E0C0
:1018C000394A0968102904D0112907D012290AD0F1
:1018D0003BE0D2F808C04FEA0C2C08E0D2F808C070
:1018E0004FEACC1C03E0D2F808C04FEA4C2CBCF104
:1018F000000F2ADBBB420DD0B34201D100970CE0B0
:101900002A4EDFF8ACC0B34202D1CDF800C004E0EB
:10191000634501D1009600E000959E6806F003063D
:10192000012E02D11E68F6070AD1009E8EB1B6685C
:1019300006F00306012E0CD1009E3668F60708D08B
:10194000416C41F020014164012480F84050204660
:101950008EE6102908D011291AD01229F5D19168E4
:1019600041F480019160F0E7BB42EED1916841F40F
:10197000000191600F49104A0968B1FBF2F101EBD7
:101980008101490000E0491E00910029FBD1DCE7FC
:10199000BB42DAD1916841F08071E3E700F0FF8348
:1019A00000010050000300500007005000040050E8
:1019B000000500502001002040420F007047704792
:1019C0000068006C704700002DE9F0410446006893
:1019D0000168C34FC34DC44E49074FF0A04802D51C
:1019E0004168490705D40168090761D541680907BD
:1019F0005ED5616CC90603D4616C41F40071616409
:101A00004146884201D0B04202D1D1F8082300E01B
:101A10003A6812F01F0F1BD0884201D0B04202D1A9
:101A2000D1F8082300E03A6802F01F02052A0FD01F
:101A3000884201D0B04202D1D1F8082300E03A68D0
:101A400002F01F02092A03D0884201D0A84201D126
:101A5000C16803E0B04200D02946C968C26812F4E8
:101A6000406F1FD189041DD4016809071AD5816808
:101A700049070FD4416821F00C014160606C20F4EB
:101A800080706064606CC0040CD4606C40F0010035
:101A9000606407E0606C40F010006064A06C40F08F
:101AA0000100A0642046FFF789FF21680C20086030
:101AB00020680168890602D54168890605D4016855
:101AC00049066ED5416849066BD5616C41F40051F9
:101AD00061644246904201D0B04202D1D2F808136C
:101AE00000E0396811F01F0F1CD0904201D0B042C5
:101AF00002D1D2F8081300E0396801F01F0105296E
:101B000010D04146884201D0B04202D1D1F808330A
:101B100000E03B6803F01F03092B03D0884201D08B
:101B2000A84201D1C16803E0B04200D02946C9688B
:101B3000C36C13F0C00F07D08B0154D4C36813F4E7
:101B4000406F50D189044ED4016849064BD51146E7
:101B5000884201D0B04202D1D1F8082300E03A68AF
:101B600012F01F0F1BD0884201D0B04202D1D1F831
:101B7000082300E03A6802F01F02062A0FD08842CC
:101B800001D0B04202D1D1F8082300E03A6802F057
:101B90001F02072A03D0884201D0A84202D1C1689F
:101BA00004E026E0B04200D02946C96889021AD470
:101BB000816809070FD4416821F060014160606CC1
:101BC00020F480506064606CC0050CD4606C40F000
:101BD0000100606407E0606C40F010006064A06C7D
:101BE00040F00100A0642046FFF790FC21686020CF
:101BF00008602068016809060CD54068000609D510
:101C0000606C40F480306064204600F095F92168F3
:101C10008020086020680168C9050DD54068C005AE
:101C20000AD5606C40F4003060642046FFF770FC19
:101C300021684FF4807008602068016889050DD51F
:101C4000406880050AD5606C40F4802060642046BE
:101C5000FFF75FFC21684FF400700860206801689E
:101C6000C90622D54168C9061FD5A16B01290ED02E
:101C7000404501D0B04201D11C4901E01849083962
:101C80008A68D20628D0886800F4404050B1606C61
:101C900040F480606064A06C40F00200A0642046C4
:101CA000FFF78DFE21681020086020680168490553
:101CB00010D5416849050DD5616C41F480416164DE
:101CC000A16C41F00801A1644FF4806101602046DD
:101CD000FFF71DFCBDE8F081C068C007D6E7000033
:101CE000080700500004005000010050000300509D
:101CF000F0B54FF0000695B0040037463546009623
:101D000005D0606CC00648D4606C18B133E0012087
:101D100015B0F0BDA5642565E56484F84050204603
:101D200000F00CF920688068C00024D42046FEF73B
:101D30000DFE0646606CC0061DD4E6B9606C20F44A
:101D4000885040F0020060642068816821F04051B2
:101D500081602068816841F0805181606D486E49E2
:101D60000068B0FBF1F000EB8000400000E0401E96
:101D700000900028FBD120688168C90002D58068E6
:101D800080000AD5606C20F0020040F01000606412
:101D9000A06C40F00100A0640126606CC00675D400
:101DA000002E73D12068816849076FD4616C21F4DB
:101DB000807141F0020161644FF0A04E574B7045B5
:101DC00001D0984201D1564A00E0564ADFF858C186
:101DD0005649704501D100930EE0984202D1CDF8EA
:101DE00000E009E0884202D1CDF800C004E060457F
:101DF00001D1009100E00095836803F00303012BFB
:101E000002D10068C00710D1009840B1806800F08E
:101E10000300012803D100980068C00705D190682D
:101E2000636820F4403018439060D4E902201043E6
:101E3000A26B012A02D04FF4805300E00023E26934
:101E400043EA42331843636A3843012B0AD1F2B1A3
:101E5000626C22F0020242F020026264A26C42F044
:101E60000102A264E26A012A21D023688B4201D0D8
:101E7000634518D14FF430774FF4E071BA4213D074
:101E80004FF480739A420AD139460DE038E0228D32
:101E9000274B03EB4242024342F48030E2E78A429E
:101EA00001D1194600E011460143206B0843216827
:101EB0008A6812F00C0F0AD1CA6844F202039A43EE
:101EC000CA60A169626B890341EA42010843226842
:101ED000D168184B19400143D1602069012820685E
:101EE000016B21F00F0102D1226A521E11430163DE
:101EF000A564606C20F0020040F00100606406E020
:101F0000606C20F0020040F0100060640126304652
:101F1000FEE600002001002040420F0000010050BA
:101F2000000300500007005000050050000400505E
:101F30000000FEFF07C0F0FF70470000F0B52B4A1D
:101F40000568002310682A4910260324401C87B026
:101F5000B5F1A04F06D0274FBD422BD1106001280C
:101F60000FD016E01060012807D1486940F080507A
:101F70004861486900F08050059069461E48009607
:101F80000AE0486940F080504861486900F080509C
:101F900005901A4869460096CDE9014300F03AF9E8
:101FA00000220321122000F065FB122000F056FBF6
:101FB00007B0F0BD12488542FAD1486940F00050A0
:101FC00048614869694600F0005005904FF40050A0
:101FD000CDE9000402930B4800F01CF90022032114
:101FE0002F2000F047FB2F20E0E700001001002029
:101FF0000010024000010050001400480008004892
:1020000000040050000400482DE9F0410446006837
:102010008068400770D494F8400001280CD001205B
:1020200084F840002046FEF7C3FC03004FF0000692
:1020300005D084F840609EE00220BDE8F081606C2D
:1020400040F60161884340F48070606420684FF07E
:10205000A0414A4A4A4D884201D0904202D1D1F86B
:10206000087300E02F6817F01F0F464F03D0884217
:1020700001D0B8420BD1D4F844C02CF4801CC4F871
:1020800044C0D0F80CC05FEA8C1C14D41BE0D4F818
:1020900044C04CF4801CC4F844C0904202D1D1F832
:1020A0000CC005E0DFF8DCC00CF10C0CDCF800C063
:1020B0001CF0007F07D0D4F844C02CF4005C4CF432
:1020C000805CC4F844C0D4F844C05FEACC4C06D568
:1020D000D4F848C02CF0060CC4F848C000E0A66450
:1020E00084F840601C2606606069082820684668FD
:1020F00003D046F00C0607E03CE026F004064660FC
:102100002068466846F008064660A06B012804D1A6
:102110002068466826F0100646602068884201D094
:10212000904202D1D1F8084300E02C6814F01F0F50
:102130001BD0884201D0904202D1D1F8084300E080
:102140002C6804F01F04052C0FD0884201D0904267
:1021500002D1D1F8082300E02A6802F01F02092A00
:1021600003D0884201D0B84205D1816841F0040112
:10217000816000E0022318465FE700000001005084
:10218000080700500004005010B590F821100024FA
:10219000022903D004218163012418E001680A6840
:1021A00022F00E020A6001680A6822F001020A6049
:1021B00090F84020C36B012101FA02F25A6080F8C6
:1021C0002110002180F82010416B01B18847204682
:1021D00010BD000070B5044600F0EAF80546601C2A
:1021E00002D004480078044400F0E2F8401BA0420A
:1021F000FAD370BD1401002070470000044910B5E7
:102200000A68024202D00860FFF7F6FF10BD000026
:10221000140401402DE9F84FDFF864B100234FF0BA
:10222000010C4FF0030A4FF00F090BF1040EA0E070
:102230000CFA03F6324072D04C68022C01D0122CFA
:102240000ED1DC0800EB8408D8F820405D07EF0EC3
:1022500009FA07F5AC430D69BD402543C8F8205085
:1022600007685D0091F804800AFA05F408F0030895
:10227000A74308FA05F848EA0708C0F800804F6845
:10228000012F05D0022F03D0112F01D0122F11D111
:102290008768D1F80C80A74308FA05F848EA0708D0
:1022A000C0F808804768B7430E79C6F300169E4011
:1022B0003E434660C668A6438C68AC403443C46065
:1022C0004C68E40054D52F4CA56945F00105A56183
:1022D000A46923F0030504F0010400942A4C2E198C
:1022E000B4689D072F0F09FA07F5AC43B0F1904F82
:1022F00004D0264DA84203D1012512E0002510E0AC
:10230000234DA84201D102250BE0224DA84201D164
:10231000032506E0204DA84202D1042501E027E074
:102320000525BD402543B560DBF800405D464E689D
:102330009443F60300D514432C60DEF80040754644
:102340004E689443B60300D514432C600C4D0835F9
:102350002C684E689443F60200D514432C60084D57
:102360000C352C684E689443B60200D514432C609B
:102370005B1C0A6832FA03F47FF45AAFBDE8F88FA9
:102380000004014000100240000001400004004829
:1023900000080048000C0048001000480069084090
:1023A00000D0012070470AB1816170478162704797
:1023B00001488068704700001401002090F8412017
:1023C000202A24D190F84020012A20D0012280F830
:1023D0004020242280F841200268136823F0010382
:1023E00013600268136823F4805313600268136853
:1023F0000B43136001680A6842F001020A60202161
:1024000080F84110002180F84010084670470220F3
:10241000704790F84120202A22D190F84020012ACC
:102420001ED0012280F84020242280F8412002683A
:10243000136823F0010313600268136823F47063C8
:1024400043EA0121116001680A6842F001020A6052
:10245000202180F84110002180F840100846704784
:102460000220704770B5040004D094F841000025A4
:1024700010B106E0012070BD84F84050204600F005
:102480004DF8242084F841002068016821F0010102
:1024900001606068216820F07060086120688168D0
:1024A00021F400418160E0680128A06807D040F471
:1024B000044021688860E068022803D006E040F408
:1024C0000040F6E721684FF40060486020684168EA
:1024D000114A114341602068C16821F40041C16084
:1024E000D4E904010843A16940EA01202168C860D9
:1024F000D4E907010843216808602068016841F0B9
:10250000010101606564202084F84100256384F89E
:102510004250002070BD00000080000200B500683D
:102520000E4987B0884216D1C02000901220019039
:10253000012002900320039004200490694608487B
:10254000FFF768FE0748C16941F40011C161C06925
:1025500000F40010059007B000BD000000540040DA
:1025600000040048001002400248816802781144CB
:102570008160704714010020074810B5016841F0E0
:1025800010010160032000F095F8002000F006F82B
:1025900000F024F8002010BD0020024070B50D4D61
:1025A00004464FF47A712878B1FBF0F00A490968C3
:1025B000B1FBF0F000F075FE48B9102C07D20022F4
:1025C0002146501E00F056F800206C6070BD0120BE
:1025D00070BD000014010020200100201E4808B535
:1025E000816941F001018161816901F0010100917E
:1025F000C16941F08051C161C06900F08050009014
:10260000052000F057F8002211466FF00B0000F093
:1026100031F8002211466FF00A0000F02BF800227A
:1026200011466FF0090000F025F800221146501FF6
:1026300000F020F800221146101F00F01BF80022C5
:102640001146901E00F016F80022BDE80840114621
:10265000501E00F00FB800000010024000F01F02F2
:10266000012191404009800000F1E020C0F80011F4
:1026700070470000F0B40E4B1B680C46C3F30223F6
:10268000C3F10705042D00D90425191D072901D21E
:10269000002300E0DB1E012606FA05F1491E214059
:1026A00099409E40761E16403143F0BC01F02ABE90
:1026B0000CED00E0064900F0070208684FF6FF0342
:1026C000184040EA0220034A1043086070470000A7
:1026D0000CED00E00000FA0570B504004FF00006B4
:1026E00004D094F87103002510B106E0012070BDFC
:1026F00084F87053204600F043F8032084F87103F7
:1027000001220CE0C6EBC60004EB800080F8292013
:1027100000F8286F761CC570C5600561456160686A
:10272000B042EFD8002010E0C0EBC00104EB810103
:1027300081F8CD5181F8CC0181F8CF51C1F8D85141
:10274000C1F8DC51401CC1F8E05161688142EBD80E
:102750002068A0F840202068A0F840502068A0F829
:1027600044502068A0F8505021684FF43F40A1F831
:10277000400084F8245084F87123002070BD0000CC
:1027800000B500680F4987B0884218D14FF4C05097
:1027900000900220019000200290032003900E2060
:1027A000049069464FF09040FFF734FD0648C16938
:1027B00041F40001C161C06900F40000059007B058
:1027C00000BD0000005C0040001002402DE9F84F01
:1027D00004460068804DC0036FD5E8690026C0003C
:1027E00008D4E86940F08050E861E869012600F00B
:1027F0008050009079480168C90512D4016880466C
:1028000041F480710160FFF7D3FD074605E000BF8A
:10281000FFF7CEFDC01B642835D8D8F80000C005EE
:10282000F6D5286A10F4407053D0A18801F44071A5
:1028300081424ED0286A4FF4803191FAA1F2B2FA67
:1028400082F29700664A4FF00108174420F4407066
:10285000C7F8008491FAA1F1B1FA81F102EB81018C
:102860000023C1F800342862C00732D0FFF7A0FD72
:10287000074641F2883A4FF0020907E0FFF798FD5A
:10288000C11B514502D90320BDE8F88F99FAA9F17F
:10289000B1FA81F141F040014846B8EB511F01D136
:1028A00029680CE090FAA0F1B1FA81F141F0400101
:1028B000B0EB511F02D1296A01E015E0696A99FA6B
:1028C000A9F0B0FA80F000F01F0008FA00F21142FF
:1028D000D4D0286A616820F44070084328621EB191
:1028E000E86920F08050E8612078C00705D0286BA7
:1028F000A16820F00300084328632078800705D5ED
:10290000286BE16820F440300843286320784007B2
:1029100005D5286B216920F44020084328632078DE
:10292000800605D5286BE16920F010000843286374
:102930002068800305D56868A16B20F480000843F7
:1029400068602078400605D5286B216A20F02000B9
:10295000084328632078000705D5286B616920F4B7
:102960004010084328632078C00605D5286BA1696C
:1029700020F44000084328632088800505D5686856
:10298000E16A20F40000084368602078000605D55D
:10299000E86A616A20F4F8700843E8622088C0059C
:1029A00005D5E86AA16A20F478500843E8622088D7
:1029B000C00405D5286B216B20F480700843286380
:1029C0002088800405D5286B616B20F400700843D3
:1029D0002863002058E7000000100240007000400B
:1029E000000042422DE9F0470F46050069D04A4EEB
:1029F000306800F00700B84209D2306820F00700C4
:102A000038433060306800F00700B84259D1287868
:102A1000424C800705D56068A96820F0F0000843A3
:102A200060602878C0073DD06968012001290DD079
:102A3000022923D05FF0020393FAA3F2B2FA82F2E2
:102A400042F02002520904D0226803E04FF4003320
:102A5000F2E7626A93FAA3F3B3FA83F303F01F0376
:102A6000984002422DD0606820F003000843606067
:102A7000FFF79EFC804641F288390CE04FF000736E
:102A8000DAE700BFFFF794FCA0EB0801494502D943
:102A90000320BDE8F0876068696800F00C00B0EBC7
:102AA000810FEFD1306800F00700B8420BD93068D1
:102AB00020F0070038433060306800F00700B8426B
:102AC00001D00120E5E72878400705D56068E9686E
:102AD00020F4E060084360602878000706D560684D
:102AE000296920F4605040EAC100606000F052F8AB
:102AF0006168F02292FAA2F201F0F001B2FA82F2D9
:102B0000D140074A515CC840064908600020FFF7E1
:102B100045FD0020BDE700000020024000100240FB
:102B2000E477000820010020014800687047000099
:102B30002001002008480949006849684FF4E06214
:102B400092FAA2F201F4E061B2FA82F2D140044AB0
:102B5000515CC84070470000200100200010024076
:102B6000F477000808480949006849684FF4605242
:102B700092FAA2F201F46051B2FA82F2D140044A10
:102B8000515CC84070470000200100200010024046
:102B9000F4770008144B10B55A68144802F00C0181
:102BA00004291DD008291BD14FF4701494FAA4F401
:102BB00002F47011B4FA84F4E1400D4CDB6A615CFC
:102BC0000F2494FAA4F403F00F03B4FA84F4E3405E
:102BD000074C1034D203E35C03D5B0FBF3F0484359
:102BE00010BD0448484310BD0010024000127A0096
:102BF000C477000800093D002DE9F84F040071D0AA
:102C00002078FB4DC0074FF0010625D06868770497
:102C1000C0F38100012807D06868C0F38100022852
:102C20001BD16868C00318D597FAA7F0B0FA80F0F6
:102C300040F02000400901D0286800E0686A97FA57
:102C4000A7F1B1FA81F101F01F0106FA01F1084282
:102C500065D060680028D2D061E06068B0F5803F40
:102C60000BD010B1B0F5A02F17D0286820F4803019
:102C70002860286820F4802002E0286840F4803032
:102C80002860E86AA16820F00F000843E8626068E5
:102C900020B3FFF78DFB80460AE0286840F48020CF
:102CA0002860EAE7FFF784FBA0EB0800642872D8ED
:102CB00097FAA7F0B0FA80F040F02000400901D068
:102CC000286800E0686A97FAA7F1B1FA81F101F08B
:102CD0001F0106FA01F10842E4D020E0FFF768FB8B
:102CE000804607E0C7E000BFFFF762FBA0EB0800EB
:102CF0006428DCD897FAA7F0B0FA80F040F0200002
:102D0000400901D0286800E0686A97FAA7F1B1FA93
:102D100081F101F01F0106FA01F10842E4D12078A7
:102D2000DFF8D08280074FF0000A4FF0020759D534
:102D300068684FF0F80B10F00C0F07D06868C0F30C
:102D4000810002281BD16868C00318D497FAA7F045
:102D5000B0FA80F040F02000400901D0286800E07F
:102D6000686A97FAA7F1B1FA81F101F01F0106FA3A
:102D700001F108422BD0206901287CD127E020698D
:102D800088B396FAA6F0B0FA80F048F82060FFF712
:102D90000FFB814606E055E1FFF70AFBA0EB0900B7
:102DA000022884D897FAA7F0B0FA80F040F020000B
:102DB000400901D0286800E0686A97FAA7F1B1FAE3
:102DC00081F101F01F0106FA01F10842E4D0286800
:102DD0009BFAABF26169B2FA82F220F0F8009140FE
:102DE0000843286025E0FFE796FAA6F1B1FA81F1E1
:102DF00048F821A0FFF7DCFA814605E0FFF7D8FA92
:102E0000A0EB09000228CCD897FAA7F0B0FA80F01E
:102E100040F02000400901D0286800E0686A97FA75
:102E2000A7F1B1FA81F101F01F0106FA01F10842A0
:102E3000E4D1207800076AD5A069A0B396FAA6F07D
:102E4000B0FA80F008EB8000C0F88064FFF7B0FAB9
:102E5000814605E0FFF7ACFAA0EB09000228A0D8F4
:102E600097FAA7F0B0FA80F040F06000B6EB501F80
:102E700002D128680CE077E197FAA7F0B0FA80F069
:102E800040F06000B7EB501F01D1286A00E0686A8B
:102E900097FAA7F1B1FA81F101F01F0106FA01F2E8
:102EA0001042D7D033E0FFE796FAA6F0B0FA80F0F0
:102EB00008EB8000C0F880A4FFF77AFA814605E0AD
:102EC000FFF776FAA0EB090002289CD897FAA7F042
:102ED000B0FA80F040F06000B6EB501F01D12868D6
:102EE0000BE097FAA7F0B0FA80F040F06000B7EB83
:102EF000501F01D1286A00E0686A97FAA7F1B1FA79
:102F000081F101F01F0106FA01F21042D8D12078B8
:102F1000400774D5E8694FF00009C00009D4E8699A
:102F200040F08050E861E8694FF0010900F08050FE
:102F3000009031480168C90512D4016841F48071DC
:102F40000160FFF735FA834606E000BFFFF730FA6D
:102F5000A0EB0B00642875D827480068C005F5D59C
:102F6000E06801280AD008B1052811D0286A20F0AD
:102F700001002862286A20F0040002E0286A40F07C
:102F800001002862E068C8B3FFF712FA83460DE03B
:102F9000286A40F004002862F0E700BFFFF708FA53
:102FA000A0EB0B0141F2883081424BD897FAA7F091
:102FB000B0FA80F040F04000B6EB501F01D1286815
:102FC0000BE097FAA7F0B0FA80F040F04000B7EBC2
:102FD000501F01D1286A00E0686A97FAA7F1B1FA98
:102FE00081F101F01F0106FA01F21042D6D035E05E
:102FF00000100240000042420070004000E034E057
:10300000FFF7D6F9834607E0FFF7D2F9A0EB0B01F3
:1030100041F28830814215D897FAA7F0B0FA80F0D3
:1030200040F04000B6EB501F01D128680CE097FA41
:10303000A7F0B0FA80F040F04000B7EB501F02D18B
:10304000286A01E083E0686A97FAA7F1B1FA81F192
:1030500001F01F0106FA01F21042D5D1B9F1000FBB
:1030600003D0E86920F08050E861E06980B36968C6
:10307000C1F38101022977D04FF080714F000228FF
:1030800009D091FAA1F0B0FA80F048F820A0FFF73B
:103090008FF904465EE050468A4691FAA1F1B1FAF2
:1030A00081F1C14648F82100FFF782F9804605E02A
:1030B000FFF77EF9A0EB0800022848D897FAA7F09E
:1030C000B0FA80F040F02000400902D0286801E00A
:1030D00056E0686A97FAA7F1B1FA81F101F01F0191
:1030E00006FA01F10842E3D1D4E9081008436968FF
:1030F00021F47411084368609AFAAAF0B0FA80F0DB
:1031000049F82060FFF754F9044604E0FFF750F94E
:10311000001B02281BD897FAA7F0B0FA80F040F005
:103120002000400901D0286800E0686A97FAA7F1FA
:10313000B1FA81F101F01F0106FA01F10842E5D070
:103140001EE000BFFFF734F9001B022802D903205C
:10315000BDE8F88F97FAA7F0B0FA80F040F02000B1
:10316000400902D0286801E00CE0686A97FAA7F1EC
:10317000B1FA81F101F01F0106FA01F10842E1D133
:103180000020E5E70120E3E72DE9F041040005D048
:103190000025A56294F85D0018B107E00120BDE8A4
:1031A000F08184F85C50204600F04AF8022384F84D
:1031B0005D302068016821F040010160E0684FF453
:1031C000E066B04201D9002101E04FF48051B0F532
:1031D000706F02D0B04200D0A562276B012227B9E0
:1031E000B04201D9236300E02263D4E9010318430C
:1031F000D4E9043633431843238B03F40073184394
:10320000E3691843236A1843A36A184323681860C4
:10321000636B606AA66918430427E36807EA1646E9
:10322000334318430843216848602068C16921F48A
:103230000061C161256684F85D200020AFE70000D1
:1032400000B500680E4987B0884217D10D488169E2
:1032500041F4805181618069694600F48050059095
:10326000E0200090022001900020029003200390B3
:10327000052004904FF09040FEF7CCFF07B000BD52
:1032800000300140001002404FF0E021042808699E
:1032900003D020F004000861704740F00400FAE712
:1032A000704710B5401EB0F1807F01D3012010BDE2
:1032B0004FF0E02460610F21601701F023F8002037
:1032C000A06107202061002010BD10B5FFF7E8FFC6
:1032D00010BD70477047704730B590F83C20012A08
:1032E0003DD0012280F83C20CA688B6822F44072ED
:1032F0001A434B6822F480621A430B6822F400627E
:103300001A430B6922F480521A434B6922F400528B
:103310001A438B6A22F480421A4322F400421A4371
:103320000B8B22F4702242EA03420E4D0368002404
:10333000AB4202D00C4DAB420CD18D8C22F470020A
:1033400042EA0552CD6922F080722A43096A22F0CE
:1033500000720A435A6480F83C40002030BD0220CD
:1033600030BD0000002C01400034014030B590F821
:103370003C20012A1FD0012280F83C2002685368BB
:1033800094680E4DAA4202D00D4DAA4203D123F4F7
:1033900070054B682B4323F070050B6889682B433D
:1033A00024F080042143536002689160002180F87A
:1033B0003C10084630BD022030BD0000002C01400A
:1033C0000034014010B5040003D094F83D0010B162
:1033D00007E0012010BD002084F83C00204600F0EA
:1033E0000DF8022084F83D00211D206801F08CFAC0
:1033F000012084F83D00002010BD000008B50168E0
:103400001448B1F1804F14D0134A914220D1C169C0
:1034100041F00201C161C069002200F00200009089
:1034200001211D20FFF726F91D20BDE80840FFF708
:1034300015B9C16941F00101C161C069002200F004
:103440000100009002211C20FFF714F91C20ECE77A
:1034500008BD000000100240000400400168CA6876
:1034600042F00102CA600068016841F00101016098
:103470000020704770B5044690F83C00012817D032
:10348000012584F83C50022084F83D0022689068B1
:10349000364E304020F47F4090600868502839D084
:1034A0000DDC20285BD005DC98B3102843D153E015
:1034B000022070BD302855D040283CD141E0602822
:1034C00030D070280CD0B0F5805F03D0B0F5005F2D
:1034D00031D112E020688168244A7032114016E030
:1034E000CB68D1E90121206801F071FA2168886870
:1034F000304040F0770088601DE0CB68D1E90121C1
:10350000206801F064FA2068816841F4804181609C
:1035100011E01EE0CA684968206801F0F3FB502101
:10352000206806E0CA684968206801F0FCFB602159
:10353000206801F056FA84F83D50002084F83C00E1
:1035400070BDCA684968206801F0DCFB4021206832
:10355000EFE700212068ECE710212068E9E720214F
:103560002068E6E730212068E3E7000088FFFEFFDF
:10357000704770B50446006801694FF00005C94303
:10358000890715D4C168C943890711D4E91E0161AF
:1035900001202077206880698007204602D0FFF74D
:1035A000E7FF04E000F0ECF8204600F0B9F92577D9
:1035B00020680169C943490717D4C168C94349074D
:1035C00013D46FF004010161022020772068806924
:1035D00010F4407F204602D0FFF7CAFF04E000F05D
:1035E000CFF8204600F09CF9257720680169C9438F
:1035F000090716D4C168C943090712D46FF008013E
:103600000161042020772068C0698007204602D02D
:10361000FFF7AEFF04E000F0B3F8204600F080F9B9
:10362000257720680169C943C90617D4C168C94311
:10363000C90613D46FF010010161082020772068BB
:10364000C06910F4407F204602D0FFF791FF04E0EC
:1036500000F096F8204600F063F9257720680169AC
:10366000C943C90708D1C168C943C90704D1891E24
:103670000161204600F082F920680169C94309060A
:1036800009D4C168C943090605D46FF080010161FE
:103690002046FFF71FFE20680169C943C90509D408
:1036A000C168C943090605D46FF4807101612046E1
:1036B000FFF70FFE20680169C943490609D4C168B4
:1036C000C943490605D46FF040010161204600F06E
:1036D00056F920680169C94389060BD4C168C943FA
:1036E000890607D46FF0200101612046BDE87040D3
:1036F000FFF7F1BD70BD000070B500681B490025E3
:10370000022486B0884208D14FF4D4408DE83100BD
:10371000CDE903546946164823E0B0F1804F0CD040
:10372000144988421FD14FF4E0708DE83100042025
:10373000CDE903506946104813E048F202008DE8D5
:1037400031000126CDE9035669464FF09040FEF75F
:1037500061FD4FF440608DE83100CDE903566946C4
:103760000648FEF757FD06B070BD0000002C014072
:1037700000100048003401400008004800040048E0
:10378000704770B5044690F83C000D4601280ED0F5
:10379000012684F83C60022084F83D000C2A45D0C4
:1037A00007DC5AB1042A1BD0082A78D12CE0022069
:1037B00070BD102A4ED0142A71D15DE0206801F04E
:1037C00019F92068816941F00801816120688169E7
:1037D00021F004018161206881692A69114311E0A7
:1037E000206801F055F92068816941F40061816128
:1037F0002068816921F480618161206881692A697A
:1038000041EA022181614AE0206801F089F92068DB
:10381000C16941F00801C1612068C16921F004015A
:10382000C1612068C1692A69114311E0206801F073
:10383000BFF92068C16941F40061C1612068C169B4
:1038400021F48061C1612068C1692A6941EA0221CD
:10385000C16124E0206801F0E5F92068416D41F084
:10386000080141652068416D21F00401416520682F
:10387000416D2A69114311E0206801F00BFA2068BC
:10388000416D41F4006141652068416D21F4806122
:1038900041652068416D2A6941EA0221416584F849
:1038A0003D60002084F83C0070BD10B5040003D0DA
:1038B00094F83D0010B107E0012010BD002084F80D
:1038C0003C00204600F00CF8022084F83D00211D49
:1038D000206801F019F8012084F83D00002010BD97
:1038E00008B50C4A01680C48914207D1816941F43E
:1038F00000618161806900F4006009E0074A91423B
:1039000007D1816941F400518161806900F4005060
:10391000009008BD002C014000100240003401401E
:103920007047000010B504460068012201F044F819
:103930000D48216881420BD00C48814208D00C48C8
:10394000814205D00B48814202D00B48814203D10D
:10395000486C40F4004048642068016841F001016F
:103960000160002010BD0000002C01400034014027
:10397000004001400044014000480140704770474A
:103980007047704770B503680446D869196810F02D
:103990000F0508D1820606D58A0604D52046BDE863
:1039A000704001F089BA9A68002D66D002F00105D6
:1039B00001F490762E4360D0C60707D0CE0505D51A
:1039C00001261E62E36E43F00103E366830708D518
:1039D000D30706D0266802233362E36E43F0040364
:1039E000E366430708D5D20706D0236804221A628B
:1039F000E26E42F00202E26602070AD501F02002FE
:103A00002A4306D0236808221A62E26E42F00802B6
:103A1000E266E26E002A29D0800604D5880602D527
:103A2000204601F049FAE06E000703D42068806860
:103A300040061CD5204601F024FA2068816849061A
:103A400011D5816821F040018160606E58B11C4938
:103A50004163606EFEF798FB002807D0606E416BF3
:103A6000BDE8704008472046FFF78BFF70BD204639
:103A7000FFF787FF0020E06670BDC5020ED5520239
:103A80000CD54FF480101862202084F8690084F867
:103A90006A002046BDE87040FFF772BF020606D5F7
:103AA0000A0604D52046BDE8704001F02BBB400655
:103AB000E2D54806E0D52046BDE8704001F0EFB9F8
:103AC0006F4E000810B5040003D094F8690010B1DF
:103AD00007E0012010BD002084F86800204600F0B7
:103AE00027F8242084F869002068016821F001018A
:103AF0000160204601F01CFA0128EBD0606A10B189
:103B0000204601F022F92068416821F4904141608B
:103B10002068816821F02A0181602068016841F0F5
:103B2000010101602046BDE8104001F072B90000BB
:103B300000B50068124987B088421FD11148C16999
:103B400041F40031C161C069694600F4003005905C
:103B50000C2000900220019000200290032003908E
:103B6000072004904FF09040FEF754FB0022022102
:103B70002620FEF77FFD2620FEF770FD07B000BD72
:103B8000004400400010024090F86A30202B36D1EB
:103B900099B192B190F86830012B30D0012380F8B0
:103BA00068304165A0F85820A0F85A208168FF22AB
:103BB000B1F5805F03D039B10BE001207047016996
:103BC000D1B940F2FF1102E00169A9B17F21A0F84B
:103BD0005C100021C166222280F86A2080F86810FB
:103BE00001688A6842F001028A600068016841F455
:103BF0009071016000207047A0F85C20E9E7022086
:103C0000704770472DE9F843044690F869001F4655
:103C100016460D4620284DD1CDB1C6B194F86800A6
:103C2000012847D0012084F868004FF00008C4F84C
:103C30006C80212084F869005034FEF7B9FB24F829
:103C4000026B814624F852694FF4805618E0012037
:103C5000BDE8F883B4F85200401EA4F852004B4669
:103C6000002280212046009701F07EFAA0B9A068CA
:103C7000B04201D1206988B115F8010B216808858F
:103C8000B4F852000028E5D14B46002240212046DE
:103C9000009701F069FA30B10320D9E735F8020B3B
:103CA000C0F30800EAE7202084F8690084F86880FF
:103CB0000020CDE70220CBE77047FEE7F0B589B0E2
:103CC0000C460F49DDE9106591F800E00021DDE9BF
:103CD0000EC705910691CDE9003C07910891134666
:103CE000BEF1000F02972246014601D0012000E0FC
:103CF0000020CDE9036502F06FFE09B0F0BD0000C1
:103D00000000002030B5194889B04FF0A0410024D0
:103D1000C0E900140461C46101254462C0E90B5488
:103D200018210562C0E9021404214463C0E90514A6
:103D30008463FDF7DDFF00B1FEE706A90B4806949A
:103D4000FDF7E8FB00B1FEE70520CDE900050720FF
:103D5000CDE902040494694604480594FDF764FC27
:103D6000002800D0FEE709B030BD00002405002087
:103D700030B5164887B014490024C0E90014046126
:103D8000C46101254462C0E90B5418210562C0E9F1
:103D9000021404214463C0E905148463FDF7A8FFFD
:103DA00000B1FEE70520CDE900050720CDE90204BA
:103DB0000494694605480594FDF736FC002800D0B8
:103DC000FEE707B030BD000000010050780500207C
:103DD00030B5194889B017490024C0E900140461BE
:103DE000C46101254462C0E90B5418210562C0E991
:103DF000021404214463C0E905148463FDF778FFCD
:103E000000B1FEE706A90C480694FDF783FB00B15C
:103E1000FEE70520CDE900050720CDE90204049462
:103E2000694605480594FDF7FFFB002800D0FEE732
:103E300009B030BD00040050CC0500202DE9F04F42
:103E40005C4887B0416941F400114161416901F466
:103E500000110591416941F400214161416901F47A
:103E600000210591416941F480014161416901F4FA
:103E700080010591416941F400314161416901F4DA
:103E800000310591416941F480214161416901F4AA
:103E900080210591416941F4801141614069464E9C
:103EA00000F480100590002208213046FEF77BFACE
:103EB000DFF808914FF4F057002239464846FEF7E4
:103EC00072FA4FF4E0684FF0904A002241465046A3
:103ED000FEF769FADFF8E8B00022F3215846FEF752
:103EE00062FA0820009001250024CDE901546946BA
:103EF00030460394FEF78EF9202000903148CDE93A
:103F0000010469463046FEF785F9CDE900540226E2
:103F1000694650460296FEF77DF9172000902A4820
:103F2000CDE9010669462948FEF774F9CDE9026436
:103F3000CDE9007569464846FEF76CF9CDE90264A3
:103F4000CDE9008569465046FEF764F903200394E5
:103F50008DE8610069465846FEF75CF9F020009054
:103F6000CDE90154694658460394FEF753F90122FE
:103F700011460620FEF77EFB0620FEF76FFB0122AE
:103F800011460720FEF776FB0720FEF767FB0022AD
:103F900001210820FEF76EFB0820FEF75FFB0122DF
:103FA00011460A20FEF766FB0A20FEF757FB07B012
:103FB000BDE8F08F001002400010004800080048E3
:103FC000000C00480000121000001110000400480E
:103FD000114810B50F4901601049416000210122CC
:103FE000C0E90212016141618161C1610162FEF7B4
:103FF00039FA00B1FEE700210748FEF7DFF900B10A
:10400000FEE700210448FEF704FA002800D0FEE78E
:1040100010BD000000540040200600200E090020C2
:10402000104810B50E4901604FF4827141600021C3
:104030004FF44072C0E902124FF400720161C0E90E
:1040400005120822C0E9072107234162C0E90A13CB
:10405000C0E90C12FFF798F8002800D0FEE710BD69
:10406000003001406C06002010B52D4896B02B4959
:104070000160B3210024C0E9011442F21071C0E9CB
:10408000031444618461FFF710FC00B1FEE7129451
:10409000139412A922481494FFF768F900B1FEE7BF
:1040A0006020CDE900040294039404940594002256
:1040B00069461B480694FFF764FB00B1FEE7042243
:1040C00069461748FFF75DFB00B1FEE70822694625
:1040D0001348FFF756FB00B1FEE70C226946104873
:1040E000FFF74FFB00B1FEE70794089409944FF4E3
:1040F00000500A94CDE90B400003CDE90E400D9429
:10410000109407A906481194FFF7E6F800B1FEE7FE
:104110000348FFF7F1FA16B010BD0000002C014073
:10412000D006002010B527488EB04FF080410160C6
:10413000B3210024C0E9011442F21071C0E9031454
:104140008461FFF73FF900B1FEE74FF480500A9019
:104150000AA91C48FFF78EF900B1FEE71948FFF7DE
:10416000A4FB00B1FEE7079407A916480994FFF7DE
:10417000FDF800B1FEE76020CDE9000402940022C2
:10418000694610480494FFF7FCFA00B1FEE70422E8
:1041900069460C48FFF7F5FA00B1FEE708226946C8
:1041A0000848FFF7EEFA00B1FEE70C226946054821
:1041B000FFF7E7FA00B1FEE70248FFF79DFA0EB0FD
:1041C00010BD00001007002010B5134888B0114939
:1041D000016023210024C0E9011442F21071C0E9FA
:1041E00003148461FFF7EEF800B1FEE74FF480504E
:1041F000039003A90848FFF73DF900B1FEE70094DA
:10420000694605480294FFF7B1F8002800D0FEE7A0
:1042100008B010BD000400405007002010B5294828
:1042200096B027490160B3210024C0E9011442F28D
:104230001071C0E9031444618461FFF736FB00B1DB
:10424000FEE71294139412A91E481494FFF78EF8F7
:1042500000B1FEE76020CDE90004029403940494C9
:1042600005940022694617480694FFF78AFA00B1C0
:10427000FEE7042269461348FFF783FA00B1FEE720
:10428000082269460F48FFF77CFA00B1FEE7079461
:10429000089409944FF400500A94CDE90B400003B0
:1042A000CDE90E400D94109407A906481194FFF72C
:1042B00013F800B1FEE70348FFF71EFA16B010BD71
:1042C00000340140900700200C4810B50A490160F5
:1042D0004FF4E1314160002181600C22C160C0E9EE
:1042E00004128161C16101624162FFF7EBFB0028AA
:1042F00000D0FEE710BD000000440040D0070020C1
:10430000FEE770470907090E002806DA00F00F00E3
:1043100000F1E02080F8141D704700F1E02080F8E3
:10432000001470477047704710B5FEF71DF9BDE8DF
:104330001040FEF7CABF000030B59FB003200F90B9
:104340004FF4A0200024CDE9100401201390102088
:10435000149002250003CDE916504FF4E010189098
:104360000FA8FEF749FC00B1FEE70F20CDE91905C3
:104370004FF48060CDE91B40022119A81D94FEF77F
:1043800031FB00B1FEE7114800904FF480700990B6
:104390004001039407940A900E940C940D9468467F
:1043A000FEF714FA00B1FEE7FEF7BEFB4FF47A7198
:1043B000B0FBF1F0FEF775FF0420FEF765FF002269
:1043C0001146501EFEF756F91FB030BDA231020053
:1043D0001448016841F4700101601348016841F01C
:1043E000010101604168114A114041600168104AB1
:1043F00011400160016821F480210160416821F4CD
:10440000FE014160C16A21F00F01C162016B094ADE
:1044100011400163002181600249C00380390860B6
:104420007047000088ED00E0001002400CC07FF8EB
:10443000FFFFF6FECCFC00FF2DE9F05F8B4D8C4EAC
:104440004FF00108A868002867D10021421E01EB47
:104450008103002006EB031343F82020401C14289E
:10446000FADB491C0429F2DB00218248FFF75AFAE3
:1044700004218048FFF756FA08217E48FFF752FAD8
:104480000C217C48FFF74EFA00217B48FFF74AFADF
:1044900004217948FFF746FA08217748FFF742FAE6
:1044A0000C217548FFF73EFA00217448FFF73AFAED
:1044B00004217248FFF736FA08217048FFF732FAF4
:1044C0006F48FDF7A1FD6F48FDF79EFD6E48FDF7B3
:1044D0009BFD6848FEF7C2FF6848FEF7BFFF012258
:1044E0006A496B48FFF750FB6A4C012210212046B5
:1044F000FDF759FF012220212046FDF754FF01223C
:1045000040212046FDF74FFF012280212046FDF784
:104510004AFF02F089FAC5F808802868DFF858B128
:10452000DFF874A100245D4F4FF00209012834D157
:1045300001F0C3FD5A480068012802D004282BD19D
:1045400028E002F0CFF8DBF8001058468C634949A8
:104550000A685463494A13685C630B689C63136878
:104560009C630B68DC6309680C641168CC630168A8
:104570004C630168CC63DBF8000004643C602B20D2
:10458000CAF800403060C5F8049002F081F802F0EB
:1045900021FB01E002F05CF82C60414E306840B134
:1045A000012809D002283BD0052847D0062848D04A
:1045B0004FE002F009FE46E001214FF09040FDF788
:1045C000EDFE08B33868F8B902F0A6F83C60CAF806
:1045D00000400320C6F800906860DBF80020E96B1B
:1045E0009163DBF800205163DBF80020D163DBF836
:1045F000000001644FF09044C5F80080012120467E
:10460000FDF7CCFE0028F9D101214FF09040FDF7D5
:10461000C5FEC0B13868022815D102F097FC12E03F
:1046200020480168002904DC04600520C5F80080EA
:10463000306001F0EFFF01F0B3FC04E002F00AFA91
:1046400001E002F0A1FF306838B1052805D0062846
:1046500003D0042801D001F057FC0748FEF789FF7A
:10466000BDE8F05F0448FEF7F9BE0000C800002076
:104670004C200020D00600201007002090070020CA
:104680002405002078050020CC050020BC00002077
:10469000D0070020000C0048180000201400002063
:1046A00034000020480000202DE9F84F834A0027FD
:1046B000834D10684FF00109042808D1296B491C6B
:1046C0002963B1F5AF7F02D1C5F838902F617D49DC
:1046D0000968002976D0022874D168690090D5E96C
:1046E0000721AB69E86802F069FB686930B1A86925
:1046F00038B1E86940B1286A48B10BE0C5E90597CF
:1047000008E0C5E9069705E0C5E9079702E0C5F8A6
:1047100020906F612869401C2861EE68A02E6FD040
:10472000C828D9D16848761CEE600168684A731AB7
:1047300066490C68A34202DB1468EB6B6363436851
:104740004C68F31AA34202DB1468EB6BE3638068E6
:104750008968301A884202DB1168E86B08644FF000
:10476000140A96FBFAF10AFB116000286BD1002EA7
:1047700069D05848DFF868810468641C04605648B2
:10478000076056480168891C0160D8F80000FBF7F3
:10479000E1FD9FED541B53EC112BFBF758FDFBF78C
:1047A00005FEC8F8000051490520012C086001DD14
:1047B000E86B00E000204E490A685063022C02DDDD
:1047C000EA6B01E072E000224A4803685A63032C56
:1047D00001DDEA6B00E000220B689A63042C01DD26
:1047E000EA6B00E0002203689A63052C01DDEA6BA6
:1047F00000E000220B68DA63062C02DDEA6B01E0C0
:104800004FE0002209680A64072C01DDE96B00E033
:1048100000210068C16338483849394A4FF0500BCD
:10482000022C11D04FF0320C032C13D028234FF060
:104830004608042C14D0052C17D0062C1CD0072CAD
:1048400021D0082C25D029E03C2303605C20C1F84E
:1048500000B00FE0C0F800C04B2008605A2009E00B
:1048600003605820C1F8008004E01E23036041204B
:1048700008605620106011E0C0F800A037200860E2
:10488000C2F800B00AE00A2404600B60C2F800809D
:1048900004E00760C1F800A0C2F800C02F61A02E9C
:1048A00004D106480621C5F8009001601548FEF7BE
:1048B00060FEBDE8F84F1348FEF7D0BD340000207D
:1048C000C80000203800002074000020680000208C
:1048D00010070020440000202800002024000020B1
:1048E00020000020CDCCCCCCCCCCEC3F1C00002058
:1048F000D00600209007002054000020580000201F
:104900005C000020500700202DE9F0430268234B93
:10491000234D244E244C4FF08049984207D04845FF
:1049200005D0A84203D0B04201D0A04203D122F06A
:1049300070074A683A431D4FDFF874C0DFF874808F
:1049400098420DD048450BD0A84209D0B04207D0BC
:10495000A04205D0B84203D0604501D0404503D104
:1049600022F44075CA682A434D6922F080022A4326
:1049700002608A68C2620A688262984207D0A042D6
:1049800005D0B84203D0604501D0404501D1096946
:10499000016301214161BDE8F0830000002C01406A
:1049A0000004004000080040003401400040014085
:1049B000004401400048014010B50123046A8B40C7
:1049C0009C430462036A8A401343036210BD10B51E
:1049D000846842EA032224F47F440A43224382602B
:1049E00010BD826822F070020A4342F00701816024
:1049F000704700002DE9F043026A22F001020262D2
:104A0000056A436882691C4C25F0020522400C6847
:104A100022F0030214438A68194E2A43174D194F96
:104A2000DFF864C0DFF86490A84207D0B04205D038
:104A3000B84203D0604501D0484506D122F00808AD
:104A4000CA6842EA080222F00402A84207D0B04233
:104A500005D0B84203D0604501D0484505D14D6925
:104A600023F440731D438B692B4343608461496881
:104A700041630262BDE8F0838FFFFEFF002C01401E
:104A80000034014000400140004401400048014022
:104A9000F0B5026A22F010020262056A4268836978
:104AA000194C1B4E23400C6823F4407343EA042442
:104AB00025F020038D6843EA0513144DA84201D068
:104AC000B04206D1CF6823F0800343EA071323F0F6
:104AD0004003A8420AD0B04208D00E4DA84205D0EB
:104AE0000D4DA84202D00D4DA84207D14D6922F4C8
:104AF000406242EA85028D6942EA85024260846131
:104B0000496881630362F0BDFF8FFFFE002C014006
:104B10000034014000400140004401400048014091
:104B2000F0B5026A22F480720262056A4368C269C3
:104B3000194C1B4E22400C6822F00302144325F44A
:104B400000728D6842EA0522144DA84201D0B0429D
:104B500006D1CF6822F4006242EA072222F4806282
:104B6000A8420AD0B04208D00E4DA84205D00E4D42
:104B7000A84202D00D4DA84207D14D6923F44053FD
:104B800043EA05138D6943EA05134360C46149682C
:104B9000C1630262F0BD00008FFFFEFF002C0140E8
:104BA0000034014000400140004401400048014001
:104BB00030B5026A22F480520262046A4268C36914
:104BC000124D24F400542B400D6823F4407343EA43
:104BD00005238D6844EA05340D4DA8420BD00D4DD8
:104BE000A84208D00C4DA84205D00C4DA84202D0D6
:104BF0000B4DA84204D14D6922F4804242EA85124D
:104C00004260C36149680164046230BDFF8FFFFEEA
:104C1000002C0140003401400040014000440140AC
:104C20000048014030B5026A22F480320262046A10
:104C30004268436D114D2B400D681D4324F4003331
:104C40000C8943EA04430E4CA0420BD00D4CA04209
:104C500008D00D4CA04205D00C4CA04202D00C4C08
:104C6000A04204D14C6922F4803242EA042242601C
:104C7000456549688165036230BD00008FFFFEFF16
:104C8000002C01400034014000400140004401403C
:104C90000048014030B5026A22F480120262046AC0
:104CA0004268436D114D24F400142B400D6843EA13
:104CB00005230D8944EA05540D4DA8420BD00D4D36
:104CC000A84208D00C4DA84205D00C4DA84202D0F5
:104CD0000B4DA84204D14D6922F4802242EA85227C
:104CE000426043654968C165046230BDFF8FFFFEC5
:104CF000002C0140003401400040014000440140CC
:104D00000048014010B5036A046A24F001040462FB
:104D1000846924F0F00444EA021423F00A020A43EE
:104D20008461026210BD10B5036A23F010030362B0
:104D30008369046A23F4704343EA023224F0A00337
:104D400043EA01118261016210BD90F82410C90785
:104D500006D001684A68836A22F400321A434A6026
:104D600090F82410890706D501684A68C36A22F4BE
:104D700080321A434A6090F82410490706D501682A
:104D80004A68036B22F480221A434A6090F8241088
:104D9000090706D501684A68436B22F400421A43AA
:104DA0004A6090F82410C90606D501688A68836BAA
:104DB00022F480521A438A6090F82410890606D59E
:104DC00001688A68C36B22F400521A438A6090F823
:104DD0002410490611D501684A68036C22F4801238
:104DE0001A434A60016CB1F5801F06D101684A6818
:104DF000436C22F4C0021A434A6090F8241009065A
:104E000006D501684A68806C22F4002202434A6099
:104E10007047F8B500260446C666FDF7C9FA054690
:104E2000206800686FF07E47000708D52B460022F7
:104E30004FF400112046009700F096F960B9206801
:104E4000006840070AD52B4600224FF48001204617
:104E5000009700F089F908B10320F8BD202084F8FC
:104E6000690084F86A0084F868600020F8BD10B515
:104E7000406A0021A0F85A10A0F85210FEF781FDF8
:104E800010BD01680A6822F490720A6001688A689D
:104E900022F001028A60202180F86A10704710B564
:104EA00001680A6822F040020A60202180F8691037
:104EB000FEF702FF002010BD10B5B0F85C2090F89E
:104EC0006A300168222B05D0886940F008008861AB
:104ED000022010BD898C8368B3F5805F01D103691E
:104EE0006BB11140426D531C43651170B0F85A10FC
:104EF000491E0904090CA0F85A1007D015E0436DAB
:104F000011401980416D891C4165EFE701680A680D
:104F100022F490720A6001688A6822F001028A60B5
:104F2000202180F86A10FEF76CFE002010BD000002
:104F30002DE9F041044610202369A268E6691A436E
:104F40006369002133431A4323680D461E6849F202
:104F50000C67BE4316431E6022685368E66823F45C
:104F6000405333435360236AA2691A4323689E68FF
:104F700026F4306616439E605A4F22685A4B060349
:104F8000BA420CD11B6B13F0030306D0012B4DD09A
:104F9000022B4DD0032B4CD146E0012049E0534F6A
:104FA000BA420CD11B6B13F440333BD0B3423DD01B
:104FB000B3F5003F3CD0B3F5403F3AD134E04C4F1D
:104FC000BA420DD11B6B13F440232BD0B3F5802FC5
:104FD0002CD0B3F5002F2BD0B3F5402F29D123E0EF
:104FE000444FBA420DD11B6B13F440131AD0B3F5E2
:104FF000801F1BD0B3F5001F1AD0B3F5401F18D186
:1050000012E03D4FBA4214D11B6B13F4400309D098
:10501000B3F5800F0AD0B3F5000F09D0B3F5400FF8
:1050200007D101E0002004E0022002E0042000E0BB
:105030000820E7694FF400439F4226D109281DD27A
:10504000DFE800F00508121C151C1C1C1800FDF7F9
:1050500071FD01E0FDF786FD4100606801EB500144
:10506000B1FBF0F081B20AE024496068F6E7FDF791
:1050700091FDF1E7606806EB5001F1E7012521F0B1
:105080000F00C1F3420108431CE0092825D2DFE8E4
:1050900000F005080B24102424241C00FDF74AFD11
:1050A00009E0FDF75FFD06E01549606801EB50017E
:1050B0000EE0FDF76FFD0146606801EB5001B1FBAA
:1050C000F0F080B22168C86008E0606803EB50012E
:1050D000B1FBF0F080B2D06000E001252846BDE8C9
:1050E000F081000000380140001002400044004000
:1050F00000480040004C0040005000400024F400F4
:1051000000127A0090F86910212901D0022070471E
:10511000B0F8521021B18168B1F5805F0BD00CE07E
:1051200001680A6822F080020A600068016841F0A4
:10513000400101600CE0016961B1C16C4A1CC264AC
:1051400002680978A2F8281030F8521F491E018021
:1051500000207047C16C02680988C1F308011185FD
:10516000C16C891CC164EFE72DE9F04198461746F0
:105170000E460446069D1DE0681C1BD02DB1FDF7B0
:1051800017F9A0EB0800A84214D92068016821F49F
:10519000D07101602068816821F0010181602020C8
:1051A00084F8690084F86A00002084F8680003200D
:1051B000BDE8F0812068C06936EA000004D0002014
:1051C000B842D9D00020F3E70120F9E72DE9F047F4
:1051D0008EB0A348FEF7D6FBA248A34A002103786D
:1051E000A24D0D2B05D010682B54401C1060295483
:1051F0002EE1DFF87CA2DAF800000128F8D1DFF810
:105200007492D9F800000128F2D10020034602ACC4
:10521000116005E02A2A02D144F823005B1C401CDF
:105220002A5C002AF6D1914A0298521C924B805C6B
:10523000924E30381860F1600846039B05E0EC5C44
:1052400000EB8000303C04EB4000049C5B1C9C4263
:10525000F5DCF060A05C8A4B30381860894BF76B46
:105260001B689F63012801DD3C4600E00024864B5B
:10527000D3F800C0CCF83440022801DDBC4601E080
:105280004FF0000C814CD4F80080C8F834C00328DB
:1052900001DDBC4601E04FF0000CD3F80080C8F8F7
:1052A00038C0042801DDBC4601E04FF0000CD4F802
:1052B0000080C8F838C0052801DDBC4601E04FF089
:1052C000000CD3F80080C8F83CC0062801DDBC46BD
:1052D00001E04FF0000C1B68C3F840C0072800DC59
:1052E00000272068C7636A4800240160DDE9057370
:1052F000DB1B042B01D07B1C0CE0BB1C012409E050
:10530000EF5CD0F800C0303F0CEB8C0C07EB4C0787
:105310005B1C0760069F9F42F2DC14B103685B428E
:1053200003604160079B0024DB1B042B01D07B1C26
:105330000CE0BB1C012409E0EF5CD0F804C0303F56
:105340000CEB8C0C07EB4C075B1C4760079F9F42E4
:10535000F2DC14B143685B4243608160089B002427
:10536000DB1B042B01D07B1C0CE0BB1C012409E0DF
:10537000EF5CD0F808C0303F0CEB8C0C07EB4C070F
:105380005B1C8760089F9F42F2DC14B183685B421C
:105390008360404B1960099807E02C5C1F68303C23
:1053A00007EB870704EB47041C600A9C401C8442FF
:1053B000F3DCA05C384A3038002710603748C9F861
:1053C000001001600B9C641C3AE0295D002230391A
:1053D000A41C05E0303802EB820200EB4202641CA0
:1053E000285D2D28F6D1641CDFF8B4C02B5DA41C09
:1053F00001EB810015F804800CEB001C303B4CF8ED
:105400002230DFF8A0C0A8F130080CEB8000A41C0B
:1054100000F80280032B13DD4FF0000C06E000BF04
:1054200030380CEB8C0C00EB4C0C641C285D2D28E8
:10543000F6D1CDE9008C3846641C01F0CBF87F1C16
:105440000C98A042C1DC012002213060CAF8001093
:105450000EB00122BDE8F04702490148FEF794BBB7
:10546000D0070020BC000020C00000203C0100202C
:10547000340000201400002048000020C800002054
:105480004400002010070020D006002090070020D4
:105490007400002028000020400000201800002098
:1054A0004C200020740C0020FEE700000FB4054BD8
:1054B00010B503A9044A029800F0EEF810BC5DF89C
:1054C00014FB0000FD650008280100200FB4084B04
:1054D00010B504A902AA039800F0DEF8044602A958
:1054E000002000F070FC204610BC5DF814FB0000AA
:1054F000C75D000802E008C8121F08C1002AFAD1DF
:1055000070477047002001E001C1121F002AFBD143
:10551000704700002DE9FF5F82B00021DDE9043013
:10552000020DDDF840B0034318D044F61050A2F24B
:10553000FF3242431514119801281FD0A5EB0B0030
:10554000401C5FEA000A4FF000064E4FDFF838912A
:10555000B046504615D5CAF1000413E01198012455
:105560004AA3012801D16FEA0B010298119AC0E900
:105570000031C0E9024206B0BDE8F09FCBF1000067
:10558000DFE704460021404A491842EB0450CDE9C8
:10559000001012E0E00707D032463B46404649463D
:1055A000FAF755FE8046894632463B461046194674
:1055B000FAF74DFE06460F466410002CEAD1DDE9ED
:1055C0000401DDE90023BAF1000F06DAFAF73FFE25
:1055D00042464B46FAF73BFE05E0FBF785F84246AC
:1055E0004B46FBF781F804460E460022284BFAF79B
:1055F000C5FE03D84FF0FF30014607E00022254BDF
:1056000020463146FAF7C9FFFBF7DDF8102409E020
:10561000002C0ADB0A220023FAF7FAFE039B303241
:105620001A55641E50EA0102F2D1641C039AC4F1B7
:1056300011031444119A012A03D0012208430DD109
:105640000AE0084304D000204FF0110B119072E7DC
:10565000A3EB0B056D1E0DE05B4504DD4FF0000272
:1056600005F1010504E003DA4FF00002A5F10105A0
:10567000002AECD002981199C0E90231C0E9004536
:1056800079E70000000014400000F03F3000000007
:105690000000F0430000E03F2DE9FF4F95B09B462E
:1056A0008946064600250FE2252877D100242746A3
:1056B000F84A0121059400E0044316F8013F203B1D
:1056C00001FA03F01042F7D130782A2811D06FF098
:1056D0002F033078A0F13002092A16D8059A44F039
:1056E000020402EB820203EB42021044761C059096
:1056F000EFE759F8042B0592002A03DA504244F4EC
:105700000054059044F00204761C30782E2816D1FF
:1057100016F8010F44F004042A280DD06FF02F0270
:105720003078A0F13003092B09D807EB870302EB8F
:105730004303C718761CF3E759F8047B761C3078CE
:105740006C280FD006DC4C2817D068280DD06A28AA
:1057500014D104E0742810D07A280FD10DE044F45D
:1057600000140AE044F4801401E044F44014727818
:10577000824202D104F58014761C761C30786628AB
:105780000BD013DC582877D009DC002875D04528C9
:10579000F6D04628F4D047281AD19DE118E06328B6
:1057A00035D0642879D0652812D195E1702873D05E
:1057B00008DC6728F1D069286FD06E280DD06F28DB
:1057C00006D1B5E073282CD0752875D0782874D010
:1057D0005A46179990476D1C75E1C4F30250022890
:1057E00009D003280DD0D9F8001004280DD00D6081
:1057F00009F1040967E1D9F80010EA17C1E900527C
:10580000F6E7D9F800100D80F2E70D70F0E719F80F
:10581000041B8DF8001000208DF80100EA460120DD
:1058200003E059F804AB4FF0FF3061074FF000017F
:1058300002D40DE008F101018846B9420FDA804533
:10584000F8DB1AF808100029F4D108E008F101018A
:1058500088468142FADB1AF808100029F6D105982B
:105860005B46A0EB080721463846179A00F094FAE9
:10587000284400EB080507E04DE029E10DE01AF8A7
:10588000010B5A4617999047B8F10108F7D25B46C9
:1058900021463846179A13E142E00A220092C4F3E7
:1058A00002524FF0000A022A08D059F804CB032A0A
:1058B0004FEAEC710AD00DE029E02AE009F1070176
:1058C00021F00702F2E802C1914609E00FFA8CFCD0
:1058D0004FEAEC71042A03D14FFA8CFC4FEAEC71C9
:1058E000002907DA0A460021DCF1000C61EB020115
:1058F0002D2202E0220504D52B228DF8042001225E
:1059000003E0E20701D02022F7E7904659E00A21A0
:1059100002E010220DE010214FF0000A00910BE090
:1059200010224FF0000A44F004040827009203E01C
:1059300008224FF0000A0092C4F30252022A05D056
:1059400059F804CB0021032A08D009E009F1070126
:1059500021F00702F2E802C1914605E01FFA8CFC33
:10596000042A01D10CF0FF0C4FF00008220728D5C3
:10597000702806D0009B83F0100353EA0A0305D079
:105980000EE040228DF80420012208E05CEA0102CA
:1059900006D030228DF804208DF8050002229046B2
:1059A000009B83F0080353EA0A030AD15CEA010270
:1059B00001D1620705D530228DF804204FF001088F
:1059C0007F1E582804D034A003900EA802900DE04A
:1059D00036A0F9E753466046009AFAF719FD844667
:1059E0000398825C0298401E029002705CEA0100FB
:1059F000F0D1029806A9081A00F1200A600702D522
:105A000024F4803400E00127574502DDA7EB0A00AB
:105A100000E0002000EB0A01009005984144401A84
:105A20000590E00306D45B462146179A059800F0DE
:105A3000B3F90544002706E001A85A46C05D17994E
:105A400090476D1C7F1C4745F6DBE0030CD55B4699
:105A50002146179A059800F09FF9054404E030208C
:105A60005A46179990476D1C0099481E00900029CE
:105A7000F5DC08E0029802995A460078491C029128
:105A8000179990476D1CBAF10001AAF1010AF1DCE7
:105A900065E10000092801003031323334353637F2
:105AA000383961626364656600000000303132336A
:105AB000343536373839414243444546000000000A
:105AC00000F058F90544761C307800287FF4ECADDE
:105AD00019B02846BDE8F08F620700D4062709F107
