:020000040800F2
:10000000700D00209D0100080F38000879330008AA
:100010000D380008BD030008194200080000000068
:100020000000000000000000000000006F38000821
:10003000BF030008000000003138000871380008D4
:10004000B7010008B7010008B7010008B7010008B0
:10005000B7010008B7010008C1030008E505000862
:10006000A9080008B7010008710B0008B7010008D3
:10007000B7010008B7010008B7010008B701000880
:10008000B7010008B70100085D020008B7010008C9
:10009000B7010008B7010008B7010008B701000860
:1000A000B7010008B7010008B7010008B701000850
:1000B00085390008FD3A0008B7010008B7010008BB
:1000C000B7010008B7010008B7010008B701000830
:1000D000B7010008B70100080D420008B701000889
:1000E000B7010008B7010008B7010008B701000810
:1000F000B7010008B7010008B7010008CD020008E9
:10010000000000000000000000000000B70100082F
:10011000B7010008B7010008B7010008B7010008DF
:10012000B7010008B7010008B7010008B7010008CF
:10013000B7010008B701000800000000000000003F
:10014000B7010008B7010008B7010008000000006F
:10015000000000000000000000000000000000009F
:100160000000000000000000B7010008B70100080F
:10017000B7010008000000000000000000000000BF
:1001800000000000B7010008DFF80CD000F054F8C0
:100190000048004775480008700D00200648804759
:1001A00006480047FEE7FEE7FEE7FEE7FEE7FEE75C
:1001B000FEE7FEE7FEE7FEE71D39000889010008BB
:1001C0000649074A0868504343F239021044086060
:1001D000400870470149086070470000F0000020A7
:1001E0006D4EC641421E12F8013F002BFBD111F8A3
:1001F000013B02F8013B002BF9D17047421C10F87B
:10020000011B0029FBD1801A704730B50B4601460F
:1002100000202022012409E021FA02F59D4205D3A5
:1002200003FA02F5491B04FA02F52844151EA2F14F
:100230000102F1DC30BD0000064C074D06E0E0682D
:1002400040F0010394E8070098471034AC42F6D31D
:10025000FFF79EFF80500008A050000810B5164818
:1002600001F04EF8C72148433F2190FBF1F01349BC
:100270000968022905D10A2190FBF1F0002104F060
:1002800001FE0F4C606A012808D10E4801F038F8D1
:100290000D490860FFF79EFF00206062064801F0EC
:1002A00033F8084801F030F8034801F04FFBBDE88F
:1002B0001040044801F04ABB0401002098000020CF
:1002C000A0000020580100209C000020084810B524
:1002D000006802280AD1074801F012F8054801F029
:1002E00013F8BDE81040034801F030BB10BD00001A
:1002F00098000020AC01002070B5044600688168B9
:1003000001F00301012926D10168C90723D08168C2
:1003100001F00D01012910D1816841F002018160D5
:1003200021680320086001F0E5FC05460FE000BFEE
:1003300001F0E0FC401B022809D9606C40F010007D
:100340006064A06C40F00100A064012070BD2068D2
:100350008068C007ECD1002070BD000070B5044675
:100360000068816801F00301012902D10168C90711
:1003700020D18168104A11420DD1816841F00101FC
:10038000816001F0B7FC05460FE000BF01F0B2FC50
:10039000401B022809D9606C40F010006064A06C1A
:1003A00040F00100A064012070BD20680068C043D7
:1003B000C007EBD1002070BD3F000080FEE7704712
:1003C0002DE9F0470024DFF8FC81DFF8FC917F4D38
:1003D0007F4E804F07E034B1012C0BD0022C15D09A
:1003E000032C38D123E001221021384601F07DFC96
:1003F000002205E000221021384601F076FC01229F
:100400002021384601F071FC00220AE00022102170
:10041000384601F06AFC00222021384601F065FCD4
:1004200001224021384601F060FC00220FE000224A
:100430001021384601F059FC00222021384601F0F5
:1004400054FC00224021384601F04FFC012280215B
:10045000384601F04AFC0121304601F041FC60B30E
:100460005CBB2868022804D0032802D0042805D0E9
:100470001AE00121002004F005FD15E04FF47A7325
:1004800020225549554802F01CFF4FF4FA7001F044
:1004900043FB0220286007E02868022804D10520D9
:1004A00001F03AFB03F02AFB0121304601F018FC71
:1004B0000028F1D1142001F02FFB0121304601F07A
:1004C0000FFCE8B1012C1BD12868022801D00328B9
:1004D0000DD14FF0FF31002004F0D4FC07E0286874
:1004E000022804D1052001F017FB03F007FB0121CE
:1004F000304601F0F5FB0028F1D1142001F00CFB8F
:100500000121304601F0ECFB40B3022C26D12868D3
:1005100002281AD1D8F80000401CC11700EB9171D5
:1005200021F00301401AC8F8000002D0C9F8000009
:100530000BE02B21C9F8001007E02868022804D13D
:10054000052001F0E9FA03F0D9FA0121304601F063
:10055000C7FB0028F1D1142001F0DEFA012130465A
:1005600001F0BEFB80B1032C0ED1286818B91C49DC
:100570000120286008600121304601F0B1FB00280D
:10058000F9D1142001F0C8FA01221021384601F0F7
:10059000ACFB01222021384601F0A7FB01224021BB
:1005A000384601F0A2FB01228021384601F09DFB74
:1005B000641C042CFFF60FAFBDE8F047012001F0EA
:1005C000BFBA00003C000020280000209800002056
:1005D00000040048000C00484800002050030020A0
:1005E000A00000202DE9F0470024AB4D4FF0010A98
:1005F000A046DFF8A892AA4EAA4F07E034B1012C1A
:100600000BD0022C15D0032C38D123E0012210216D
:10061000384601F06AFB002205E00022102138462E
:1006200001F063FB01222021384601F05EFB00222D
:100630000AE000221021384601F057FB0022202159
:10064000384601F052FB01224021384601F04DFBB3
:1006500000220FE000221021384601F046FB002264
:100660002021384601F041FB00224021384601F0AC
:100670003CFB01228021384601F037FB0221304645
:1006800001F02EFBB0B3ACBB2868042829D1D9F8FF
:10069000281048460E290BD1816B012908D0C16A68
:1006A00021B10021C0F834A0C16206E00121F9E7C0
:1006B0000E21C0E90A18C0F83480C0F83880C0F8AC
:1006C0003080436B00210320D9F82C2004F0C8F9B6
:1006D00007E02868022804D1052001F01DFA03F084
:1006E0000DFA0221304601F0FBFA0028F1D1142066
:1006F00001F012FA0221304601F0F2FAE8B3012CBF
:100700003BD1286804282FD1D9F82800CC460A28E4
:1007100010D1DCF8380001280CD0DCF82C000521C1
:10072000401C90FBF1F201FB1200CCF834A0CCF895
:100730002C0004E00A20CCE90A08CCF83480CCF87C
:100740003880CCF83080DCF8343000210220D9F831
:100750002C2004F085F907E02868022804D1052040
:1007600001F0DAF903F0CAF90221304601F0B8FAD3
:100770000028F1D1142001F0CFF90221304601F018
:10078000AFFAD0B3022C38D1286804282CD1D9F87C
:100790002810484606290ED1816B01290BD0C16A69
:1007A000C0F834A0491CCA1701EB927222F0030270
:1007B000891AC16204E00621C0E90A18C0F8348031
:1007C000C0F83880C0F83080436B00210120D9F890
:1007D0002C2004F045F907E02868022804D1052000
:1007E00001F09AF903F08AF90221304601F078FA13
:1007F0000028F1D1142001F08FF90221304601F0D8
:100800006FFA60B3032C2AD1286804281ED1D9F8C6
:1008100028104846022908D1816B012905D0C0F86B
:1008200034A05146C0F82C8006E002218162C0F855
:100830002C804146C0F83480C0F838800B46002137
:10084000C0F830804246084604F00AF902213046DA
:1008500001F046FA0028F9D1142001F05DF90122D7
:100860001021384601F041FA01222021384601F0DA
:100870003CFA01224021384601F037FA012280215A
:10088000384601F032FA641C042CFFF6B7AEBDE81E
:10089000F047022001F054B998000020A000002089
:1008A00000040048000C00482DE9F0470024AC4D3E
:1008B0004FF0010AA046DFF8AC92AB4EAB4F07E019
:1008C00034B1012C0BD0022C15D0032C38D123E0ED
:1008D00001221021384601F008FA002205E000222A
:1008E0001021384601F001FA01222021384601F09A
:1008F000FCF900220AE000221021384601F0F5F947
:1009000000222021384601F0F0F90122402138462A
:1009100001F0EBF900220FE000221021384601F02F
:10092000E4F900222021384601F0DFF900224021BD
:10093000384601F0DAF901228021384601F0D5F974
:100940000421304601F0CCF9B0B3ACBB28680428D0
:1009500029D1D9F8281048460F290BD1816B0129DC
:1009600008D0C16A21B10021C0F834A0C16206E0FC
:100970000121F9E70F21C0E90A18C0F83480C0F856
:100980003880C0F83080436B01210320D9F82C2037
:1009900004F066F807E02868022804D1052001F079
:1009A000BBF803F0ABF80421304601F099F90028B8
:1009B000F1D1142001F0B0F80421304601F090F993
:1009C000D0B3012C38D1286804282CD1D9F82810AC
:1009D00048460B290ED1816B01290BD0C16AC0F8A2
:1009E00034A0491CCA1701EB927222F00302891A43
:1009F000C16204E00B21C0E90A18C0F83480C0F8D5
:100A00003880C0F83080436B01210220D9F82C20B7
:100A100004F026F807E02868022804D1052001F038
:100A20007BF803F06BF80421304601F059F90028F7
:100A3000F1D1142001F070F80421304601F050F992
:100A4000D0B3022C38D1286804282CD1D9F828102A
:100A5000484607290ED1816B01290BD0C16AC0F825
:100A600034A0491CCA1701EB927222F00302891AC2
:100A7000C16204E00721C0E90A18C0F83480C0F858
:100A80003880C0F83080436B01210846D9F82C200B
:100A900003F0E6FF07E02868022804D1052001F0F2
:100AA0003BF803F02BF80421304601F019F9002837
:100AB000F1D1142001F030F80421304601F010F992
:100AC00088B3032C2FD12868042823D1D9F8281003
:100AD000484603290ED1816B01290BD0C16AC0F8A9
:100AE00034A0491CCA1701EB927222F00302891A42
:100AF000C16204E00321C0E90A18C0F83480C0F8DC
:100B00003880C0F83080436B01210020D9F82C20B8
:100B100003F0A6FF0421304601F0E2F80028F9D1E5
:100B2000142000F0F9FF01221021384601F0DDF811
:100B300001222021384601F0D8F801224021384610
:100B400001F0D3F801228021384601F0CEF8641C70
:100B5000042CFFF6B5AEBDE8F047042000F0F0BF6E
:100B600098000020A000002000040048000C00486D
:100B70002DE9F05F0024B14D4FF0010A4FF0040B56
:100B8000A046DFF8BC92AF4EAF4F07E034B1012C66
:100B90000BD0022C15D0032C38D123E001221021D8
:100BA000384601F0A2F8002205E000221021384664
:100BB00001F09BF801222021384601F096F800222E
:100BC0000AE000221021384601F08FF8002220218F
:100BD000384601F08AF801224021384601F085F8B4
:100BE00000220FE000221021384601F07EF800229A
:100BF0002021384601F079F800224021384601F0E2
:100C000074F801228021384601F06FF81021304637
:100C100001F066F8E0B3DCBB2868022802D00428A3
:100C200005D02CE0C5F800B0C9F800A027E0D9F83D
:100C300028104846102908D1816B012905D0C0F839
:100C400034A05146C0F82C8006E010218162C0F823
:100C50002C804146C0F83480C0F838800B46C0F87C
:100C6000308042460221032003F0FAFE07E02868A4
:100C7000022804D1052000F04FFF02F03FFF1021B1
:100C8000304601F02DF80028F1D1142000F044FF87
:100C90001021304601F024F8E8B3012C3BD128683C
:100CA00004282FD1D9F82800CC460C2810D1DCF824
:100CB000380001280CD0DCF82C000521401C90FBEA
:100CC000F1F201FB1200CCF834A0CCF82C0004E0C7
:100CD0000C20CCE90A08CCF83480CCF83880CCF869
:100CE00030800221DCF834300846D9F82C2003F09B
:100CF000B7FE07E02868022804D1052000F00CFFA9
:100D000002F0FCFE1021304600F0EAFF0028F1D18D
:100D1000142000F001FF1021304600F0E1FFD0B3B5
:100D2000022C38D1286804282CD1D9F8281048463C
:100D300008290ED1816B01290BD0C16AC0F834A0FB
:100D4000491CCA1701EB927222F00302891AC16290
:100D500004E00821C0E90A18C0F83480C0F83880DF
:100D6000C0F83080436B02210120D9F82C2003F019
:100D700077FE07E02868022804D1052000F0CCFEA9
:100D800002F0BCFE1021304600F0AAFF0028F1D18D
:100D9000142000F0C1FE1021304600F0A1FF80B306
:100DA000032C2ED12868042822D1D9F828104846CF
:100DB00004290ED1816B01290BD0C16AC0F834A07F
:100DC000491CCA1701EB927222F00302891AC16210
:100DD00003E0C0E90AB8C0F83480C0F83880C0F831
:100DE0003080436B02210020D9F82C2003F038FE1C
:100DF0001021304600F074FF0028F9D1142000F0D3
:100E00008BFE01221021384600F06FFF01222021C5
:100E1000384600F06AFF01224021384600F065FFA5
:100E200001228021384600F060FF641C042CFFF68C
:100E3000ADAEBDE8F05F102000F082BE980000204B
:100E4000A000002000040048000C004870477047D4
:100E500070477047F0B5002302684FF0A04C3D4C3E
:100E600095B01F46624501D100940DE0A24202D127
:100E7000CDF800C008E0384D384EAA4201D10096A6
:100E800002E0B24214D1009590F84050012D12D0EA
:100E9000012580F8405095686D0752D4009DAD68DB
:100EA0006D074ED4624501D0A24206D12C4A05E01E
:100EB000012015B0F0BD0220FBE72A4A0D6840F67C
:100EC0001F741DB39568466B25F4604545EA4635A9
:100ED0004E68354395600568AE6806F00306012E3E
:100EE00002D12D68ED0731D1009DAD6805F00305F5
:100EF000012D03D1009D2D68ED0727D10D6889686C
:100F00000D439168A1430D4395601FE0916821F462
:100F10006041916001688D6805F00305012D02D1E3
:100F20000968C90712D10099896801F003010129F4
:100F300003D100990968C90708D19168A14391605C
:100F400004E0416C41F020014164012380F84070CD
:100F50001846AEE7000100500004005000050050A4
:100F60000003005000070050F0B595B00024009435
:100F700090F840202546012A19D0012780F84070BA
:100F800003689A6852077CD44A681F26052A11D242
:100F9000D3F830C002EB4202520096402CEA060C15
:100FA0000E6896404CEA060CC3F830C035E00220CB
:100FB00015B0F0BD0A2A0FD2D3F834C0521F02EB8D
:100FC0004202520096402CEA060C0E6896404CEA0B
:100FD000060CC3F834C020E00F2A0FD2D3F838C073
:100FE0000A3A02EB4202520096402CEA060C0E68C6
:100FF00096404CEA060CC3F838C00EE0D3F83CC06B
:101000000F3A02EB4202520096402CEA060C0E68A0
:1010100096404CEA060CC3F83CC00268936813F093
:101020000C0F4FF0070374D1D1F800E0BEF10A0FA6
:1010300010D39669AEF10A0E0EEB4E0C03FA0CFEBD
:1010400026EA0E06D1F808E00EFA0CFE46EA0E0675
:1010500096610FE0D2F814C00EEB4E0603FA06FEBE
:101060002CEA0E0CD1F808E00EFA06FE4CEA0E0C43
:10107000C2F814C002684E69D2F80CC0CCF3C10C9F
:1010800000E0FDE04FEA4C0C06FA0CF6D1F810E057
:10109000DFF848C2BEF1010F42D0BEF1020F4DD0C1
:1010A000BEF1030F58D0BEF1040F63D0166E91F855
:1010B00000C006F0F846B6EB8C6F03D1166E26F032
:1010C000004616660268566E91F800C006F0F846B3
:1010D000B6EB8C6F03D1566E26F00046566602685A
:1010E000966E91F800C006F0F846B6EB8C6F03D10F
:1010F000966E26F0004696660268D66E91F800C09D
:1011000006F0F846B6EB8C6F03D1D66E26F000469B
:10111000D6660268966806F00306012E3AD136E0DC
:10112000D2F860E00EEA0C0E91F800C046EA8C6638
:101130004EEA060E4EF000461666EAE7D2F864E084
:101140000EEA0C0E91F800C046EA8C664EEA060ED6
:101150004EF000465666DCE7D2F868E00EEA0C0E68
:1011600091F800C046EA8C664EEA060E4EF0004644
:101170009666CEE7D2F86CE00EEA0C0E91F800C04D
:1011800046EA8C664EEA060E4EF00046C0E7166848
:10119000F6077AD1CE68012E06D052F8B03F0E780D
:1011A000B740BB43136021E052F8B06F91F800C024
:1011B00007FA0CF73E4316600A680A2A0BD3066842
:1011C000B769093A02EB420293409F438B68934010
:1011D0001F43B7610AE007687E69521C02EB4202B6
:1011E00093409E438B6893401E437E6103684FF09B
:1011F000A0473B4EBB4201D0B34201D1394A00E087
:10120000394A0968102904D0112907D012290AD0B7
:101210003BE0D2F808C04FEA0C2C08E0D2F808C036
:101220004FEACC1C03E0D2F808C04FEA4C2CBCF1CA
:10123000000F2ADBBB420DD0B34201D100970CE076
:101240002A4EDFF8ACC0B34202D1CDF800C004E0B2
:10125000634501D1009600E000959E6806F0030604
:10126000012E02D11E68F6070AD1009E8EB1B66823
:1012700006F00306012E0CD1009E3668F60708D052
:10128000416C41F020014164012480F84050204627
:101290008EE6102908D011291AD01229F5D19168AB
:1012A00041F480019160F0E7BB42EED1916841F4D6
:1012B000000191600F49104A0968B1FBF2F101EB9E
:1012C0008101490000E0491E00910029FBD1DCE7C3
:1012D000BB42DAD1916841F08071E3E700F0FF830F
:1012E00000010050000300500007005000040050AF
:1012F00000050050EC00002040420F00704770478E
:101300000068006C704700002DE9F0410446006859
:101310000168C34FC34DC44E49074FF0A04802D5E2
:101320004168490705D40168090761D54168090783
:101330005ED5616CC90603D4616C41F400716164CF
:101340004146884201D0B04202D1D1F8082300E0E2
:101350003A6812F01F0F1BD0884201D0B04202D170
:10136000D1F8082300E03A6802F01F02052A0FD0E6
:10137000884201D0B04202D1D1F8082300E03A6897
:1013800002F01F02092A03D0884201D0A84201D1ED
:10139000C16803E0B04200D02946C968C26812F4AF
:1013A000406F1FD189041DD4016809071AD58168CF
:1013B00049070FD4416821F00C014160606C20F4B2
:1013C00080706064606CC0040CD4606C40F00100FC
:1013D000606407E0606C40F010006064A06C40F056
:1013E0000100A0642046FFF789FF21680C200860F7
:1013F00020680168890602D54168890605D401681C
:1014000049066ED5416849066BD5616C41F40051BF
:1014100061644246904201D0B04202D1D2F8081332
:1014200000E0396811F01F0F1CD0904201D0B0428B
:1014300002D1D2F8081300E0396801F01F01052934
:1014400010D04146884201D0B04202D1D1F80833D1
:1014500000E03B6803F01F03092B03D0884201D052
:10146000A84201D1C16803E0B04200D02946C96852
:10147000C36C13F0C00F07D08B0154D4C36813F4AE
:10148000406F50D189044ED4016849064BD51146AE
:10149000884201D0B04202D1D1F8082300E03A6876
:1014A00012F01F0F1BD0884201D0B04202D1D1F8F8
:1014B000082300E03A6802F01F02062A0FD0884293
:1014C00001D0B04202D1D1F8082300E03A6802F01E
:1014D0001F02072A03D0884201D0A84202D1C16866
:1014E00004E026E0B04200D02946C96889021AD437
:1014F000816809070FD4416821F060014160606C88
:1015000020F480506064606CC0050CD4606C40F0C6
:101510000100606407E0606C40F010006064A06C43
:1015200040F00100A0642046FFF790FC2168602095
:1015300008602068016809060CD54068000609D5D6
:10154000606C40F480306064204600F095F92168BA
:101550008020086020680168C9050DD54068C00575
:101560000AD5606C40F4003060642046FFF770FCE0
:1015700021684FF4807008602068016889050DD5E6
:10158000406880050AD5606C40F480206064204685
:10159000FFF75FFC21684FF4007008602068016865
:1015A000C90622D54168C9061FD5A16B01290ED0F5
:1015B000404501D0B04201D11C4901E01849083929
:1015C0008A68D20628D0886800F4404050B1606C28
:1015D00040F480606064A06C40F00200A06420468B
:1015E000FFF78DFE2168102008602068016849051A
:1015F00010D5416849050DD5616C41F480416164A5
:10160000A16C41F00801A1644FF4806101602046A3
:10161000FFF71DFCBDE8F081C068C007D6E70000F9
:101620000807005000040050000100500003005063
:10163000F0B54FF0000695B00400374635460096E9
:1016400005D0606CC00648D4606C18B133E001204E
:1016500015B0F0BDA5642565E56484F840502046CA
:1016600000F00CF920688068C00024D42046FEF702
:1016700043FE0646606CC0061DD4E6B9606C20F4DB
:10168000885040F0020060642068816821F0405179
:1016900081602068816841F0805181606D486E49A9
:1016A0000068B0FBF1F000EB8000400000E0401E5D
:1016B00000900028FBD120688168C90002D58068AD
:1016C00080000AD5606C20F0020040F010006064D9
:1016D000A06C40F00100A0640126606CC00675D4C7
:1016E000002E73D12068816849076FD4616C21F4A2
:1016F000807141F0020161644FF0A04E574B70457C
:1017000001D0984201D1564A00E0564ADFF858C14C
:101710005649704501D100930EE0984202D1CDF8B0
:1017200000E009E0884202D1CDF800C004E0604545
:1017300001D1009100E00095836803F00303012BC1
:1017400002D10068C00710D1009840B1806800F055
:101750000300012803D100980068C00705D19068F4
:10176000636820F4403018439060D4E902201043AD
:10177000A26B012A02D04FF4805300E00023E269FB
:1017800043EA42331843636A3843012B0AD1F2B16A
:10179000626C22F0020242F020026264A26C42F00B
:1017A0000102A264E26A012A21D023688B4201D09F
:1017B000634518D14FF430774FF4E071BA4213D03B
:1017C0004FF480739A420AD139460DE038E0228DF9
:1017D000274B03EB4242024342F48030E2E78A4265
:1017E00001D1194600E011460143206B08432168EE
:1017F0008A6812F00C0F0AD1CA6844F202039A43B5
:10180000CA60A169626B890341EA42010843226808
:10181000D168184B19400143D16020690128206824
:10182000016B21F00F0102D1226A521E11430163A4
:10183000A564606C20F0020040F00100606406E0E6
:10184000606C20F0020040F0100060640126304619
:10185000FEE60000EC00002040420F0000010050B6
:101860000003005000070050000500500004005025
:101870000000FEFF07C0F0FF7047000070B52D4A62
:101880000568002310682C490324401C86B0B5F17C
:10189000A04F06D0294EB54230D11060012813D098
:1018A0001AE01060012807D1486940F08050486173
:1018B000486900F0805005900220CDE90004694697
:1018C00002934FF090400DE0486940F0805048612D
:1018D000486900F0805005901020CDE90004694669
:1018E0000293174800F038F900220321122000F07B
:1018F00063FB122000F054FB06B070BD1148854216
:10190000FAD1486940F0005048614869694600F0E2
:10191000005005904FF40050CDE9000402930A48AE
:1019200000F01AF9002203212F2000F045FB2F20A0
:10193000E0E70000DC000020001002400001005041
:101940000008004800040050000400482DE9F04160
:10195000044600688068400770D494F8400001286D
:101960000CD0012084F840002046FEF7F7FC03006D
:101970004FF0000605D084F840609EE00220BDE8EC
:10198000F081606C40F60161884340F480706064CF
:1019900020684FF0A0414A4A4A4D884201D0904207
:1019A00002D1D1F8087300E02F6817F01F0F464FDF
:1019B00003D0884201D0B8420BD1D4F844C02CF4F3
:1019C000801CC4F844C0D0F80CC05FEA8C1C14D44E
:1019D0001BE0D4F844C04CF4801CC4F844C09042CE
:1019E00002D1D1F80CC005E0DFF8DCC00CF10C0C22
:1019F000DCF800C01CF0007F07D0D4F844C02CF401
:101A0000005C4CF4805CC4F844C0D4F844C05FEA85
:101A1000CC4C06D5D4F848C02CF0060CC4F848C00D
:101A200000E0A66484F840601C260660606908280F
:101A30002068466803D046F00C0607E03CE026F03C
:101A4000040646602068466846F008064660A06BBB
:101A5000012804D12068466826F0100646602068F8
:101A6000884201D0904202D1D1F8084300E02C68AE
:101A700014F01F0F1BD0884201D0904202D1D1F840
:101A8000084300E02C6804F01F04052C0FD08842A6
:101A900001D0904202D1D1F8082300E02A6802F078
:101AA0001F02092A03D0884201D0B84205D18168BB
:101AB00041F00401816000E0022318465FE7000066
:101AC00000010050080700500004005010B590F8C5
:101AD00021100024022903D004218163012418E08D
:101AE00001680A6822F00E020A6001680A6822F0A2
:101AF00001020A6090F84020C36B012101FA02F252
:101B00005A6080F82110002180F82010416B01B14B
:101B10008847204610BD000070B5044600F0EAF882
:101B20000546601C02D004480078044400F0E2F846
:101B3000401BA042FAD370BDE000002070470000B7
:101B4000044910B50A68024202D00860FFF7F6FFA8
:101B500010BD0000140401402DE9F84FDFF864B116
:101B600000234FF0010C4FF0030A4FF00F090BF167
:101B7000040EA0E00CFA03F6324072D04C68022C3E
:101B800001D0122C0ED1DC0800EB8408D8F82040DC
:101B90005D07EF0E09FA07F5AC430D69BD4025431B
:101BA000C8F8205007685D0091F804800AFA05F42F
:101BB00008F00308A74308FA05F848EA0708C0F840
:101BC00000804F68012F05D0022F03D0112F01D0C4
:101BD000122F11D18768D1F80C80A74308FA05F8B5
:101BE00048EA0708C0F808804768B7430E79C6F38B
:101BF00000169E403E434660C668A6438C68AC40D3
:101C00003443C4604C68E40054D52F4CA56945F0BA
:101C10000105A561A46923F0030504F00104009403
:101C20002A4C2E19B4689D072F0F09FA07F5AC430B
:101C3000B0F1904F04D0264DA84203D1012512E007
:101C4000002510E0234DA84201D102250BE0224DD2
:101C5000A84201D1032506E0204DA84202D1042567
:101C600001E027E00525BD402543B560DBF80040D5
:101C70005D464E689443F60300D514432C60DEF8AD
:101C8000004075464E689443B60300D514432C605B
:101C90000C4D08352C684E689443F60200D5144369
:101CA0002C60084D0C352C684E689443B60200D564
:101CB00014432C605B1C0A6832FA03F47FF45AAFB9
:101CC000BDE8F88F00040140001002400000014010
:101CD0000004004800080048000C004800100048BC
:101CE0000069084000D0012070470AB18161704747
:101CF000816270470148806870470000E000002062
:101D000090F84120202A24D190F84020012A20D0A8
:101D1000012280F84020242280F8412002681368C4
:101D200023F0010313600268136823F480531360E7
:101D3000026813680B43136001680A6842F00102ED
:101D40000A60202180F84110002180F840100846E8
:101D500070470220704790F84120202A22D190F845
:101D60004020012A1ED0012280F84020242280F841
:101D700041200268136823F00103136002681368AE
:101D800023F4706343EA0121116001680A6842F09C
:101D900001020A60202180F84110002180F84010E3
:101DA000084670470220704770B5040004D094F8CC
:101DB0004100002510B106E0012070BD84F84050BC
:101DC000204600F04DF8242084F841002068016886
:101DD00021F0010101606068216820F070600861F5
:101DE0002068816821F400418160E0680128A068D2
:101DF00007D040F4044021688860E068022803D0DE
:101E000006E040F40040F6E721684FF400604860C7
:101E100020684168114A114341602068C16821F47B
:101E20000041C160D4E904010843A16940EA0120EE
:101E30002168C860D4E90701084321680860206868
:101E4000016841F0010101606564202084F84100CF
:101E5000256384F84250002070BD0000008000021D
:101E600000B500680E4987B0884216D1C0200090A6
:101E7000122001900120029003200390042004907E
:101E800069460848FFF768FE0748C16941F4001138
:101E9000C161C06900F40010059007B000BD0000EA
:101EA00000540040000400480010024002488168CD
:101EB0000278114481607047E0000020074810B5A7
:101EC000016841F010010160032000F095F8002046
:101ED00000F006F800F024F8002010BD00200240B9
:101EE00070B50D4D04464FF47A712878B1FBF0F0CF
:101EF0000A490968B1FBF0F000F0F9FE48B9102C6E
:101F000007D200222146501E00F056F800206C60D7
:101F100070BD012070BD0000E0000020EC0000203A
:101F20001E4808B5816941F001018161816901F0B4
:101F300001010091C16941F08051C161C06900F0A7
:101F400080500090052000F057F8002211466FF0F5
:101F50000B0000F031F8002211466FF00A0000F08B
:101F60002BF8002211466FF0090000F025F800223E
:101F70001146501F00F020F800221146101F00F0FB
:101F80001BF800221146901E00F016F80022BDE852
:101F900008401146501E00F00FB80000001002402B
:101FA00000F01F02012191404009800000F1E02073
:101FB000C0F8001170470000F0B40E4B1B680C46CF
:101FC000C3F30223C3F10705042D00D90425191D0D
:101FD000072901D2002300E0DB1E012606FA05F1E5
:101FE000491E214099409E40761E16403143F0BC68
:101FF00001F00EBC0CED00E0064900F00702086895
:102000004FF6FF03184040EA0220034A10430860DD
:10201000704700000CED00E00000FA0570B5040008
:102020004FF0000604D094F87103002510B106E0CB
:10203000012070BD84F87053204600F043F803205F
:1020400084F8710301220CE0C6EBC60004EB8000AB
:1020500080F8292000F8286F761CC570C5600561DE
:1020600045616068B042EFD8002010E0C0EBC001CD
:1020700004EB810181F8CD5181F8CC0181F8CF5179
:10208000C1F8D851C1F8DC51401CC1F8E051616879
:102090008142EBD82068A0F840202068A0F840508A
:1020A0002068A0F844502068A0F8505021684FF4F0
:1020B0003F40A1F8400084F8245084F871230020A8
:1020C00070BD000000B500680F4987B0884218D184
:1020D0004FF4C05000900220019000200290032095
:1020E00003900E20049069464FF09040FFF734FDB6
:1020F0000648C16941F40001C161C06900F40000F3
:10210000059007B000BD0000005C004000100240D8
:102110002DE9F84F04460068804DC0036FD5E8698B
:102120000026C00008D4E86940F08050E861E86902
:10213000012600F08050009079480168C90512D44A
:102140000168804641F480710160FFF7D3FD0746C6
:1021500005E000BFFFF7CEFDC01B642835D8D8F8D6
:102160000000C005F6D5286A10F4407053D0A1884D
:1021700001F4407181424ED0286A4FF4803191FAC7
:10218000A1F2B2FA82F29700664A4FF001081744B2
:1021900020F44070C7F8008491FAA1F1B1FA81F1FE
:1021A00002EB81010023C1F800342862C00732D05D
:1021B000FFF7A0FD074641F2883A4FF0020907E019
:1021C000FFF798FDC11B514502D90320BDE8F88FE8
:1021D00099FAA9F1B1FA81F141F040014846B8EB12
:1021E000511F01D129680CE090FAA0F1B1FA81F1F8
:1021F00041F04001B0EB511F02D1296A01E015E026
:10220000696A99FAA9F0B0FA80F000F01F0008FAA4
:1022100000F21142D4D0286A616820F4407008436B
:1022200028621EB1E86920F08050E8612078C0077C
:1022300005D0286BA16820F00300084328632078AC
:10224000800705D5286BE16820F4403008432863F7
:102250002078400705D5286B216920F440200843E9
:1022600028632078800605D5286BE16920F01000EE
:10227000084328632068800305D56868A16B20F4B3
:102280008000084368602078400605D5286B216AE5
:1022900020F02000084328632078000705D5286B2C
:1022A000616920F44010084328632078C00605D5F2
:1022B000286BA16920F4400008432863208880052A
:1022C00005D56868E16A20F400000843686020785A
:1022D000000605D5E86A616A20F4F8700843E862F0
:1022E0002088C00505D5E86AA16A20F47850084323
:1022F000E8622088C00405D5286B216B20F480702B
:10230000084328632088800405D5286B616B20F47E
:10231000007008432863002058E7000000100240C6
:1023200000700040000042422DE9F0470F460500D2
:1023300069D04A4E306800F00700B84209D23068D0
:1023400020F0070038433060306800F00700B842E2
:1023500059D12878424C800705D56068A96820F0DB
:10236000F000084360602878C0073DD0696801200C
:1023700001290DD0022923D05FF0020393FAA3F2C2
:10238000B2FA82F242F02002520904D0226803E03D
:102390004FF40033F2E7626A93FAA3F3B3FA83F3DC
:1023A00003F01F03984002422DD0606820F0030024
:1023B00008436060FFF79EFC804641F288390CE0DC
:1023C0004FF00073DAE700BFFFF794FCA0EB0801C1
:1023D000494502D90320BDE8F0876068696800F0CC
:1023E0000C00B0EB810FEFD1306800F00700B8426D
:1023F0000BD9306820F0070038433060306800F0B7
:102400000700B84201D00120E5E72878400705D54C
:102410006068E96820F4E06008436060287800079D
:1024200006D56068296920F4605040EAC100606008
:1024300000F052F86168F02292FAA2F201F0F00185
:10244000B2FA82F2D140074A515CC840064908609E
:102450000020FFF745FD0020BDE7000000200240FE
:102460000010024068500008EC000020014800689D
:1024700070470000EC0000200848094900684968DE
:102480004FF4E06292FAA2F201F4E061B2FA82F251
:10249000D140044A515CC84070470000EC00002065
:1024A000001002407850000808480949006849684F
:1024B0004FF4605292FAA2F201F46051B2FA82F241
:1024C000D140044A515CC84070470000EC00002035
:1024D0000010024078500008144B10B55A68144898
:1024E00002F00C0104291DD008291BD14FF47014EF
:1024F00094FAA4F402F47011B4FA84F4E1400D4C9F
:10250000DB6A615C0F2494FAA4F403F00F03B4FABD
:1025100084F4E340074C1034D203E35C03D5B0FBF2
:10252000F3F0484310BD0448484310BD001002407A
:1025300000127A004850000800093D002DE9F84FCC
:10254000040071D02078FB4DC0074FF0010625D064
:1025500068687704C0F38100012807D06868C0F379
:10256000810002281BD16868C00318D597FAA7F02C
:10257000B0FA80F040F02000400901D0286800E067
:10258000686A97FAA7F1B1FA81F101F01F0106FA22
:1025900001F1084265D060680028D2D061E060682F
:1025A000B0F5803F0BD010B1B0F5A02F17D0286840
:1025B00020F480302860286820F4802002E0286819
:1025C00040F480302860E86AA16820F00F000843DA
:1025D000E862606820B3FFF78DFB80460AE0286858
:1025E00040F480202860EAE7FFF784FBA0EB0800B6
:1025F000642872D897FAA7F0B0FA80F040F0200073
:10260000400901D0286800E0686A97FAA7F1B1FA9A
:1026100081F101F01F0106FA01F10842E4D020E047
:10262000FFF768FB804607E0C7E000BFFFF762FBEB
:10263000A0EB08006428DCD897FAA7F0B0FA80F085
:1026400040F02000400901D0286800E0686A97FA4D
:10265000A7F1B1FA81F101F01F0106FA01F1084278
:10266000E4D12078DFF8D08280074FF0000A4FF0E5
:10267000020759D568684FF0F80B10F00C0F07D01F
:102680006868C0F3810002281BD16868C00318D4B1
:1026900097FAA7F0B0FA80F040F02000400901D08E
:1026A000286800E0686A97FAA7F1B1FA81F101F0B1
:1026B0001F0106FA01F108422BD0206901287CD1C4
:1026C00027E0206988B396FAA6F0B0FA80F048F8BF
:1026D0002060FFF70FFB814606E055E1FFF70AFB9C
:1026E000A0EB0900022884D897FAA7F0B0FA80F08E
:1026F00040F02000400901D0286800E0686A97FA9D
:10270000A7F1B1FA81F101F01F0106FA01F10842C7
:10271000E4D028689BFAABF26169B2FA82F220F049
:10272000F80091400843286025E0FFE796FAA6F1FB
:10273000B1FA81F148F821A0FFF7DCFA814605E003
:10274000FFF7D8FAA0EB09000228CCD897FAA7F037
:10275000B0FA80F040F02000400901D0286800E085
:10276000686A97FAA7F1B1FA81F101F01F0106FA40
:1027700001F10842E4D1207800076AD5A069A0B32E
:1027800096FAA6F0B0FA80F008EB8000C0F88064FA
:10279000FFF7B0FA814605E0FFF7ACFAA0EB0900BD
:1027A0000228A0D897FAA7F0B0FA80F040F06000B5
:1027B000B6EB501F02D128680CE077E197FAA7F03A
:1027C000B0FA80F040F06000B7EB501F01D1286AEA
:1027D00000E0686A97FAA7F1B1FA81F101F01F01F0
:1027E00006FA01F21042D7D033E0FFE796FAA6F0DE
:1027F000B0FA80F008EB8000C0F880A4FFF77AFA06
:10280000814605E0FFF776FAA0EB090002289CD884
:1028100097FAA7F0B0FA80F040F06000B6EB501FD6
:1028200001D128680BE097FAA7F0B0FA80F040F0E9
:102830006000B7EB501F01D1286A00E0686A97FA80
:10284000A7F1B1FA81F101F01F0106FA01F210427D
:10285000D8D12078400774D5E8694FF00009C0004E
:1028600009D4E86940F08050E861E8694FF0010957
:1028700000F08050009031480168C90512D4016809
:1028800041F480710160FFF735FA834606E000BF2E
:10289000FFF730FAA0EB0B00642875D827480068D2
:1028A000C005F5D5E06801280AD008B1052811D087
:1028B000286A20F001002862286A20F0040002E063
:1028C000286A40F001002862E068C8B3FFF712FAF6
:1028D00083460DE0286A40F004002862F0E700BF5C
:1028E000FFF708FAA0EB0B0141F2883081424BD888
:1028F00097FAA7F0B0FA80F040F04000B6EB501F16
:1029000001D128680BE097FAA7F0B0FA80F040F008
:102910004000B7EB501F01D1286A00E0686A97FABF
:10292000A7F1B1FA81F101F01F0106FA01F210429C
:10293000D6D035E000100240000042420070004056
:1029400000E034E0FFF7D6F9834607E0FFF7D2F95D
:10295000A0EB0B0141F28830814215D897FAA7F01D
:10296000B0FA80F040F04000B6EB501F01D128686B
:102970000CE097FAA7F0B0FA80F040F04000B7EB17
:10298000501F02D1286A01E083E0686A97FAA7F134
:10299000B1FA81F101F01F0106FA01F21042D5D11E
:1029A000B9F1000F03D0E86920F08050E861E069D8
:1029B00080B36968C1F38101022977D04FF080713B
:1029C0004F00022809D091FAA1F0B0FA80F048F83F
:1029D00020A0FFF78FF904465EE050468A4691FA40
:1029E000A1F1B1FA81F1C14648F82100FFF782F95F
:1029F000804605E0FFF77EF9A0EB0800022848D8E2
:102A000097FAA7F0B0FA80F040F02000400902D019
:102A1000286801E056E0686A97FAA7F1B1FA81F1F7
:102A200001F01F0106FA01F10842E3D1D4E90810D0
:102A30000843696821F47411084368609AFAAAF09F
:102A4000B0FA80F049F82060FFF754F9044604E03A
:102A5000FFF750F9001B02281BD897FAA7F0B0FA2D
:102A600080F040F02000400901D0286800E0686A4A
:102A700097FAA7F1B1FA81F101F01F0106FA01F10D
:102A80000842E5D01EE000BFFFF734F9001B022822
:102A900002D90320BDE8F88F97FAA7F0B0FA80F0CA
:102AA00040F02000400902D0286801E00CE0686A8C
:102AB00097FAA7F1B1FA81F101F01F0106FA01F1CD
:102AC0000842E1D10020E5E70120E3E770B504000A
:102AD00002D0607F10B106E0012070BD0020207799
:102AE000204600F049F8022060772168CA20486239
:102AF000216853204862204600F09CFEFF250426F2
:102B000018BB206881681B4A114081602168886871
:102B100062681043D4E904231A4310438860216893
:102B2000E068086120680169228941EA0241016187
:102B30002068C16821F08001C1602068806880063B
:102B400007D4204600F02CF818B12068456266775B
:102B5000C2E72068016C21F4802101642068016CC7
:102B6000A26911430164206845620120607700205A
:102B700070BD0000BFFF8FFF0068074988420AD17F
:102B80000120C10391FAA1F1044AB1FA81F102EBEB
:102B90008101C1F800047047002800400000424253
:102BA00070B504460068C16821F0A001C160FFF75C
:102BB000A1F805464FF47A7607E000BFFFF79AF8D0
:102BC000401BB04201D9032070BD2068C068800658
:102BD000F4D5002070BD2DE9F041040005D000259A
:102BE000A56294F85D0018B107E00120BDE8F0810E
:102BF00084F85C50204600F049F8022384F85D30E8
:102C00002068016821F040010160E0684FF4E0664F
:102C1000B04201D9002101E04FF48051B0F5706F4E
:102C200002D0B04200D0A562276B012227B9B04282
:102C300001D9236300E02263D4E901031843D4E9F6
:102C4000043633431843238B03F400731843E369BA
:102C50001843236A1843A36A184323681860636BF8
:102C6000606AA66918430427E36807EA16463343F7
:102C700018430843216848602068C16921F4006155
:102C8000C161256684F85D200020AFE700B50068CB
:102C90000E4987B0884217D10D48816941F48051AF
:102CA00081618069694600F480500590E0200090C1
:102CB0000220019000200290032003900520049040
:102CC0004FF09040FEF748FF07B000BD00300140D4
:102CD000001002404FF0E0210428086903D020F0E2
:102CE00004000861704740F00400FAE7704710B52F
:102CF000401EB0F1807F01D3012010BD4FF0E024D1
:102D000060610F21601700F083FD0020A0610720A3
:102D10002061002010BD10B5FFF7E8FF10BD70471F
:102D20007047704730B590F83C20012A1FD001222F
:102D300080F83C200268536894680E4DAA4202D085
:102D40000D4DAA4203D123F470054B682B4323F0A9
:102D500070050B6889682B4324F08004214353607D
:102D600002689160002180F83C10084630BD0220C6
:102D700030BD0000002C01400034014010B50400BB
:102D800003D094F83D0010B107E0012010BD0020F1
:102D900084F83C00204600F00DF8022084F83D0045
:102DA000211D206800F064FF012084F83D00002010
:102DB00010BD000008B501681448B1F1804F14D06F
:102DC000134A914220D1C16941F00201C161C06939
:102DD000002200F00200009001211D20FFF7ECF816
:102DE0001D20BDE80840FFF7DBB8C16941F00101D3
:102DF000C161C069002200F00100009002211C2086
:102E0000FFF7DAF81C20ECE708BD000000100240D4
:102E1000000400400168CA6842F00102CA6000680C
:102E2000016841F0010101600020704770B504465F
:102E300090F83C00012817D0012584F83C5002206E
:102E400084F83D0022689068364E304020F47F4080
:102E500090600868502839D00DDC20285BD005DC54
:102E600098B3102843D153E0022070BD302855D0CC
:102E700040283CD141E0602830D070280CD0B0F51B
:102E8000805F03D0B0F5005F31D112E02068816827
:102E9000244A7032114016E0CB68D1E90121206844
:102EA00000F03EFF21688868304040F0770088607D
:102EB0001DE0CB68D1E90121206800F031FF2068D6
:102EC000816841F48041816011E01EE0CA68496870
:102ED000206800F037FF5021206806E0CA68496882
:102EE000206800F040FF6021206800F023FF84F894
:102EF0003D50002084F83C0070BDCA6849682068D5
:102F000000F020FF40212068EFE700212068ECE777
:102F100010212068E9E720212068E6E730212068B9
:102F2000E3E7000088FFFEFF704770B504460068C5
:102F300001694FF00005C943890715D4C168C94329
:102F4000890711D4E91E016101202077206880697A
:102F50008007204602D0FFF7E7FF04E000F0A7F863
:102F6000204600F0A5F8257720680169C943490784
:102F700017D4C168C943490713D46FF00401016134
:102F8000022020772068806910F4407F204602D01C
:102F9000FFF7CAFF04E000F08AF8204600F088F846
:102FA000257720680169C943090716D4C168C94358
:102FB000090712D46FF0080101610420207720680E
:102FC000C0698007204602D0FFF7AEFF04E000F0A2
:102FD0006EF8204600F06CF8257720680169C94337
:102FE000C90617D4C168C943C90613D46FF01001CC
:102FF0000161082020772068C06910F4407F2046D6
:1030000002D0FFF791FF04E000F051F8204600F0F5
:103010004FF8257720680169C943C90708D1C168FD
:10302000C943C90704D1891E0161204600F041F857
:1030300020680169C943090609D4C168C943090662
:1030400005D46FF0800101612046FFF769FE20681A
:103050000169C943C90509D4C168C943090605D432
:103060006FF4807101612046FFF759FE2068016905
:10307000C943490609D4C168C943490605D46FF05C
:1030800040010161204600F015F820680169C9433C
:1030900089060BD4C168C943890607D46FF02001A3
:1030A00001612046BDE87040FFF73BBE70BD704730
:1030B00070477047704770477047000070B50368ED
:1030C0000446D869196810F00F0508D1820606D5A4
:1030D0008A0604D52046BDE8704000F00DBF9A680E
:1030E000002D66D002F0010501F490762E4360D0E9
:1030F000C60707D0CE0505D501261E62E36E43F054
:103100000103E366830708D5D30706D026680223A8
:103110003362E36E43F00403E366430708D5D20746
:1031200006D0236804221A62E26E42F00202E266CE
:1031300002070AD501F020022A4306D0236808229C
:103140001A62E26E42F00802E266E26E002A29D0BC
:10315000800604D5880602D5204600F0CDFEE06E3C
:10316000000703D42068806840061CD5204600F084
:10317000A8FE20688168490611D5816821F04001C8
:103180008160606E58B11C494163606EFEF79EFC21
:10319000002807D0606E416BBDE8704008472046AC
:1031A000FFF78AFF70BD2046FFF786FF0020E0662C
:1031B00070BDC5020ED552020CD54FF480101862B6
:1031C000202084F8690084F86A002046BDE8704039
:1031D000FFF771BF020606D50A0604D52046BDE8F2
:1031E000704000F0AFBF4006E2D54806E0D520466B
:1031F000BDE8704000F073BEAF3E000810B504009B
:1032000003D094F8690010B107E0012010BD002040
:1032100084F86800204600F027F8242084F869002C
:103220002068016821F001010160204600F0A0FE45
:103230000128EBD0606A10B1204600F0A6FD20689E
:10324000416821F4904141602068816821F02A01A1
:1032500081602068016841F0010101602046BDE8FD
:10326000104000F0F6BD000000B50068124987B0BC
:1032700088421FD11148C16941F40031C161C06960
:10328000694600F4003005900C2000900220019067
:103290000020029003200390072004904FF09040FC
:1032A000FEF75AFC002201212620FEF785FE26208B
:1032B000FEF776FE07B000BD00440040001002405B
:1032C00070472DE9F843044690F869001F461646FA
:1032D0000D4620284DD1CDB1C6B194F86800012823
:1032E00047D0012084F868004FF00008C4F86C80D3
:1032F000212084F869005034FEF7FCFC24F8026BAE
:10330000814624F852694FF4805618E00120BDE848
:10331000F883B4F85200401EA4F852004B46002235
:1033200080212046009700F03FFFA0B9A068B0427E
:1033300001D1206988B115F8010B21680885B4F81E
:1033400052000028E5D14B4600224021204600973C
:1033500000F02AFF30B10320D9E735F8020BC0F3A3
:103360000800EAE7202084F8690084F868800020DB
:10337000CDE70220CBE77047FEE70000F0B589B04B
:103380000C460F49DDE9106591F800E00021DDE908
:103390000EC705910691CDE9003C079108911346AF
:1033A000BEF1000F02972246014601D0012000E045
:1033B0000020CDE9036501F003FA09B0F0BD00007B
:1033C0000000002030B5194889B04FF0A04100241A
:1033D000C0E900140461C46101254462C0E90B54D2
:1033E00018210562C0E9021404214463C0E90514F0
:1033F0008463FEF71DF900B1FEE706A90B480694A9
:10340000FDF728FD00B1FEE70220CDE90005072009
:10341000CDE902040494694604480594FDF7A4FD2F
:10342000002800D0FEE709B030BD000004010020F4
:1034300030B5164887B014490024C0E9001404616F
:10344000C46101254462C0E90B5418210562C0E93A
:10345000021404214463C0E905148463FEF7E8F80C
:1034600000B1FEE70520CDE900050720CDE9020403
:103470000494694605480594FDF776FD002800D0C0
:10348000FEE707B030BD00000001005058010020E9
:1034900030B5194889B017490024C0E90014046107
:1034A000C46101254462C0E90B5418210562C0E9DA
:1034B000021404214463C0E905148463FEF7B8F8DC
:1034C00000B1FEE706A90C480694FDF7C3FC00B165
:1034D000FEE70520CDE900050720CDE902040494AC
:1034E000694605480594FDF73FFD002800D0FEE73A
:1034F00009B030BD00040050AC0100202DE9F04FB0
:103500005D4887B0416941F400114161416901F4AE
:1035100000110591416941F400214161416901F4C3
:1035200000210591416941F480014161416901F443
:1035300080010591416941F400314161416901F423
:1035400000310591416941F480214161416901F4F3
:1035500080210591416941F4801141614069474EE4
:1035600000F480104FF60874059000222146304682
:10357000FEF7BBFBDFF808914FF4F0570022394605
:103580004846FEF7B2FB4FF4E0684FF0904A002245
:1035900041465046FEF7A9FBDFF8E8B00022F321D0
:1035A0005846FEF7A2FB0125CDE900450024029410
:1035B000694630460394FEF7CFFA20200090324847
:1035C000CDE9010469463046FEF7C6FACDE900545C
:1035D0000226694650460296FEF7BEFA1720009072
:1035E0002A48CDE9010669462948FEF7B5FACDE932
:1035F0000264CDE9007569464846FEF7ADFACDE9AB
:103600000264CDE9008569465046FEF7A5FA03201D
:1036100003948DE8610069465846FEF79DFAF02054
:103620000090CDE90154694658460394FEF794FA98
:10363000012211460620FEF7BFFC0620FEF7B0FC73
:10364000012211460720FEF7B7FC0720FEF7A8FC71
:10365000002201210820FEF7AFFC0820FEF7A0FCA5
:10366000012211460A20FEF7A7FC0A20FEF798FC6B
:1036700007B0BDE8F08F00000010024000100048C5
:1036800000080048000C0048000012100000111053
:1036900000040048114810B50F490160104941600D
:1036A00000210122C0E90212016141618161C16111
:1036B0000162FEF779FB00B1FEE700210748FEF743
:1036C0001FFB00B1FEE700210448FEF744FB002881
:1036D00000D0FEE710BD00000054004000020020B2
:1036E0000E090020104810B50E4901604FF4827198
:1036F000416000214FF44072C0E902124FF40072A1
:103700000161C0E905120822C0E9072107234162CF
:10371000C0E90A13C0E90C12FFF75DFA002800D0D7
:10372000FEE710BD003001406C02002010B51348C8
:1037300088B04FF08041016040F2CF210024C0E901
:10374000011442F21071C0E903148461FFF716FB03
:1037500000B1FEE74FF48050039003A90748FFF73C
:1037600065FB00B1FEE70094694604480294FFF748
:10377000D9FA002800D0FEE708B010BDD002002022
:1037800010B5134888B01149016023210024C0E915
:10379000011442F21071C0E903148461FFF7EEFADC
:1037A00000B1FEE74FF48050039003A90848FFF7EB
:1037B0003DFB00B1FEE70094694605480294FFF71F
:1037C000B1FA002800D0FEE708B010BD00040040A8
:1037D000100300200C4810B50A4901604FF4E13194
:1037E0004160002181600C22C160C0E90412816146
:1037F000C16101624162FFF701FD002800D0FEE7D0
:1038000010BD00000044004050030020FEE7704758
:103810000907090E002806DA00F00F0000F1E02089
:1038200080F8141D704700F1E02080F80014704704
:103830007047000070B504460068C168490614D49A
:103840004FF0FF31C160FEF755FA05464FF47A7626
:1038500007E000BFFEF74EFA401BB04201D903203B
:1038600070BD2068C0684006F4D5002070BD704768
:1038700010B5FEF71BFBBDE81040FFF74CBA000087
:1038800030B59FB00B200F904FF4A0200024CDE95D
:10389000100401201021CDE913010225CDE9150501
:1038A000000417904FF4E01018900FA8FEF746FEA2
:1038B00000B1FEE70F20CDE919054FF48060CDE996
:1038C0001B40022119A81D94FEF72EFD00B1FEE752
:1038D000114800904FF48070099040010A90001147
:1038E0000190039407940E946846FEF711FC00B112
:1038F000FEE7FEF7BBFD4FF47A71B0FBF1F0FFF786
:10390000F6F90420FFF7E6F900221146501EFEF7F3
:1039100053FB1FB030BD0000A20103001448016832
:1039200041F4700101601348016841F00101016038
:103930004168114A114041600168104A114001601C
:10394000016821F480210160416821F4FE01416099
:10395000C16A21F00F01C162016B094A1140016384
:10396000002181600249C00380390860704700006F
:1039700088ED00E0001002400CC07FF8FFFFF6FE6B
:10398000CCFC00FF2DE9F05F4F4CDFF840B1012681
:10399000A06880BB00214B1E5A4601EB8105002028
:1039A00002EB051545F82030401C1428FADB491CB1
:1039B0000429F2DB4648FDF7C9FF4648FDF7C6FF7C
:1039C0004548FDF7C3FF454D012210212846FEF76B
:1039D0008CF9012220212846FEF787F90122402197
:1039E0002846FEF782F9012280212846FEF77DF95C
:1039F00000F00EFFA6602068DFF8E480DFF8E490B6
:103A00000027394D4FF0020A012820D100F0C9FDEE
:103A10002868012806D0042810D0052811D00628CF
:103A200014D111E0C8F800702B21C9F80070CBF850
:103A30000010C4F804A000F077FF07E000F0A0FE3B
:103A400004E000F0FBFE01E001F054FA2760286872
:103A500020B1012805D0022818D024E001F000F997
:103A60001FE001214FF09040FEF73AF9C8B1C8F8C5
:103A70000070C9F800700320C5F800A00122606042
:103A800011021A48FEF731F926600AE01848FFF7DC
:103A9000C1F91848006810B905202660286000F0B8
:103AA00051FE286838B1052805D0062803D004281F
:103AB00001D000F023FD1048FFF737FABDE8F05FB2
:103AC0000D48FFF7A7B90000A00000203008002033
:103AD0000401002058010020AC010020000C004827
:103AE000140000201800002098000020001000485A
:103AF0001003002038000020D00200202DE9F843F8
:103B0000564C60690090D4E90721A369E06800F091
:103B1000F1FF01256069002630B1A06938B1E06984
:103B200040B1206A48B10AE0C4E9055607E0C4E99B
:103B3000065604E0C4E9075601E066612562484F75
:103B40003868022801D003286FD12169491C2161FE
:103B5000E068A0286DD0C82967D1401C142190FBD3
:103B6000F1F2E06001FB120080BBDFF8F880D8F8CA
:103B70000000401CC8F80000012801DD012200E01F
:103B80000022DFF8E4904FF400714846FEF7ADF8EC
:103B9000D8F80000022801DD012200E000224FF4E5
:103BA00080614846FEF7A1F8D8F80000032801DD3F
:103BB000012200E000224FF400614846FEF795F82C
:103BC000D8F80000042802DD012201E029E00022EB
:103BD0004FF480514846FEF788F8D8F800000528D1
:103BE00001DD012200E000224FF400514846FEF7BB
:103BF0007CF8D8F80000062801DD012200E0002250
:103C00004FF480414846FEF770F8D8F800000728C6
:103C100001DD012200E000224FF400414846FEF79A
:103C200064F82661E068A02803D03868042804D02E
:103C30000BE006202560386007E0206B401C206305
:103C4000B0F5AF7F01D12661A5630848FFF76DF994
:103C5000BDE8F8430548FFF7DDB80000A0000020EC
:103C600098000020340000200010004810030020BD
:103C70002DE9F0430268234B234D244E244C4FF092
:103C80008049984207D0484505D0A84203D0B042A9
:103C900001D0A04203D122F070074A683A431D4F79
:103CA000DFF874C0DFF8748098420DD048450BD01F
:103CB000A84209D0B04207D0A04205D0B84203D0F4
:103CC000604501D0404503D122F44075CA682A43BB
:103CD0004D6922F080022A4302608A68C2620A6843
:103CE0008262984207D0A04205D0B84203D0604516
:103CF00001D0404501D10969016301214161BDE85D
:103D0000F0830000002C0140000400400008004047
:103D1000003401400040014000440140004801409F
:103D200010B5846842EA032224F47F440A43224304
:103D3000826010BD826822F070020A4342F00701DF
:103D40008160704710B5036A046A24F001040462BC
:103D5000846924F0F00444EA021423F00A020A43BE
:103D60008461026210BD10B5036A23F01003036280
:103D70008369046A23F4704343EA023224F0A00307
:103D800043EA01118261016210BD90F82410C90755
:103D900006D001684A68836A22F400321A434A60F6
:103DA00090F82410890706D501684A68C36A22F48E
:103DB00080321A434A6090F82410490706D50168FA
:103DC0004A68036B22F480221A434A6090F8241058
:103DD000090706D501684A68436B22F400421A437A
:103DE0004A6090F82410C90606D501688A68836B7A
:103DF00022F480521A438A6090F82410890606D56E
:103E000001688A68C36B22F400521A438A6090F8F2
:103E10002410490611D501684A68036C22F4801207
:103E20001A434A60016CB1F5801F06D101684A68E7
:103E3000436C22F4C0021A434A6090F82410090629
:103E400006D501684A68806C22F4002202434A6069
:103E50007047F8B500260446C666FDF74BFF0546D9
:103E6000206800686FF07E47000708D52B460022C7
:103E70004FF400112046009700F096F960B92068D1
:103E8000006840070AD52B4600224FF480012046E7
:103E9000009700F089F908B10320F8BD202084F8CC
:103EA000690084F86A0084F868600020F8BD10B5E5
:103EB000406A0021A0F85A10A0F85210FFF7FCF851
:103EC00010BD01680A6822F490720A6001688A686D
:103ED00022F001028A60202180F86A10704710B534
:103EE00001680A6822F040020A60202180F8691007
:103EF000FFF741FA002010BD10B5B0F85C2090F833
:103F00006A300168222B05D0886940F0080088617A
:103F1000022010BD898C8368B3F5805F01D10369ED
:103F20006BB11140426D531C43651170B0F85A10CB
:103F3000491E0904090CA0F85A1007D015E0436D7A
:103F400011401980416D891C4165EFE701680A68DD
:103F500022F490720A6001688A6822F001028A6085
:103F6000202180F86A10FFF7ABF9002010BD000097
:103F70002DE9F041044610202369A268E6691A433E
:103F80006369002133431A4323680D461E6849F2D2
:103F90000C67BE4316431E6022685368E66823F42C
:103FA000405333435360236AA2691A4323689E68CF
:103FB00026F4306616439E605A4F22685A4B060319
:103FC000BA420CD11B6B13F0030306D0012B4DD06A
:103FD000022B4DD0032B4CD146E0012049E0534F3A
:103FE000BA420CD11B6B13F440333BD0B3423DD0EB
:103FF000B3F5003F3CD0B3F5403F3AD134E04C4FED
:10400000BA420DD11B6B13F440232BD0B3F5802F94
:104010002CD0B3F5002F2BD0B3F5402F29D123E0BE
:10402000444FBA420DD11B6B13F440131AD0B3F5B1
:10403000801F1BD0B3F5001F1AD0B3F5401F18D155
:1040400012E03D4FBA4214D11B6B13F4400309D068
:10405000B3F5800F0AD0B3F5000F09D0B3F5400FC8
:1040600007D101E0002004E0022002E0042000E08B
:104070000820E7694FF400439F4226D109281DD24A
:10408000DFE800F00508121C151C1C1C1800FEF7C8
:10409000F3F901E0FEF708FA4100606801EB500116
:1040A000B1FBF0F081B20AE024496068F6E7FEF760
:1040B00013FAF1E7606806EB5001F1E7012521F002
:1040C0000F00C1F3420108431CE0092825D2DFE8B4
:1040D00000F005080B24102424241C00FEF7CCF962
:1040E00009E0FEF7E1F906E01549606801EB5001CF
:1040F0000EE0FEF7F1F90146606801EB5001B1FBFB
:10410000F0F080B22168C86008E0606803EB5001FD
:10411000B1FBF0F080B2D06000E001252846BDE898
:10412000F0810000003801400010024000440040CF
:1041300000480040004C0040005000400024F400C3
:1041400000127A0090F86910212901D002207047EE
:10415000B0F8521021B18168B1F5805F0BD00CE04E
:1041600001680A6822F080020A600068016841F074
:10417000400101600CE0016961B1C16C4A1CC2647C
:1041800002680978A2F8281030F8521F491E0180F1
:1041900000207047C16C02680988C1F308011185CD
:1041A000C16C891CC164EFE72DE9F04198461746C0
:1041B0000E460446069D1DE0681C1BD02DB1FDF780
:1041C00099FDA0EB0800A84214D92068016821F4E9
:1041D000D07101602068816821F001018160202098
:1041E00084F8690084F86A00002084F868000320DD
:1041F000BDE8F0812068C06936EA000004D00020E4
:10420000B842D9D00020F3E70120F9E70148FEF7D2
:1042100055BF000050030020FEE700000FB4084B1C
:1042200010B504A902AA039800F01CF8044602A9DC
:10423000002000F0C1F8204610BC5DF814FB00001F
:10424000B943000802E008C8121F08C1002AFAD1C9
:1042500070477047002001E001C1121F002AFBD106
:10426000704700002DE9FF4F89B09B4604460025AA
:1042700006E025280BD05A460B999047641C6D1C0C
:1042800020780028F5D10DB02846BDE8F08F002732
:10429000B8460122474900E0074314F8013F203B9C
:1042A00002FA03F00842F7D120782E2819D114F829
:1042B000010F47F004072A280ED06FF02F02207854
:1042C000A0F1300109290CD808EB880102EB41016B
:1042D00000EB0108641CF2E70A98641C50F8048B98
:1042E0000A9020780028CED0642808D0692806D00B
:1042F00075281ED05A460B9990476D1C58E00A99B4
:104300004FF00A0901C90A91002802DA40422D2122
:1043100002E0390504D52B218DF82010012103E09E
:10432000F90704D02021F7E78A4608AE0DE0002106
:10433000FAE70A994FF00A0901C90A91F7E74946D5
:10434000FBF763FF303106F8011D0028F7D1ADEB14
:10435000060000F12009780701D44FF00108C84594
:1043600002DDA8EB090000E000208046002706E0FF
:1043700008A85A46C05D0B9990476D1C7F1C574595
:10438000F6DB04E030205A460B9990476D1CB8F1DB
:104390000001A8F10108F5DC05E016F8010B5A460A
:1043A0000B9990476D1CB9F10001A9F10109F4DCEA
:1043B000641C65E7092801000A68531C0B60107033
:1043C0007047000030B54B4C85B00D46012903D92C
:1043D000A17841F00801A17000F140030246657127
:1043E0004021002000F032FC607828B1012D03D17B
:1043F000A07840F00400A07000F04EF90320039074
:104400000120019021783C480029E28801886389D5
:1044100041EA0201228942EA030241EA020142889A
:1044200041EA0201828841EA020101D0C08808E025
:10443000C288114302891143428911438289C0898C
:104440001143014300916946E068FDF785FB322086
:10445000FDF762FB0022E188E068FDF746FC0022E0
:104460006189E068FDF741FC2189FF2903D0002222
:10447000E068FDF73AFCA078C10615D4032000F0EF
:1044800057FD0520FDF748FB032000F051FD0520F6
:10449000FDF742FB032000F04BFD0120FDF73CFB44
:1044A000022000F045FD13E040F0200000F0B8F8D5
:1044B0000520FDF731FBA07840F0200000F0B0F8B7
:1044C0000120FDF729FBA07840F0200000F0A8F8BB
:1044D000A07840F0200000F0A3F80420E07000F085
:1044E000CFF800F055F802202071062000F098F86F
:1044F00005B030BD00000020F40000202DE9F0419F
:10450000144F002505EB8500002407EB001600BFC3
:1045100056F82400411C09D0A028E9B2E0B20DD021
:1045200000F038FB16F8240000F0FCFC641C142C8E
:10453000EEDB6D1C042DE5DBBDE8F08100F02AFB0D
:1045400016F8240000F0EEFC4FF0FF3046F824008F
:10455000ECE70000300800200EB50A480A4A016B5B
:104560001268006AC1EB4202424308A16846FFF7A5
:1045700055FE0221082000F00DFB684600F05CFAB1
:104580000EBD000014000020AC00002025640000D7
:1045900010B5012000F044F8BDE810400220FDF7FE
:1045A000BBBAFFF7F5BF0000F0B500EB40011A48B9
:1045B00000EBC100416803292CD0174A8368783288
:1045C0009F1801EB8102142101EB8206B95D09B34A
:1045D0000469A1F10101641ECDB20461BD550E4F05
:1045E0000E494FF0A00607F1C80708D1641E4461C8
:1045F00007EB021040F823600869401E0861002D97
:1046000007D107EB021000EB83000665C869401E66
:10461000C861F0BD0020F0BD680700201400002034
:10462000002100F095BA70B50D4600F0070040215A
:1046300041EAC000FFF7F4FF00240121285D00F0EB
:1046400087FA641C082CF8DB70BDF0B585B0032434
:104650000126DDF828C0002701AD40FA04FE5FEA1C
:10466000CE7E02D045F8246001E045F82470641E37
:10467000F3D52846CDF800C000F0A0FA05B0F0BD93
:104680000449C87840F00400C87040F00800FFF703
:10469000C7BF000000000020234808B5C1682348B8
:1046A000B1F1904F0BD0224A914210D1416941F4AF
:1046B00080214161406900F48020009008BD41697B
:1046C00041F400314161406900F40030F5E7194AD6
:1046D000914207D1416941F400214161406900F4F0
:1046E0000020EAE7144A914207D1416941F4801160
:1046F0004161406900F48010DFE7104A914207D120
:10470000416941F400114161406900F40010D4E7AF
:104710000B4A9142D2D1416941F480014161406923
:1047200000F48000C9E700000000002000100240F3
:104730000004004800080048000C00480010004831
:104740000014004870B500F053FB00F025FC002475
:10475000094E0A4D0BE000BF04EB440006EBC0001D
:104760004069012802D1204600F006F9641CE8687F
:104770008442F1DB70BD00006807002014000020B7
:1047800010B50021022000F005FA07A000F054F94E
:104790000221042000F0FEF907A000F04DF90749BE
:1047A0000520086010BD0000456E74657220596FC9
:1047B0007572204E616D65002D3E000014000020D2
:1047C0002DE9F05F0AAC94E8E05F0F4CE2802381B2
:1047D0006581E1600D490E804F80A1F80480A1F849
:1047E0000690A1F808A0A1F80AB0A1F80CC0A1F8A1
:1047F0000EE008B1002000E01020A070BDE8F05FDE
:1048000002211020FFF7DEBD00000020F400002090
:10481000084910B50020C968421E074B06E000BFDA
:1048200000EB400403EBC404401C62618842F7DBE8
:1048300010BD0000140000206807002010B5002102
:10484000082000F0A7F907A000F0F6F801210820E1
:1048500000F0A0F905A000F0EFF8BDE81040FFF768
:104860007BBE000047616D65000000004F766572F9
:10487000000000001FB5FDF721FBFFF701F8FEF770
:104880003DFEFEF707FFFEF72DFF234821490024D8
:104890000160082141600221C0E9021484610462C0
:1048A0000161FDF7BBFB00B1FEE7FEF78BFD1C4885
:1048B0001A49C0E900142721816040F2E731C0E9BC
:1048C000031444618461FEF701F900B1FEE7FEF7CD
:1048D000AFFDFEF7DDFDFEF729FFFEF751FFFEF706
:1048E00079FF4FF480435A10511048108DE80F00A3
:1048F00043108210C1100B48FEF740FD0421142024
:10490000FFF760FD00F008FA05488430FEF782FAF0
:10491000FEE70000005C0040C003002000280040CB
:104920004C020020000C004810B50021022000F0CD
:1049300031F909A000F080F80121022000F02AF9E5
:1049400008A000F079F80221084600F023F9BDE83C
:10495000104007A000F070B84E65772047616D6584
:10496000000000004C6F61642047616D650000002D
:1049700041626F75740000002DE9F04F2B4E00EB83
:1049800040052B4A06EBC504DFF8A880E3681168F0
:10499000D8F80870CB1ABB422DDD9346E160FFF7D3
:1049A00003FE002827D1B246606806F17806421C53
:1049B0004FF0A00906F150010BD000EB8003A26874
:1049C00006EB830C002701EB031302F80C7043F88D
:1049D0002290401C606004280FD0237C00EB8000F4
:1049E0005F42A36806EB800401EB00101F555AF8E4
:1049F000352040F82320BDE8F08FD8F82400401E71
:104A0000C8F82400012803D1DBF80000C8F8300002
:104A10004FF0FF306061A26801EB8201C1F8F090B5
:104A2000D8F81000401EC8F81000E4E7680700201E
:104A3000AC0000201400002070B500280FD0044600
:104A4000FBF7DCFB0546002606E000BF14F8010B6F
:104A5000012100F07DF8761C6D1EF7D2304670BD46
:104A600070B5144C1646C0EB001004F148052844FC
:104A700001EB8101226845186BB1D0B2022100F030
:104A800089F8A26904F13401A85D8854A85DBDE8E5
:104A9000704000F047BA521CD0B20221226000F0F0
:104AA00079F80448A9193430FBF79CFBA069401C35
:104AB000A061EBE71400002010B50D4C00226189C5
:104AC000E068FDF712F90120FDF726F8012261895F
:104AD000E068FDF70AF90120FDF71EF80022618960
:104AE000E068FDF702F9BDE810400120FDF714B8B9
:104AF00000000020F8B50A2490FBF4F504FB150C27
:104B000090FBF4F5069F0A3D01D590FBF4F5642473
:104B100090FBF4FE0D4EF46A706A012C04D0022C56
:104B200004D0032C04D004E0704602E0284600E0E4
:104B30006046641CE51704EB957525F00305641BBE
:104B4000F4620097FFF781FDF8BD0000140000201B
:104B500070B50F4C05460A46E188E068FDF7C5F8D8
:104B60002189FF2903D00022E068FDF7BEF8A07874
:104B7000C00604D52846BDE8704000F0F3B9280906
:104B800000F0D6F92846BDE8704000F0D1B9000029
:104B900000000020042900D30321074A52799142E2
:104BA00001D3521ED1B2044A1032515C0844C0B243
:104BB00040F08000FFF734BD000000202DE9F047F1
:104BC000DFF88090089D1E4690460F460446BDB310
:104BD000002202214846FDF788F8FAB20121484632
:104BE000FDF783F8184F08F0FF024FF48051384664
:104BF000FDF77BF8F2B24FF400613846FDF775F827
:104C0000EAB24FF4806529463846FDF76EF86E101B
:104C1000227831463846FDF768F84FF09047227900
:104C2000A9103846FDF761F8227A31463846FDF77B
:104C30005CF8227B29463846BDE8F047FDF755B8B9
:104C40000122C6E7000C00480008004810B5034CDC
:104C500020706170A270E37010BD00001000002091
:104C600010B56420FCF758FF00210720FFF792FFE2
:104C700024A0FFF7E1FE01210920FFF78BFF23A00D
:104C8000FFF7DAFE02210620FFF784FF20A0FFF7DE
:104C9000D3FE03210620FFF77DFF012000F042F93B
:104CA00003210720FFF776FF022000F03BF90321E4
:104CB0000820FFF76FFF032000F034F903210A20DA
:104CC000FFF768FF042000F02DF903210B20FFF708
:104CD00061FF052000F026F903210C20FFF75AFFA1
:104CE000062000F01FF903210D20FFF753FF0720D6
:104CF00000F018F940F2B630FCF70EFFBDE81040A6
:104D0000FFF746BC506C616E747300007673000050
:104D10005A6F6D626965730000B525A191B0D1E944
:104D20000001CDE9000124A0D0E90010CDE9021076
:104D300023A0D0E90010CDE9041023A0D0E9001091
:104D4000CDE9061022A0D0E90010CDE9081022A07C
:104D5000D0E90010CDE90A1021A0D0E90010CDE97A
:104D60000C1021A0D0E90010CDE90E100EA90020F2
:104D7000FFF759FC69460120FFF755FC02A9022004
:104D8000FFF751FC04A90320FFF74DFC06A90420FE
:104D9000FFF749FC08A90520FFF745FC0AA90620F2
:104DA000FFF741FC0CA90720FFF73DFC11B000BD47
:104DB000040A111B1111111F040A150A040E15040F
:104DC00000040E040E11110E040A041F04040A113B
:104DD0001F111F0404040A11040A1F040E040A11FF
:104DE000110A0E0A0E040A110000150E1F0E1500FE
:104DF0002DE9F0411F4CE069072838D04FF090456D
:104E000001212846FCF76CFF002830D026681A489C
:104E100006EB860300EB83026068115C09BBA16AA4
:104E2000F9B1F6B104F13C0606EB8107134EDFF849
:104E300050E057F804CC0EEB8101366851F8041CA1
:104E4000A6EB0C0C8C450CDD616911540A4A5032FA
:104E500002EB031242F82010E069401CE06147F8C1
:104E6000046C01212846FCF73BFF0028F9D1BDE87E
:104E7000F081000014000020E0070020AC000020BA
:104E80003C500008F0B5184A184C1368576803EBFB
:104E9000830604EB860515F807C004F15005BCF144
:104EA000000F05D105EB06164FF0A00C46F827C001
:104EB0000F4E3668B34203D1002901DD166004E0CD
:104EC0000BB9002901DB194411605060116801EB36
:104ED000810104EB81031B5C002B04D105EB011164
:104EE000526941F82020F0BD14000020E0070020A6
:104EF000A400002010B500210820FFF74BFE07A0FA
:104F0000FFF79AFD01210820FFF744FE04A0FFF7F8
:104F100093FDBDE81040FFF71FBB0000596F7500FF
:104F2000576F6E0010B50121FFF712FE012010BD72
:104F30002DE9F041094E0A4F0546002425FA04F0F8
:104F400000F0010236F81410F868FCF7CEFE641C7D
:104F5000042CF3DBBDE8F041FFF7AEBDF400002008
:104F6000000000202DE9F041094E0A4F05460024BB
:104F700025FA04F000F0010236F81410F868FCF786
:104F8000B4FE641C082CF3DBBDE8F041FFF794BDD0
:104F9000F4000020000000202DE9F041204DD5E96B
:104FA000030181423ADA00241E4E07E004EB44017B
:104FB00006EBC1014969491C02D0641C8442F5DB3F
:104FC00084422BD0FBF7FCF8062190FBF1F201FBA9
:104FD000120004EB440706EBC7040830E060FBF75F
:104FE000EFF8142190FBF1F201FB1200A0604FF0EA
:104FF000FF306060FBF7E4F8C11700EB917121F01E
:105000000301401A084951F82010001D216146F89B
:105010003700012060612869401C2861BDE8F081EB
:1050200014000020680700202C5000080100000038
:105030000200000003000000040000000400000063
:10504000080000000A000000020304050607080922
:105050000A0B0C0D0E0F10100102030405060708C1
:10506000090A0B0C0D0E0F100000000000000000DC
:1050700001020304060708090000000001020304FE
:10508000A050000800000020F40000004442000886
:1050900094510008F40000207C0C000054420008E9
:1050A00001000000000000000000000000000000FF
:1050B00000000000000000000000000005000000EB
:1050C00005000000000000002B000000FFFFFFFFB4
:1050D00000000000010000000500000000000000CA
:1050E00000000000000000000000000000000000C0
:1050F000F5FFFFFFF5FFFFFFF5FFFFFF3120202049
:1051000020326162632033646566203467686920F9
:10511000356A6B6C20366D6E6F2037707172733824
:1051200074757620397778797A2A2B2020203020E0
:10513000202020232020202000000000000000006C
:10514000010000000200000000000000000000005C
:10515000000000000000000001000000010000004D
:105160000100000001000000FFFFFFFF0000000041
:10517000000000000000000000000000000000002F
:1051800001000000100000000000000000127A0082
:04519000000000001B
:040000050800018965
:00000001FF
