:020000040800F2
:10000000800C00209D0100083B2B0008DB26000827
:10001000392B0008350300085B2F000800000000A2
:100020000000000000000000000000009B2B000802
:1000300037030008000000005D2B00089D2B00081E
:10004000B7010008B7010008B7010008B7010008B0
:10005000B7010008B70100083903000811050008BE
:10006000B7010008B701000817050008B70100082C
:10007000B7010008B7010008B7010008B701000880
:10008000B7010008B7010008F5010008B701000832
:10009000B7010008B7010008B7010008B701000860
:1000A000B7010008B7010008B7010008B701000850
:1000B000AD2C0008D52D0008B7010008B7010008D5
:1000C000B7010008B7010008B7010008B701000830
:1000D000B7010008B7010008B7010008B701000820
:1000E000B7010008B7010008B7010008B701000810
:1000F000B7010008B7010008B70100084502000871
:10010000000000000000000000000000B70100082F
:10011000B7010008B7010008B7010008B7010008DF
:10012000B7010008B7010008B7010008B7010008CF
:10013000B7010008B701000800000000000000003F
:10014000B7010008B7010008B7010008000000006F
:10015000000000000000000000000000000000009F
:100160000000000000000000B7010008B70100080F
:10017000B7010008000000000000000000000000BF
:1001800000000000B7010008DFF80CD000F020F8F4
:10019000004800479D320008800C00200648804738
:1001A00006480047FEE7FEE7FEE7FEE7FEE7FEE75C
:1001B000FEE7FEE7FEE7FEE7452C000889010008A0
:1001C000421C10F8011B0029FBD1801A7047000067
:1001D000064C074D06E0E06840F0010394E8070094
:1001E00098471034AC42F6D3FFF7D2FF6C380008C2
:1001F0008C38000810B5104800F0EAFBC7214843CE
:100200003F2190FBF1F00D490968022905D10A212F
:1002100090FBF1F0002103F09FFA074800F0DCFBAF
:10022000074800F0D9FB044800F0F8FEBDE8104094
:10023000034800F0F3BE00008400002038000020D6
:10024000D8000020084810B5006802280AD10748E5
:1002500000F0BEFB054800F0BFFBBDE810400348BE
:1002600000F0DCBE10BD0000380000202C01002092
:1002700070B504460068816801F00301012926D1A8
:100280000168C90723D0816801F00D01012910D14F
:10029000816841F00201816021680320086001F05B
:1002A0006BF805460FE000BF01F066F8401B02281E
:1002B00009D9606C40F010006064A06C40F001004F
:1002C000A064012070BD20688068C007ECD10020C8
:1002D00070BD000070B504460068816801F003013C
:1002E000012902D10168C90720D18168104A114251
:1002F0000DD1816841F00101816001F03DF80546B2
:100300000FE000BF01F038F8401B022809D9606CEB
:1003100040F010006064A06C40F00100A064012077
:1003200070BD20680068C043C007EBD1002070BDDD
:100330003F000080FEE770472DE9F0470024DFF81A
:10034000B881DFF8B8916E4F6E4D6F4E07E034B153
:10035000012C0BD0022C15D0032C38D123E0012224
:100360001021304601F003F8002205E000221021A0
:10037000304600F0FCFF01222021304600F0F7FF5C
:1003800000220AE000221021304600F0F0FF002297
:100390002021304600F0EBFF01224021304600F0E2
:1003A000E6FF00220FE000221021304600F0DFFFC0
:1003B00000222021304600F0DAFF002240213046A2
:1003C00000F0D5FF01228021304600F0D0FF01214E
:1003D000284600F0C7FFA8B1A4B9386848B1012188
:1003E000002003F0B9F904E0052000F0D7FE02F088
:1003F000F1FC0121284600F0B5FF0028F4D11E20B1
:1004000000F0CCFE0121284600F0ACFFB0B1012C79
:1004100014D1386848B1A11E002003F09DF904E012
:10042000052000F0BBFE02F0D5FC0121284600F0BB
:1004300099FF0028F4D11E2000F0B0FE01212846CB
:1004400000F090FF28B3022C23D13868022817D17E
:10045000D8F80000401CC21700EB927222F0030291
:10046000801AC8F8000002D0C9F8000008E02B216B
:10047000C9F8001004E0052000F090FE02F0AAFC8C
:100480000121284600F06EFF0028F4D11E2000F064
:1004900085FE0121284600F065FF80B1032C0ED1B6
:1004A000386818B9194901203860086001212846C8
:1004B00000F058FF0028F9D11E2000F06FFE012245
:1004C0001021304600F053FF01222021304600F079
:1004D0004EFF01224021304600F049FF01228021D9
:1004E000304600F044FF641C042CFFF630AFBDE83A
:1004F000F047012000F066BE3000002024000020FC
:100500003800002000040048000C00483C00002097
:10051000022000F057BE102000F054BE7047704714
:1005200070477047F0B5002302684FF0A04C3D4C77
:1005300095B01F46624501D100940DE0A24202D160
:10054000CDF800C008E0384D384EAA4201D10096DF
:1005500002E0B24214D1009590F84050012D12D023
:10056000012580F8405095686D0752D4009DAD6814
:100570006D074ED4624501D0A24206D12C4A05E057
:10058000012015B0F0BD0220FBE72A4A0D6840F6B5
:100590001F741DB39568466B25F4604545EA4635E2
:1005A0004E68354395600568AE6806F00306012E77
:1005B00002D12D68ED0731D1009DAD6805F003052E
:1005C000012D03D1009D2D68ED0727D10D688968A5
:1005D0000D439168A1430D4395601FE0916821F49C
:1005E0006041916001688D6805F00305012D02D11D
:1005F0000968C90712D10099896801F0030101292E
:1006000003D100990968C90708D19168A143916095
:1006100004E0416C41F020014164012380F8407006
:100620001846AEE7000100500004005000050050DD
:100630000003005000070050F0B595B0002400946E
:1006400090F840202546012A19D0012780F84070F3
:1006500003689A6852077CD44A681F26052A11D27B
:10066000D3F830C002EB4202520096402CEA060C4E
:100670000E6896404CEA060CC3F830C035E0022004
:1006800015B0F0BD0A2A0FD2D3F834C0521F02EBC6
:100690004202520096402CEA060C0E6896404CEA44
:1006A000060CC3F834C020E00F2A0FD2D3F838C0AC
:1006B0000A3A02EB4202520096402CEA060C0E68FF
:1006C00096404CEA060CC3F838C00EE0D3F83CC0A4
:1006D0000F3A02EB4202520096402CEA060C0E68DA
:1006E00096404CEA060CC3F83CC00268936813F0CD
:1006F0000C0F4FF0070374D1D1F800E0BEF10A0FE0
:1007000010D39669AEF10A0E0EEB4E0C03FA0CFEF6
:1007100026EA0E06D1F808E00EFA0CFE46EA0E06AE
:1007200096610FE0D2F814C00EEB4E0603FA06FEF7
:100730002CEA0E0CD1F808E00EFA06FE4CEA0E0C7C
:10074000C2F814C002684E69D2F80CC0CCF3C10CD8
:1007500000E0FDE04FEA4C0C06FA0CF6D1F810E090
:10076000DFF848C2BEF1010F42D0BEF1020F4DD0FA
:10077000BEF1030F58D0BEF1040F63D0166E91F88E
:1007800000C006F0F846B6EB8C6F03D1166E26F06B
:10079000004616660268566E91F800C006F0F846EC
:1007A000B6EB8C6F03D1566E26F000465666026893
:1007B000966E91F800C006F0F846B6EB8C6F03D148
:1007C000966E26F0004696660268D66E91F800C0D6
:1007D00006F0F846B6EB8C6F03D1D66E26F00046D5
:1007E000D6660268966806F00306012E3AD136E016
:1007F000D2F860E00EEA0C0E91F800C046EA8C6672
:100800004EEA060E4EF000461666EAE7D2F864E0BD
:100810000EEA0C0E91F800C046EA8C664EEA060E0F
:100820004EF000465666DCE7D2F868E00EEA0C0EA1
:1008300091F800C046EA8C664EEA060E4EF000467D
:100840009666CEE7D2F86CE00EEA0C0E91F800C086
:1008500046EA8C664EEA060E4EF00046C0E7166881
:10086000F6077AD1CE68012E06D052F8B03F0E7846
:10087000B740BB43136021E052F8B06F91F800C05D
:1008800007FA0CF73E4316600A680A2A0BD306687B
:10089000B769093A02EB420293409F438B68934049
:1008A0001F43B7610AE007687E69521C02EB4202EF
:1008B00093409E438B6893401E437E6103684FF0D4
:1008C000A0473B4EBB4201D0B34201D1394A00E0C0
:1008D000394A0968102904D0112907D012290AD0F1
:1008E0003BE0D2F808C04FEA0C2C08E0D2F808C070
:1008F0004FEACC1C03E0D2F808C04FEA4C2CBCF104
:10090000000F2ADBBB420DD0B34201D100970CE0AF
:100910002A4EDFF8ACC0B34202D1CDF800C004E0EB
:10092000634501D1009600E000959E6806F003063D
:10093000012E02D11E68F6070AD1009E8EB1B6685C
:1009400006F00306012E0CD1009E3668F60708D08B
:10095000416C41F020014164012480F84050204660
:100960008EE6102908D011291AD01229F5D19168E4
:1009700041F480019160F0E7BB42EED1916841F40F
:10098000000191600F49104A0968B1FBF2F101EBD7
:100990008101490000E0491E00910029FBD1DCE7FC
:1009A000BB42DAD1916841F08071E3E700F0FF8348
:1009B00000010050000300500007005000040050E8
:1009C000000500507000002040420F007047704743
:1009D0000068006C704700002DE9F0410446006893
:1009E0000168C34FC34DC44E49074FF0A04802D51C
:1009F0004168490705D40168090761D541680907BD
:100A00005ED5616CC90603D4616C41F40071616408
:100A10004146884201D0B04202D1D1F8082300E01B
:100A20003A6812F01F0F1BD0884201D0B04202D1A9
:100A3000D1F8082300E03A6802F01F02052A0FD01F
:100A4000884201D0B04202D1D1F8082300E03A68D0
:100A500002F01F02092A03D0884201D0A84201D126
:100A6000C16803E0B04200D02946C968C26812F4E8
:100A7000406F1FD189041DD4016809071AD5816808
:100A800049070FD4416821F00C014160606C20F4EB
:100A900080706064606CC0040CD4606C40F0010035
:100AA000606407E0606C40F010006064A06C40F08F
:100AB0000100A0642046FFF789FF21680C20086030
:100AC00020680168890602D54168890605D4016855
:100AD00049066ED5416849066BD5616C41F40051F9
:100AE00061644246904201D0B04202D1D2F808136C
:100AF00000E0396811F01F0F1CD0904201D0B042C5
:100B000002D1D2F8081300E0396801F01F0105296D
:100B100010D04146884201D0B04202D1D1F808330A
:100B200000E03B6803F01F03092B03D0884201D08B
:100B3000A84201D1C16803E0B04200D02946C9688B
:100B4000C36C13F0C00F07D08B0154D4C36813F4E7
:100B5000406F50D189044ED4016849064BD51146E7
:100B6000884201D0B04202D1D1F8082300E03A68AF
:100B700012F01F0F1BD0884201D0B04202D1D1F831
:100B8000082300E03A6802F01F02062A0FD08842CC
:100B900001D0B04202D1D1F8082300E03A6802F057
:100BA0001F02072A03D0884201D0A84202D1C1689F
:100BB00004E026E0B04200D02946C96889021AD470
:100BC000816809070FD4416821F060014160606CC1
:100BD00020F480506064606CC0050CD4606C40F000
:100BE0000100606407E0606C40F010006064A06C7D
:100BF00040F00100A0642046FFF790FC21686020CF
:100C000008602068016809060CD54068000609D50F
:100C1000606C40F480306064204600F095F92168F3
:100C20008020086020680168C9050DD54068C005AE
:100C30000AD5606C40F4003060642046FFF770FC19
:100C400021684FF4807008602068016889050DD51F
:100C5000406880050AD5606C40F4802060642046BE
:100C6000FFF75FFC21684FF400700860206801689E
:100C7000C90622D54168C9061FD5A16B01290ED02E
:100C8000404501D0B04201D11C4901E01849083962
:100C90008A68D20628D0886800F4404050B1606C61
:100CA00040F480606064A06C40F00200A0642046C4
:100CB000FFF78DFE21681020086020680168490553
:100CC00010D5416849050DD5616C41F480416164DE
:100CD000A16C41F00801A1644FF4806101602046DD
:100CE000FFF71DFCBDE8F081C068C007D6E7000033
:100CF000080700500004005000010050000300509D
:100D0000F0B54FF0000695B0040037463546009622
:100D100005D0606CC00648D4606C18B133E0012087
:100D200015B0F0BDA5642565E56484F84050204603
:100D300000F00CF920688068C00024D42046FFF73A
:100D400097FA0646606CC0061DD4E6B9606C20F4C4
:100D5000885040F0020060642068816821F04051B2
:100D600081602068816841F0805181606D486E49E2
:100D70000068B0FBF1F000EB8000400000E0401E96
:100D800000900028FBD120688168C90002D58068E6
:100D900080000AD5606C20F0020040F01000606412
:100DA000A06C40F00100A0640126606CC00675D400
:100DB000002E73D12068816849076FD4616C21F4DB
:100DC000807141F0020161644FF0A04E574B7045B5
:100DD00001D0984201D1564A00E0564ADFF858C186
:100DE0005649704501D100930EE0984202D1CDF8EA
:100DF00000E009E0884202D1CDF800C004E060457F
:100E000001D1009100E00095836803F00303012BFA
:100E100002D10068C00710D1009840B1806800F08E
:100E20000300012803D100980068C00705D190682D
:100E3000636820F4403018439060D4E902201043E6
:100E4000A26B012A02D04FF4805300E00023E26934
:100E500043EA42331843636A3843012B0AD1F2B1A3
:100E6000626C22F0020242F020026264A26C42F044
:100E70000102A264E26A012A21D023688B4201D0D8
:100E8000634518D14FF430774FF4E071BA4213D074
:100E90004FF480739A420AD139460DE038E0228D32
:100EA000274B03EB4242024342F48030E2E78A429E
:100EB00001D1194600E011460143206B0843216827
:100EC0008A6812F00C0F0AD1CA6844F202039A43EE
:100ED000CA60A169626B890341EA42010843226842
:100EE000D168184B19400143D1602069012820685E
:100EF000016B21F00F0102D1226A521E11430163DE
:100F0000A564606C20F0020040F00100606406E01F
:100F1000606C20F0020040F0100060640126304652
:100F2000FEE600007000002040420F00000100506B
:100F3000000300500007005000050050000400505E
:100F40000000FEFF07C0F0FF7047000070B52D4A9B
:100F50000568002310682C490324401C86B0B5F1B5
:100F6000A04F06D0294EB54230D11060012813D0D1
:100F70001AE01060012807D1486940F080504861AC
:100F8000486900F0805005900220CDE900046946D0
:100F900002934FF090400DE0486940F08050486166
:100FA000486900F0805005901020CDE900046946A2
:100FB0000293174800F012F900220321122000F0DA
:100FC0003DFB122000F02EFB06B070BD114885429B
:100FD000FAD1486940F0005048614869694600F01C
:100FE000005005904FF40050CDE9000402930A48E8
:100FF00000F0F4F8002203212F2000F01FFB2F2027
:10100000E0E70000600000200010024000010050F6
:101010000008004800040050000400482DE9F04199
:10102000044600688068400770D494F840000128A6
:101030000CD0012084F840002046FFF74BF9030054
:101040004FF0000605D084F840609EE00220BDE825
:10105000F081606C40F60161884340F48070606408
:1010600020684FF0A0414A4A4A4D884201D0904240
:1010700002D1D1F8087300E02F6817F01F0F464F18
:1010800003D0884201D0B8420BD1D4F844C02CF42C
:10109000801CC4F844C0D0F80CC05FEA8C1C14D487
:1010A0001BE0D4F844C04CF4801CC4F844C0904207
:1010B00002D1D1F80CC005E0DFF8DCC00CF10C0C5B
:1010C000DCF800C01CF0007F07D0D4F844C02CF43A
:1010D000005C4CF4805CC4F844C0D4F844C05FEABF
:1010E000CC4C06D5D4F848C02CF0060CC4F848C047
:1010F00000E0A66484F840601C2606606069082849
:101100002068466803D046F00C0607E03CE026F075
:10111000040646602068466846F008064660A06BF4
:10112000012804D12068466826F010064660206831
:10113000884201D0904202D1D1F8084300E02C68E7
:1011400014F01F0F1BD0884201D0904202D1D1F879
:10115000084300E02C6804F01F04052C0FD08842DF
:1011600001D0904202D1D1F8082300E02A6802F0B1
:101170001F02092A03D0884201D0B84205D18168F4
:1011800041F00401816000E0022318465FE700009F
:1011900000010050080700500004005070B50446DC
:1011A00000F0EAF80546601C02D0044800780444C8
:1011B00000F0E2F8401BA042FAD370BD64000020AA
:1011C00070470000044910B50A68024202D0086066
:1011D000FFF7F6FF10BD0000140401402DE9F84FA1
:1011E000DFF864B100234FF0010C4FF0030A4FF019
:1011F0000F090BF1040EA0E00CFA03F6324072D096
:101200004C68022C01D0122C0ED1DC0800EB8408B3
:10121000D8F820405D07EF0E09FA07F5AC430D69D9
:10122000BD402543C8F8205007685D0091F8048050
:101230000AFA05F408F00308A74308FA05F848EA93
:101240000708C0F800804F68012F05D0022F03D097
:10125000112F01D0122F11D18768D1F80C80A7432C
:1012600008FA05F848EA0708C0F808804768B74355
:101270000E79C6F300169E403E434660C668A643FC
:101280008C68AC403443C4604C68E40054D52F4CA7
:10129000A56945F00105A561A46923F0030504F0E3
:1012A000010400942A4C2E19B4689D072F0F09FAE7
:1012B00007F5AC43B0F1904F04D0264DA84203D1BE
:1012C000012512E0002510E0234DA84201D102259E
:1012D0000BE0224DA84201D1032506E0204DA84293
:1012E00002D1042501E027E00525BD402543B56076
:1012F000DBF800405D464E689443F60300D5144386
:101300002C60DEF8004075464E689443B60300D565
:1013100014432C600C4D08352C684E689443F6023B
:1013200000D514432C60084D0C352C684E6894434E
:10133000B60200D514432C605B1C0A6832FA03F431
:101340007FF45AAFBDE8F88F00040140001002405E
:10135000000001400004004800080048000C00485C
:10136000001000480069084000D0012070470AB111
:101370008161704781627047014880687047000052
:101380006400002090F84120202A24D190F84020C9
:10139000012A20D0012280F84020242280F8412018
:1013A0000268136823F0010313600268136823F4D2
:1013B00080531360026813680B43136001680A6866
:1013C00042F001020A60202180F84110002180F8DB
:1013D0004010084670470220704790F84120202AAC
:1013E00022D190F84020012A1ED0012280F840200E
:1013F000242280F841200268136823F0010313605F
:101400000268136823F4706343EA012111600168E4
:101410000A6842F001020A60202180F84110002190
:1014200080F84010084670470220704770B50400ED
:1014300004D094F84100002510B106E0012070BDF1
:1014400084F84050204600F04DF8242084F84100F4
:101450002068016821F0010101606068216820F0C6
:10146000706008612068816821F400418160E06853
:101470000128A06807D040F4044021688860E06833
:10148000022803D006E040F40040F6E721684FF45C
:101490000060486020684168114A1143416020683B
:1014A000C16821F40041C160D4E904010843A16985
:1014B00040EA01202168C860D4E907010843216897
:1014C00008602068016841F0010101606564202026
:1014D00084F84100256384F84250002070BD00006C
:1014E0000080000200B500680E4987B0884216D11E
:1014F000C020009012200190012002900320039050
:101500000420049069460848FFF768FE0748C1694F
:1015100041F40011C161C06900F40010059007B0EA
:1015200000BD0000005400400004004800100240CC
:10153000024881680278114481607047640000208D
:10154000074810B5016841F010010160032000F068
:1015500095F8002000F006F800F024F8002010BDF7
:101560000020024070B50D4D04464FF47A71287882
:10157000B1FBF0F00A490968B1FBF0F000F0C9FED8
:1015800048B9102C07D200222146501E00F056F810
:1015900000206C6070BD012070BD00006400002060
:1015A000700000201E4808B5816941F00101816189
:1015B000816901F001010091C16941F08051C1616F
:1015C000C06900F080500090052000F057F800221C
:1015D00011466FF00B0000F031F8002211466FF059
:1015E0000A0000F02BF8002211466FF0090000F00D
:1015F00025F800221146501F00F020F80022114665
:10160000101F00F01BF800221146901E00F016F883
:101610000022BDE808401146501E00F00FB800003F
:101620000010024000F01F0201219140400980009B
:1016300000F1E020C0F8001170470000F0B40E4B3C
:101640001B680C46C3F30223C3F10705042D00D920
:101650000425191D072901D2002300E0DB1E012605
:1016600006FA05F1491E214099409E40761E16401B
:101670003143F0BC01F062BA0CED00E0064900F025
:10168000070208684FF6FF03184040EA0220034AA9
:1016900010430860704700000CED00E00000FA0500
:1016A00070B504004FF0000604D094F871030025D3
:1016B00010B106E0012070BD84F87053204600F0A0
:1016C00043F8032084F8710301220CE0C6EBC60046
:1016D00004EB800080F8292000F8286F761CC57084
:1016E000C560056145616068B042EFD8002010E038
:1016F000C0EBC00104EB810181F8CD5181F8CC0130
:1017000081F8CF51C1F8D851C1F8DC51401CC1F863
:10171000E05161688142EBD82068A0F84020206841
:10172000A0F840502068A0F844502068A0F850501D
:1017300021684FF43F40A1F8400084F8245084F819
:101740007123002070BD000000B500680F4987B00C
:10175000884218D14FF4C050009002200190002020
:101760000290032003900E20049069464FF09040B1
:10177000FFF734FD0648C16941F40001C161C06949
:1017800000F40000059007B000BD0000005C0040C0
:10179000001002402DE9F84F04460068804DC00358
:1017A0006FD5E8690026C00008D4E86940F0805091
:1017B000E861E869012600F08050009079480168EE
:1017C000C90512D40168804641F480710160FFF7B9
:1017D000D3FD074605E000BFFFF7CEFDC01B642820
:1017E00035D8D8F80000C005F6D5286A10F4407046
:1017F00053D0A18801F4407181424ED0286A4FF441
:10180000803191FAA1F2B2FA82F29700664A4FF063
:101810000108174420F44070C7F8008491FAA1F140
:10182000B1FA81F102EB81010023C1F80034286292
:10183000C00732D0FFF7A0FD074641F2883A4FF0CB
:10184000020907E0FFF798FDC11B514502D90320AB
:10185000BDE8F88F99FAA9F1B1FA81F141F04001A0
:101860004846B8EB511F01D129680CE090FAA0F16D
:10187000B1FA81F141F04001B0EB511F02D1296A68
:1018800001E015E0696A99FAA9F0B0FA80F000F079
:101890001F0008FA00F21142D4D0286A616820F4CF
:1018A0004070084328621EB1E86920F08050E8616A
:1018B0002078C00705D0286BA16820F003000843FA
:1018C00028632078800705D5286BE16820F4403034
:1018D000084328632078400705D5286B216920F448
:1018E0004020084328632078800605D5286BE169ED
:1018F00020F01000084328632068800305D568683D
:10190000A16B20F48000084368602078400605D56C
:10191000286B216A20F02000084328632078000704
:1019200005D5286B616920F44010084328632078AE
:10193000C00605D5286BA16920F440000843286340
:101940002088800505D56868E16A20F40000084316
:1019500068602078000605D5E86A616A20F4F870AE
:101960000843E8622088C00505D5E86AA16A20F42A
:1019700078500843E8622088C00405D5286B216BA5
:1019800020F48070084328632088800405D5286BE4
:10199000616B20F4007008432863002058E70000C2
:1019A0000010024000700040000042422DE9F04764
:1019B0000F46050069D04A4E306800F00700B84273
:1019C00009D2306820F0070038433060306800F0FA
:1019D0000700B84259D12878424C800705D5606885
:1019E000A96820F0F000084360602878C0073DD067
:1019F0006968012001290DD0022923D05FF002037C
:101A000093FAA3F2B2FA82F242F02002520904D011
:101A1000226803E04FF40033F2E7626A93FAA3F31B
:101A2000B3FA83F303F01F03984002422DD060689D
:101A300020F0030008436060FFF79EFC804641F2FF
:101A400088390CE04FF00073DAE700BFFFF794FC31
:101A5000A0EB0801494502D90320BDE8F087606882
:101A6000696800F00C00B0EB810FEFD1306800F036
:101A70000700B8420BD9306820F0070038433060C7
:101A8000306800F00700B84201D00120E5E728786F
:101A9000400705D56068E96820F4E06008436060AD
:101AA0002878000706D56068296920F4605040EA6C
:101AB000C100606000F022F86168F02292FAA2F2A0
:101AC00001F0F001B2FA82F2D140074A515CC840FD
:101AD000064908600020FFF745FD0020BDE7000033
:101AE00000200240001002405C3800087000002016
:101AF000014800687047000070000020144B10B5CA
:101B00005A68144802F00C0104291DD008291BD181
:101B10004FF4701494FAA4F402F47011B4FA84F43B
:101B2000E1400D4CDB6A615C0F2494FAA4F403F0ED
:101B30000F03B4FA84F4E340074C1034D203E35C9F
:101B400003D5B0FBF3F0484310BD0448484310BD33
:101B50000010024000127A003C38000800093D00E5
:101B60002DE9F84F040071D02078FB4DC0074FF0ED
:101B7000010625D068687704C0F38100012807D0EA
:101B80006868C0F3810002281BD16868C00318D5BB
:101B900097FAA7F0B0FA80F040F02000400901D099
:101BA000286800E0686A97FAA7F1B1FA81F101F0BC
:101BB0001F0106FA01F1084265D060680028D2D002
:101BC00061E06068B0F5803F0BD010B1B0F5A02F98
:101BD00017D0286820F480302860286820F48020FE
:101BE00002E0286840F480302860E86AA16820F0AC
:101BF0000F000843E862606820B3FFF7BDFB804632
:101C00000AE0286840F480202860EAE7FFF7B4FB88
:101C1000A0EB0800642872D897FAA7F0B0FA80F019
:101C200040F02000400901D0286800E0686A97FA77
:101C3000A7F1B1FA81F101F01F0106FA01F10842A2
:101C4000E4D020E0FFF798FB804607E0C7E000BF44
:101C5000FFF792FBA0EB08006428DCD897FAA7F006
:101C6000B0FA80F040F02000400901D0286800E080
:101C7000686A97FAA7F1B1FA81F101F01F0106FA3B
:101C800001F10842E4D12078DFF8D08280074FF0DC
:101C9000000A4FF0020759D568684FF0F80B10F0B2
:101CA0000C0F07D06868C0F3810002281BD1686858
:101CB000C00318D497FAA7F0B0FA80F040F02000E3
:101CC000400901D0286800E0686A97FAA7F1B1FAE4
:101CD00081F101F01F0106FA01F108422BD02069C1
:101CE00001287CD127E0206988B396FAA6F0B0FAE3
:101CF00080F048F82060FFF73FFB814606E055E1A1
:101D0000FFF73AFBA0EB0900022884D897FAA7F066
:101D1000B0FA80F040F02000400901D0286800E0CF
:101D2000686A97FAA7F1B1FA81F101F01F0106FA8A
:101D300001F10842E4D028689BFAABF26169B2FA7B
:101D400082F220F0F80091400843286025E0FFE788
:101D500096FAA6F1B1FA81F148F821A0FFF70CFB41
:101D6000814605E0FFF708FBA0EB09000228CCD86C
:101D700097FAA7F0B0FA80F040F02000400901D0B7
:101D8000286800E0686A97FAA7F1B1FA81F101F0DA
:101D90001F0106FA01F10842E4D1207800076AD554
:101DA000A069A0B396FAA6F0B0FA80F008EB800024
:101DB000C0F88064FFF7E0FA814605E0FFF7DCFA3F
:101DC000A0EB09000228A0D897FAA7F0B0FA80F09B
:101DD00040F06000B6EB501F02D128680CE077E1BC
:101DE00097FAA7F0B0FA80F040F06000B7EB501F10
:101DF00001D1286A00E0686A97FAA7F1B1FA81F187
:101E000001F01F0106FA01F21042D7D033E0FFE7DC
:101E100096FAA6F0B0FA80F008EB8000C0F880A433
:101E2000FFF7AAFA814605E0FFF7A6FAA0EB090042
:101E300002289CD897FAA7F0B0FA80F040F0600032
:101E4000B6EB501F01D128680BE097FAA7F0B0FA63
:101E500080F040F06000B7EB501F01D1286A00E02D
:101E6000686A97FAA7F1B1FA81F101F01F0106FA49
:101E700001F21042D8D12078400774D5E8694FF0BC
:101E80000009C00009D4E86940F08050E861E869C1
:101E90004FF0010900F08050009031480168C905F9
:101EA00012D4016841F480710160FFF765FA83463E
:101EB00006E000BFFFF760FAA0EB0B00642875D8BE
:101EC00027480068C005F5D5E06801280AD008B1A8
:101ED000052811D0286A20F001002862286A20F025
:101EE000040002E0286A40F001002862E068C8B3FC
:101EF000FFF742FA83460DE0286A40F004002862AA
:101F0000F0E700BFFFF738FAA0EB0B0141F2883091
:101F100081424BD897FAA7F0B0FA80F040F0400029
:101F2000B6EB501F01D128680BE097FAA7F0B0FA82
:101F300080F040F04000B7EB501F01D1286A00E06C
:101F4000686A97FAA7F1B1FA81F101F01F0106FA68
:101F500001F21042D6D035E00010024000004242AB
:101F60000070004000E034E0FFF706FA834607E027
:101F7000FFF702FAA0EB0B0141F28830814215D83D
:101F800097FAA7F0B0FA80F040F04000B6EB501F8F
:101F900001D128680CE097FAA7F0B0FA80F040F081
:101FA0004000B7EB501F02D1286A01E083E0686A65
:101FB00097FAA7F1B1FA81F101F01F0106FA01F2D7
:101FC0001042D5D1B9F1000F03D0E86920F080505C
:101FD000E861E06980B36968C1F38101022977D0C3
:101FE0004FF080714F00022809D091FAA1F0B0FAA9
:101FF00080F048F820A0FFF7BFF904465EE05046A5
:102000008A4691FAA1F1B1FA81F1C14648F821005E
:10201000FFF7B2F9804605E0FFF7AEF9A0EB080044
:10202000022848D897FAA7F0B0FA80F040F02000D4
:10203000400902D0286801E056E0686A97FAA7F1E3
:10204000B1FA81F101F01F0106FA01F10842E3D172
:10205000D4E908100843696821F4741108436860E2
:102060009AFAAAF0B0FA80F049F82060FFF784F9F4
:10207000044604E0FFF780F9001B02281BD897FAFA
:10208000A7F0B0FA80F040F02000400901D02868A5
:1020900000E0686A97FAA7F1B1FA81F101F01F0137
:1020A00006FA01F10842E5D01EE000BFFFF764F92F
:1020B000001B022802D90320BDE8F88F97FAA7F089
:1020C000B0FA80F040F02000400902D0286801E01A
:1020D0000CE0686A97FAA7F1B1FA81F101F01F01EB
:1020E00006FA01F10842E1D10020E5E70120E3E72B
:1020F00070B5040002D0607F10B106E0012070BD11
:1021000000202077204600F049F8022060772168FF
:10211000CA204862216853204862204600F020FD12
:10212000FF25042618BB206881681B4A1140816086
:102130002168886862681043D4E904231A43104375
:1021400088602168E068086120680169228941EAA5
:10215000024101612068C16821F08001C1602068EE
:102160008068800607D4204600F02CF818B120685B
:1021700045626677C2E72068016C21F48021016422
:102180002068016CA2691143016420684562012046
:102190006077002070BD0000BFFF8FFF0068074917
:1021A00088420AD10120C10391FAA1F1044AB1FA8F
:1021B00081F102EB8101C1F8000470470028004062
:1021C0000000424270B504460068C16821F0A001D9
:1021D000C160FFF7D1F805464FF47A7607E000BFFB
:1021E000FFF7CAF8401BB04201D9032070BD206838
:1021F000C0688006F4D5002070BD2DE9F0410400D0
:1022000005D00025A56294F85D0018B107E0012013
:10221000BDE8F08184F85C50204600F049F80223C4
:1022200084F85D302068016821F040010160E068B9
:102230004FF4E066B04201D9002101E04FF4805133
:10224000B0F5706F02D0B04200D0A562276B0122BA
:1022500027B9B04201D9236300E02263D4E9010326
:102260001843D4E9043633431843238B03F4007333
:102270001843E3691843236A1843A36A1843236881
:102280001860636B606AA66918430427E36807EA6D
:102290001646334318430843216848602068C169E3
:1022A00021F40061C161256684F85D200020AFE75C
:1022B00000B500680E4987B0884217D10D48816982
:1022C00041F4805181618069694600F48050059035
:1022D000E020009002200190002002900320039053
:1022E000052004904FF09040FEF778FF07B000BD46
:1022F00000300140001002404FF0E021042808693E
:1023000003D020F004000861704740F00400FAE7B1
:10231000704710B5401EB0F1807F01D3012010BD81
:102320004FF0E02460610F21601700F007FC0020EF
:10233000A06107202061002010BD10B5FFF7E8FF65
:1023400010BD70477047704730B590F83C20012AA7
:102350001FD0012280F83C200268536894680E4D1B
:10236000AA4202D00D4DAA4203D123F470054B6856
:102370002B4323F070050B6889682B4324F08004FD
:102380002143536002689160002180F83C100846A8
:1023900030BD022030BD0000002C0140003401405F
:1023A00010B5040003D094F83D0010B107E00120FF
:1023B00010BD002084F83C00204600F00DF80220FB
:1023C00084F83D00211D206800F03AFD012084F8CA
:1023D0003D00002010BD000008B501681448B1F1AF
:1023E000804F14D0134A914220D1C16941F00201BB
:1023F000C161C069002200F00200009001211D208F
:10240000FFF71CF91D20BDE80840FFF70BB9C169B3
:1024100041F00101C161C069002200F0010000909B
:1024200002211C20FFF70AF91C20ECE708BD000080
:1024300000100240000400400168CA6842F0010236
:10244000CA600068016841F0010101600020704726
:1024500070B5044690F83C00012817D0012584F897
:102460003C50022084F83D0022689068364E30408F
:1024700020F47F4090600868502839D00DDC202877
:102480005BD005DC98B3102843D153E0022070BD27
:10249000302855D040283CD141E0602830D0702809
:1024A0000CD0B0F5805F03D0B0F5005F31D112E001
:1024B00020688168244A7032114016E0CB68D1E967
:1024C0000121206800F014FD21688868304040F048
:1024D000770088601DE0CB68D1E90121206800F019
:1024E00007FD2068816841F48041816011E01EE0B1
:1024F000CA684968206800F00DFD5021206806E098
:10250000CA684968206800F016FD6021206800F064
:10251000F9FC84F83D50002084F83C0070BDCA6886
:102520004968206800F0F6FC40212068EFE70021B0
:102530002068ECE710212068E9E720212068E6E721
:1025400030212068E3E7000088FFFEFF704770B588
:102550000446006801694FF00005C943890715D496
:10256000C168C943890711D4E91E016101202077A0
:10257000206880698007204602D0FFF7E7FF04E06B
:1025800000F0A7F8204600F0A5F82577206801693B
:10259000C943490717D4C168C943490713D46FF029
:1025A00004010161022020772068806910F4407FD7
:1025B000204602D0FFF7CAFF04E000F08AF8204668
:1025C00000F088F8257720680169C943090716D407
:1025D000C168C943090712D46FF0080101610420E2
:1025E00020772068C0698007204602D0FFF7AEFF41
:1025F00004E000F06EF8204600F06CF825772068C3
:102600000169C943C90617D4C168C943C90613D4AF
:102610006FF010010161082020772068C06910F474
:10262000407F204602D0FFF791FF04E000F051F810
:10263000204600F04FF8257720680169C943C90793
:1026400008D1C168C943C90704D1891E0161204668
:1026500000F041F820680169C943090609D4C1683E
:10266000C943090605D46FF0800101612046FFF7D8
:1026700069FE20680169C943C90509D4C168C94315
:10268000090605D46FF4807101612046FFF759FEF9
:1026900020680169C943490609D4C168C94349068C
:1026A00005D46FF040010161204600F015F8206864
:1026B0000169C94389060BD4C168C943890607D497
:1026C0006FF0200101612046BDE87040FFF73BBE7E
:1026D00070BD7047704770477047FEE7F0B589B02E
:1026E0000C460F49DDE9106591F800E00021DDE9B5
:1026F0000EC705910691CDE9003C0791089113465C
:10270000BEF1000F02972246014601D0012000E0F1
:102710000020CDE9036500F099FD09B0F0BD00008F
:102720000000002030B5194889B04FF0A0410024C6
:10273000C0E900140461C46101254462C0E90B547E
:1027400018210562C0E9021404214463C0E905149C
:102750008463FEF7D5FA00B1FEE706A90B4806949C
:10276000FDF7E0FE00B1FEE70220CDE900050720FD
:10277000CDE902040494694604480594FDF75CFF22
:10278000002800D0FEE709B030BD00008400002022
:1027900030B5164887B014490024C0E9001404611C
:1027A000C46101254462C0E90B5418210562C0E9E7
:1027B000021404214463C0E905148463FEF7A0FAFF
:1027C00000B1FEE70520CDE900050720CDE90204B0
:1027D0000494694605480594FDF72EFF002800D0B3
:1027E000FEE707B030BD000000010050D800002017
:1027F00030B5194889B017490024C0E900140461B4
:10280000C46101254462C0E90B5418210562C0E986
:10281000021404214463C0E905148463FEF770FACE
:1028200000B1FEE706A90C480694FDF77BFE00B157
:10283000FEE70520CDE900050720CDE90204049458
:10284000694605480594FDF7F7FE002800D0FEE72D
:1028500009B030BD000400502C0100202DE9F04FDC
:102860005E4887B0416941F400114161416901F45A
:1028700000110591416941F400214161416901F470
:1028800000210591416941F480014161416901F4F0
:1028900080010591416941F400314161416901F4D0
:1028A00000310591416941F480214161416901F4A0
:1028B00080210591416941F4801141614069DFF84F
:1028C000209100F480100590002208214846FEF770
:1028D0004EFDDFF810A14FF4F05700223946504664
:1028E000FEF745FD4FF4E0684FF0904B0022414663
:1028F0005846FEF73CFD0022F3213B48FEF737FD2A
:102900000820009001260024CDE90164694648466C
:102910000394FEF763FC202000903448CDE90104C5
:1029200069464846FEF75AFC022500966946584615
:10293000CDE90145FEF752FC172000902C48CDE967
:10294000010569462B48FEF749FC4FF4D44000903E
:10295000CDE9015469464846CDE90345FEF73EFC02
:10296000CDE90254CDE9007669465046FEF736FCC3
:10297000CDE90254CDE9008669465846FEF72EFCA3
:102980000320CDE90006CDE9025469461648FEF75A
:1029900025FCF0200090CDE90164694612480394BB
:1029A000FEF71CFC012211460620FEF747FE06201A
:1029B000FEF738FE012211460720FEF73FFE0720F2
:1029C000FEF730FE012211460A20FEF737FE0A20EC
:1029D000FEF728FE07B0BDE8F08F000000100240AF
:1029E0000010004800080048000C004800001210C9
:1029F0000000111000040048114810B50F49016093
:102A00001049416000210122C0E9021201614161C7
:102A10008161C1610162FEF709FD00B1FEE700219D
:102A20000748FEF7AFFC00B1FEE700210448FEF7BF
:102A3000D4FC002800D0FEE710BD00000054004088
:102A4000800100200E090020104810B50E490160D9
:102A50004FF48271416000214FF44072C0E90212CC
:102A60004FF400720161C0E905120822C0E9072194
:102A700007234162C0E90A13C0E90C12FFF7BDFB4E
:102A8000002800D0FEE710BD00300140EC0100201E
:102A900010B5134888B04FF08041016040F2CF215B
:102AA0000024C0E9011442F21071C0E903148461EA
:102AB000FFF776FC00B1FEE74FF48050039003A9C6
:102AC0000748FFF7C5FC00B1FEE7009469460448DB
:102AD0000294FFF739FC002800D0FEE708B010BDD3
:102AE0005002002010B5134888B01149016023211D
:102AF0000024C0E9011442F21071C0E9031484619A
:102B0000FFF74EFC00B1FEE74FF48050039003A99D
:102B10000848FFF79DFC00B1FEE7009469460548B0
:102B20000294FFF711FC002800D0FEE708B010BDAA
:102B30000004004090020020FEE770470907090EDC
:102B4000002806DA00F00F0000F1E02080F8141DE4
:102B5000704700F1E02080F80014704770470000D3
:102B600070B504460068C168490614D44FF0FF31BF
:102B7000C160FEF701FC05464FF47A7607E000BF1E
:102B8000FEF7FAFB401BB04201D9032070BD20685C
:102B9000C0684006F4D5002070BD704710B5FEF740
:102BA000C7FCBDE81040FFF7C8BB000030B59FB0C0
:102BB0000B2000904FF4A0200024CDE90104012057
:102BC0000225CDE906051021CDE904010004089095
:102BD0004FF4E01009906846FEF7C2FF00B1FEE72F
:102BE0000F20CDE919054FF48060CDE91B4002218B
:102BF00019A81D94FEF7DAFE00B1FEE710480A900E
:102C00004FF4807013904001149000110B901194B8
:102C100018940AA8FEF7BEFD00B1FEE7FEF768FFB4
:102C20004FF47A71B0FBF1F0FFF773FB0420FFF76C
:102C300063FB00221146501EFEF700FD1FB030BDA1
:102C4000A00103001448016841F4700101601348B9
:102C5000016841F0010101604168114A1140416081
:102C60000168104A11400160016821F4802101606F
:102C7000416821F4FE014160C16A21F00F01C16287
:102C8000016B094A11400163002181600249C003C0
:102C9000803908607047000088ED00E000100240B5
:102CA0000CC07FF8FFFFF6FECCFC00FF2DE9F05FC3
:102CB0003D4C3E4E4FF0010BA06878BB00214B1EEF
:102CC00001EB8102002006EB021200BF42F8203027
:102CD000401C1428FADB491C0429F1DB3448FEF7B8
:102CE0009DF93448FEF79AF93348FEF797F9334DCA
:102CF000012210212846FEF73AFB01222021284616
:102D0000FEF735FB012240212846FEF730FB012269
:102D100080212846FEF72BFBC4F808B02068DFF8B6
:102D2000A080DFF8A0900025274F4FF0020A01286D
:102D30000DD100F0F6F93868012807D1C8F8005025
:102D40002B20C9F800503060C4F804A02560386812
:102D500020B1012805D0022815D01BE000F034FC7A
:102D600016E000F0F3FA01214FF09040FEF7FAFA76
:102D700070B1C8F80050C9F800500320C7F800A08F
:102D8000C4E900B006E01148FFF756FB00F006FB6F
:102D9000386808B100F08EF90D48FFF7D8FBBDE8A0
:102DA000F05F0B48FFF748BB3C00002040070020C5
:102DB00084000020D80000202C010020000C0048D6
:102DC000140000201800002038000020900200208D
:102DD0005002002038B5184C60690090D4E90721F2
:102DE000A369E06800F03AFB01216269002032B17A
:102DF000A2693AB1E26942B1226A4AB10AE0C4E981
:102E0000051007E0C4E9061004E0C4E9071001E07A
:102E1000216260612269521C2261E16821B1C82AE5
:102E200002D1491EC4E903100448FFF790FBBDE836
:102E300038400248FFF700BB3C0000209002002011
:102E40002DE9F0430268234B234D244E244C4FF0D0
:102E50008049984207D0484505D0A84203D0B042E7
:102E600001D0A04203D122F070074A683A431D4FB7
:102E7000DFF874C0DFF8748098420DD048450BD05D
:102E8000A84209D0B04207D0A04205D0B84203D032
:102E9000604501D0404503D122F44075CA682A43F9
:102EA0004D6922F080022A4302608A68C2620A6881
:102EB0008262984207D0A04205D0B84203D0604554
:102EC00001D0404501D10969016301214161BDE89B
:102ED000F0830000002C0140000400400008004086
:102EE00000340140004001400044014000480140DE
:102EF00010B5846842EA032224F47F440A43224343
:102F0000826010BD826822F070020A4342F007011D
:102F10008160704710B5036A046A24F001040462FA
:102F2000846924F0F00444EA021423F00A020A43FC
:102F30008461026210BD10B5036A23F010030362BE
:102F40008369046A23F4704343EA023224F0A00345
:102F500043EA01118261016210BDFEE702E008C888
:102F6000121F08C1002AFAD170477047002001E003
:102F700001C1121F002AFBD17047000030B54B4C35
:102F800085B00D46012903D9A17841F00801A1704F
:102F900000F14003024665714021002000F00AFB69
:102FA000607828B1012D03D1A07840F00400A07012
:102FB00000F0F6F8032003900120019021783C48AE
:102FC0000029E2880188638941EA0201228942EAF4
:102FD000030241EA0201428841EA0201828841EA91
:102FE000020101D0C08808E0C28811430289114360
:102FF000428911438289C089114301430091694686
:10300000E068FEF7EBF83220FEF7C8F80022E1880E
:10301000E068FEF7ACF900226189E068FEF7A7F9E5
:103020002189FF2903D00022E068FEF7A0F9A078EB
:10303000C10615D4032000F0CDFB0520FEF7AEF845
:10304000032000F0C7FB0520FEF7A8F8032000F0DE
:10305000C1FB0120FEF7A2F8022000F0BBFB13E049
:1030600040F0200000F05FF80520FEF797F8A07808
:1030700040F0200000F057F80120FEF78FF8A0780C
:1030800040F0200000F04FF8A07840F0200000F061
:103090004AF80420E07000F077F800F039F80220D8
:1030A0002071062000F03FF805B030BD0000002080
:1030B000740000202DE9F041144F002505EB850038
:1030C000002407EB001600BF56F82400411C09D06D
:1030D000A028E9B2E0B20DD000F010FA16F82400F2
:1030E00000F072FB641C142CEEDB6D1C042DE5DB80
:1030F000BDE8F08100F002FA16F8240000F064FB4D
:103100004FF0FF3046F82400ECE7000040070020B5
:1031100010B5012000F007F8BDE810400220FEF7CE
:103120003DB8FFF7F5BF002100F0C6B970B50D46F8
:1031300000F00700402141EAC000FFF7F4FF00243F
:103140000121285D00F0B8F9641C082CF8DB70BD83
:10315000F0B585B003240126DDF828C0002701ADB5
:1031600040FA04FE5FEACE7E02D045F8246001E01A
:1031700045F82470641EF3D52846CDF800C000F051
:10318000D1F905B0F0BD00000449C87840F0040052
:10319000C87040F00800FFF7C6BF00000000002024
:1031A000234808B5C1682348B1F1904F0BD0224A9B
:1031B000914210D1416941F480214161406900F49C
:1031C0008020009008BD416941F4003141614069AF
:1031D00000F40030F5E7194A914207D1416941F402
:1031E00000214161406900F40020EAE7144A91425D
:1031F00007D1416941F480114161406900F48010B8
:10320000DFE7104A914207D1416941F40011416161
:10321000406900F40010D4E70B4A9142D2D14169D1
:1032200041F480014161406900F48000C9E7000079
:103230000000002000100240000400480008004880
:10324000000C004800100048001400482DE9F05F11
:103250000AAC94E8E05F0F4CE28023816581E16075
:103260000D490E804F80A1F80480A1F80690A1F8C6
:1032700008A0A1F80AB0A1F80CC0A1F80EE008B1AE
:10328000002000E01020A070BDE8F05F02211020B7
:10329000FFF774BE00000020740000201FB5FEF789
:1032A0004FF9FFF783FCFFF7D9FAFFF7A5FBFFF70C
:1032B000CBFB224820490024016008214160022103
:1032C000C0E90214846104620161FEF7E9F900B10A
:1032D000FEE7FFF727FA1B481949C0E90014272128
:1032E000816040F2E731C0E9031444618461FEF774
:1032F000FFFE00B1FEE7FFF74BFAFFF779FAFFF7A1
:10330000C7FBFFF7EFFB4FF480435A1051104810F2
:103310008DE80F0043108210C1100B48FFF7DEF953
:1033200004211420FFF72AFE00F0AAF90348803890
:10333000FFF782F8FEE70000005C0040D0020020AA
:1033400000280040CC010020000C004810B50021EE
:10335000022000F0D3F809A000F04EF8012102206D
:1033600000F0CCF808A000F047F80221084600F071
:10337000C5F8BDE8104007A000F03EB84E657720C4
:1033800047616D65000000004C6F61642047616D0E
:103390006500000041626F757400000070B5144C48
:1033A0006069002823D04FF0904501212846FDF7A1
:1033B000D9FF00281BD02068616800EB80030D480E
:1033C00000EB8302505C60B9E06950B12069505451
:1033D000084A503202EB031242F821006069401E95
:1033E000606101212846FDF7BDFF0028F9D170BDBD
:1033F00014000020F006002070B500280FD004460D
:10340000FCF7DEFE0546002606E000BF14F8010BBF
:10341000012100F051F8761C6D1EF7D2304670BDC8
:1034200010B50D4C00226189E068FDF7A0FF012076
:10343000FDF7B4FE01226189E068FDF798FF0120E5
:10344000FDF7ACFE00226189E068FDF790FFBDE862
:1034500010400120FDF7A2BE00000020F8B50A24AC
:1034600090FBF4F504FB150C90FBF4F5069F0A3D68
:1034700001D590FBF4F5642490FBF4FE0D4E346A04
:10348000B069012C04D0022C04D0032C04D004E039
:10349000704602E0284600E06046641CE51704EB35
:1034A000957525F00305641B34620097FFF750FE05
:1034B000F8BD00001400002070B50F4C05460A4608
:1034C000E188E068FDF753FF2189FF2903D000223E
:1034D000E068FDF74CFFA078C00604D52846BDE89B
:1034E000704000F091B9280900F074F92846BDE851
:1034F000704000F06FB9000000000020042900D3E4
:103500000321074A5279914201D3521ED1B2044A93
:103510001032515C0844C0B240F08000FFF703BE97
:10352000000000202DE9F047DFF88090089D1E463E
:1035300090460F460446BDB3002202214846FDF7DF
:1035400016FFFAB201214846FDF711FF184F08F0A7
:10355000FF024FF480513846FDF709FFF2B24FF4F5
:1035600000613846FDF703FFEAB24FF48065294653
:103570003846FDF7FCFE6E10227831463846FDF7DE
:10358000F6FE4FF090472279A9103846FDF7EFFE7E
:10359000227A31463846FDF7EAFE227B2946384634
:1035A000BDE8F047FDF7E3BE0122C6E7000C004886
:1035B0000008004810B5034C20706170A270E370E1
:1035C00010BD00001000002010B56420FDF7E6FDDE
:1035D00000210720FFF792FF24A0FFF70DFF012134
:1035E0000920FFF78BFF23A0FFF706FF022106202B
:1035F000FFF784FF20A0FFF7FFFE03210620FFF75F
:103600007DFF012000F0E0F803210720FFF776FF9F
:10361000022000F0D9F803210820FFF76FFF0320F4
:1036200000F0D2F803210A20FFF768FF042000F021
:10363000CBF803210B20FFF761FF052000F0C4F851
:1036400003210C20FFF75AFF062000F0BDF80321EC
:103650000D20FFF753FF072000F0B6F840F2B63018
:10366000FDF79CFDBDE81040FFF752BD506C616E48
:1036700074730000767300005A6F6D6269657300A1
:1036800000B525A191B0D1E90001CDE9000124A048
:10369000D0E90010CDE9021023A0D0E90010CDE957
:1036A000041023A0D0E90010CDE9061022A0D0E933
:1036B0000010CDE9081022A0D0E90010CDE90A10D1
:1036C00021A0D0E90010CDE90C1021A0D0E9001014
:1036D000CDE90E100EA90020FFF728FD6946012054
:1036E000FFF724FD02A90220FFF720FD04A9032013
:1036F000FFF71CFD06A90420FFF718FD08A9052007
:10370000FFF714FD0AA90620FFF710FD0CA90720FA
:10371000FFF70CFD11B000BD040A111B1111111FA0
:10372000040A150A040E150400040E040E11110EED
:10373000040A041F04040A111F111F0404040A11BF
:10374000040A1F040E040A11110A0E0A0E040A11BB
:103750000000150E1F0E1500F0B5184A184C13681E
:10376000576803EB830604EB860515F807C004F1E0
:103770005005BCF1000F05D105EB06164FF0A00C6B
:1037800046F827C00F4E3668B34203D1002901DD49
:10379000166004E00BB9002901DB19441160506088
:1037A000116801EB810104EB81031B5C002B04D148
:1037B00005EB0111126941F82020F0BD1400002032
:1037C000F00600204000002010B50121FFF774FE34
:1037D000012010BD2DE9F041094E0A4F0546002495
:1037E00025FA04F000F0010236F81410F868FDF72D
:1037F000BEFD641C042CF3DBBDE8F041FFF710BEF6
:1038000074000020000000202DE9F041094E0A4F0D
:103810000546002425FA04F000F0010236F81410E1
:10382000F868FDF7A4FD641C082CF3DBBDE8F0414B
:10383000FFF7F6BD7400002000000020020304051D
:10384000060708090A0B0C0D0E0F101001020304E5
:1038500005060708090A0B0C0D0E0F1000000000EA
:103860000000000001020304060708098C38000864
:1038700000000020740000005C2F000800390008E0
:10388000740000200C0C00006C2F000801000000E8
:103890000000000000000000000000000000000028
:1038A0000000000000000000050000000000000013
:1038B0002B000000070000000500000000000000D1
:1038C00000000000000000000100000002000000F5
:1038D00000000000A0000000000000000000000048
:1038E00001000000010000000100000000000000D5
:1038F00001000000100000000000000000127A002B
:040000050800018965
:00000001FF
